{
	"contracts/VestingContract.sol": {
		"VestingContract": {
			"abi": [
				{
					"inputs": [
						{
							"internalType": "contract IERC20",
							"name": "_token",
							"type": "address"
						},
						{
							"internalType": "address",
							"name": "initialOwner",
							"type": "address"
						}
					],
					"stateMutability": "nonpayable",
					"type": "constructor"
				},
				{
					"inputs": [
						{
							"internalType": "address",
							"name": "owner",
							"type": "address"
						}
					],
					"name": "OwnableInvalidOwner",
					"type": "error"
				},
				{
					"inputs": [
						{
							"internalType": "address",
							"name": "account",
							"type": "address"
						}
					],
					"name": "OwnableUnauthorizedAccount",
					"type": "error"
				},
				{
					"anonymous": false,
					"inputs": [
						{
							"indexed": false,
							"internalType": "address",
							"name": "beneficiary",
							"type": "address"
						},
						{
							"indexed": false,
							"internalType": "enum VestingContract.Role",
							"name": "role",
							"type": "uint8"
						},
						{
							"indexed": false,
							"internalType": "uint256",
							"name": "amount",
							"type": "uint256"
						}
					],
					"name": "BeneficiaryAdded",
					"type": "event"
				},
				{
					"anonymous": false,
					"inputs": [
						{
							"indexed": true,
							"internalType": "address",
							"name": "previousOwner",
							"type": "address"
						},
						{
							"indexed": true,
							"internalType": "address",
							"name": "newOwner",
							"type": "address"
						}
					],
					"name": "OwnershipTransferred",
					"type": "event"
				},
				{
					"anonymous": false,
					"inputs": [
						{
							"indexed": false,
							"internalType": "address",
							"name": "beneficiary",
							"type": "address"
						},
						{
							"indexed": false,
							"internalType": "uint256",
							"name": "amount",
							"type": "uint256"
						}
					],
					"name": "TokensWithdrawn",
					"type": "event"
				},
				{
					"anonymous": false,
					"inputs": [
						{
							"indexed": false,
							"internalType": "uint256",
							"name": "start",
							"type": "uint256"
						}
					],
					"name": "VestingStarted",
					"type": "event"
				},
				{
					"inputs": [
						{
							"internalType": "address",
							"name": "beneficiary",
							"type": "address"
						},
						{
							"internalType": "enum VestingContract.Role",
							"name": "role",
							"type": "uint8"
						},
						{
							"internalType": "uint256",
							"name": "totalAmount",
							"type": "uint256"
						}
					],
					"name": "addBeneficiary",
					"outputs": [],
					"stateMutability": "nonpayable",
					"type": "function"
				},
				{
					"inputs": [
						{
							"components": [
								{
									"internalType": "uint256",
									"name": "cliff",
									"type": "uint256"
								},
								{
									"internalType": "uint256",
									"name": "duration",
									"type": "uint256"
								},
								{
									"internalType": "uint256",
									"name": "start",
									"type": "uint256"
								},
								{
									"internalType": "uint256",
									"name": "totalAmount",
									"type": "uint256"
								},
								{
									"internalType": "uint256",
									"name": "releasedAmount",
									"type": "uint256"
								}
							],
							"internalType": "struct VestingContract.VestingSchedule",
							"name": "schedule",
							"type": "tuple"
						}
					],
					"name": "calculateVestedAmount",
					"outputs": [
						{
							"internalType": "uint256",
							"name": "",
							"type": "uint256"
						}
					],
					"stateMutability": "view",
					"type": "function"
				},
				{
					"inputs": [
						{
							"internalType": "enum VestingContract.Role",
							"name": "role",
							"type": "uint8"
						}
					],
					"name": "claimTokens",
					"outputs": [],
					"stateMutability": "nonpayable",
					"type": "function"
				},
				{
					"inputs": [],
					"name": "owner",
					"outputs": [
						{
							"internalType": "address",
							"name": "",
							"type": "address"
						}
					],
					"stateMutability": "view",
					"type": "function"
				},
				{
					"inputs": [],
					"name": "renounceOwnership",
					"outputs": [],
					"stateMutability": "nonpayable",
					"type": "function"
				},
				{
					"inputs": [
						{
							"internalType": "enum VestingContract.Role",
							"name": "",
							"type": "uint8"
						}
					],
					"name": "roleAllocation",
					"outputs": [
						{
							"internalType": "uint256",
							"name": "",
							"type": "uint256"
						}
					],
					"stateMutability": "view",
					"type": "function"
				},
				{
					"inputs": [],
					"name": "startVesting",
					"outputs": [],
					"stateMutability": "nonpayable",
					"type": "function"
				},
				{
					"inputs": [],
					"name": "token",
					"outputs": [
						{
							"internalType": "contract IERC20",
							"name": "",
							"type": "address"
						}
					],
					"stateMutability": "view",
					"type": "function"
				},
				{
					"inputs": [
						{
							"internalType": "address",
							"name": "newOwner",
							"type": "address"
						}
					],
					"name": "transferOwnership",
					"outputs": [],
					"stateMutability": "nonpayable",
					"type": "function"
				},
				{
					"inputs": [
						{
							"internalType": "address",
							"name": "",
							"type": "address"
						},
						{
							"internalType": "enum VestingContract.Role",
							"name": "",
							"type": "uint8"
						}
					],
					"name": "vestingSchedules",
					"outputs": [
						{
							"internalType": "uint256",
							"name": "cliff",
							"type": "uint256"
						},
						{
							"internalType": "uint256",
							"name": "duration",
							"type": "uint256"
						},
						{
							"internalType": "uint256",
							"name": "start",
							"type": "uint256"
						},
						{
							"internalType": "uint256",
							"name": "totalAmount",
							"type": "uint256"
						},
						{
							"internalType": "uint256",
							"name": "releasedAmount",
							"type": "uint256"
						}
					],
					"stateMutability": "view",
					"type": "function"
				}
			],
			"devdoc": {
				"errors": {
					"OwnableInvalidOwner(address)": [
						{
							"details": "The owner is not a valid owner account. (eg. `address(0)`)"
						}
					],
					"OwnableUnauthorizedAccount(address)": [
						{
							"details": "The caller account is not authorized to perform an operation."
						}
					]
				},
				"kind": "dev",
				"methods": {
					"owner()": {
						"details": "Returns the address of the current owner."
					},
					"renounceOwnership()": {
						"details": "Leaves the contract without owner. It will not be possible to call `onlyOwner` functions. Can only be called by the current owner. NOTE: Renouncing ownership will leave the contract without an owner, thereby disabling any functionality that is only available to the owner."
					},
					"transferOwnership(address)": {
						"details": "Transfers ownership of the contract to a new account (`newOwner`). Can only be called by the current owner."
					}
				},
				"version": 1
			},
			"evm": {
				"assembly": "    /* \"contracts/VestingContract.sol\":234:3223  contract VestingContract is Ownable {... */\n  mstore(0x40, 0x80)\n    /* \"contracts/VestingContract.sol\":886:1169  constructor(IERC20 _token, address initialOwner) Ownable(initialOwner) {... */\n  callvalue\n  dup1\n  iszero\n  tag_1\n  jumpi\n  0x00\n  dup1\n  revert\ntag_1:\n  pop\n  mload(0x40)\n  sub(codesize, bytecodeSize)\n  dup1\n  bytecodeSize\n  dup4\n  codecopy\n  dup2\n  dup2\n  add\n  0x40\n  mstore\n  dup2\n  add\n  swap1\n  tag_2\n  swap2\n  swap1\n  tag_3\n  jump\t// in\ntag_2:\n    /* \"contracts/VestingContract.sol\":943:955  initialOwner */\n  dup1\n    /* \"@openzeppelin/contracts/access/Ownable.sol\":1297:1298  0 */\n  0x00\n    /* \"@openzeppelin/contracts/access/Ownable.sol\":1273:1299  initialOwner == address(0) */\n  0xffffffffffffffffffffffffffffffffffffffff\n  and\n    /* \"@openzeppelin/contracts/access/Ownable.sol\":1273:1285  initialOwner */\n  dup2\n    /* \"@openzeppelin/contracts/access/Ownable.sol\":1273:1299  initialOwner == address(0) */\n  0xffffffffffffffffffffffffffffffffffffffff\n  and\n  sub\n    /* \"@openzeppelin/contracts/access/Ownable.sol\":1269:1364  if (initialOwner == address(0)) {... */\n  tag_7\n  jumpi\n    /* \"@openzeppelin/contracts/access/Ownable.sol\":1350:1351  0 */\n  0x00\n    /* \"@openzeppelin/contracts/access/Ownable.sol\":1322:1353  OwnableInvalidOwner(address(0)) */\n  mload(0x40)\n  0x1e4fbdf700000000000000000000000000000000000000000000000000000000\n  dup2\n  mstore\n  0x04\n  add\n  tag_8\n  swap2\n  swap1\n  tag_9\n  jump\t// in\ntag_8:\n  mload(0x40)\n  dup1\n  swap2\n  sub\n  swap1\n  revert\n    /* \"@openzeppelin/contracts/access/Ownable.sol\":1269:1364  if (initialOwner == address(0)) {... */\ntag_7:\n    /* \"@openzeppelin/contracts/access/Ownable.sol\":1373:1405  _transferOwnership(initialOwner) */\n  tag_10\n    /* \"@openzeppelin/contracts/access/Ownable.sol\":1392:1404  initialOwner */\n  dup2\n    /* \"@openzeppelin/contracts/access/Ownable.sol\":1373:1391  _transferOwnership */\n  shl(0x20, tag_11)\n    /* \"@openzeppelin/contracts/access/Ownable.sol\":1373:1405  _transferOwnership(initialOwner) */\n  0x20\n  shr\n  jump\t// in\ntag_10:\n    /* \"@openzeppelin/contracts/access/Ownable.sol\":1225:1412  constructor(address initialOwner) {... */\n  pop\n    /* \"contracts/VestingContract.sol\":976:982  _token */\n  dup2\n    /* \"contracts/VestingContract.sol\":968:973  token */\n  0x01\n  0x00\n    /* \"contracts/VestingContract.sol\":968:982  token = _token */\n  0x0100\n  exp\n  dup2\n  sload\n  dup2\n  0xffffffffffffffffffffffffffffffffffffffff\n  mul\n  not\n  and\n  swap1\n  dup4\n  0xffffffffffffffffffffffffffffffffffffffff\n  and\n  mul\n  or\n  swap1\n  sstore\n  pop\n    /* \"contracts/VestingContract.sol\":1021:1023  50 */\n  0x32\n    /* \"contracts/VestingContract.sol\":993:1007  roleAllocation */\n  0x03\n    /* \"contracts/VestingContract.sol\":993:1018  roleAllocation[Role.User] */\n  0x00\n    /* \"contracts/VestingContract.sol\":1008:1017  Role.User */\n  dup1\n    /* \"contracts/VestingContract.sol\":993:1018  roleAllocation[Role.User] */\n  0x02\n  dup2\n  gt\n  iszero\n  tag_13\n  jumpi\n  tag_14\n  tag_15\n  jump\t// in\ntag_14:\ntag_13:\n  0x02\n  dup2\n  gt\n  iszero\n  tag_16\n  jumpi\n  tag_17\n  tag_15\n  jump\t// in\ntag_17:\ntag_16:\n  dup2\n  mstore\n  0x20\n  add\n  swap1\n  dup2\n  mstore\n  0x20\n  add\n  0x00\n  keccak256\n    /* \"contracts/VestingContract.sol\":993:1023  roleAllocation[Role.User] = 50 */\n  dup2\n  swap1\n  sstore\n  pop\n    /* \"contracts/VestingContract.sol\":1082:1084  25 */\n  0x19\n    /* \"contracts/VestingContract.sol\":1051:1065  roleAllocation */\n  0x03\n    /* \"contracts/VestingContract.sol\":1051:1079  roleAllocation[Role.Partner] */\n  0x00\n    /* \"contracts/VestingContract.sol\":1066:1078  Role.Partner */\n  0x01\n    /* \"contracts/VestingContract.sol\":1051:1079  roleAllocation[Role.Partner] */\n  0x02\n  dup2\n  gt\n  iszero\n  tag_18\n  jumpi\n  tag_19\n  tag_15\n  jump\t// in\ntag_19:\ntag_18:\n  0x02\n  dup2\n  gt\n  iszero\n  tag_20\n  jumpi\n  tag_21\n  tag_15\n  jump\t// in\ntag_21:\ntag_20:\n  dup2\n  mstore\n  0x20\n  add\n  swap1\n  dup2\n  mstore\n  0x20\n  add\n  0x00\n  keccak256\n    /* \"contracts/VestingContract.sol\":1051:1084  roleAllocation[Role.Partner] = 25 */\n  dup2\n  swap1\n  sstore\n  pop\n    /* \"contracts/VestingContract.sol\":1143:1145  25 */\n  0x19\n    /* \"contracts/VestingContract.sol\":1115:1129  roleAllocation */\n  0x03\n    /* \"contracts/VestingContract.sol\":1115:1140  roleAllocation[Role.Team] */\n  0x00\n    /* \"contracts/VestingContract.sol\":1130:1139  Role.Team */\n  0x02\n    /* \"contracts/VestingContract.sol\":1115:1140  roleAllocation[Role.Team] */\n  dup1\n  dup2\n  gt\n  iszero\n  tag_22\n  jumpi\n  tag_23\n  tag_15\n  jump\t// in\ntag_23:\ntag_22:\n  0x02\n  dup2\n  gt\n  iszero\n  tag_24\n  jumpi\n  tag_25\n  tag_15\n  jump\t// in\ntag_25:\ntag_24:\n  dup2\n  mstore\n  0x20\n  add\n  swap1\n  dup2\n  mstore\n  0x20\n  add\n  0x00\n  keccak256\n    /* \"contracts/VestingContract.sol\":1115:1145  roleAllocation[Role.Team] = 25 */\n  dup2\n  swap1\n  sstore\n  pop\n    /* \"contracts/VestingContract.sol\":886:1169  constructor(IERC20 _token, address initialOwner) Ownable(initialOwner) {... */\n  pop\n  pop\n    /* \"contracts/VestingContract.sol\":234:3223  contract VestingContract is Ownable {... */\n  jump(tag_26)\n    /* \"@openzeppelin/contracts/access/Ownable.sol\":2912:3099  function _transferOwnership(address newOwner) internal virtual {... */\ntag_11:\n    /* \"@openzeppelin/contracts/access/Ownable.sol\":2985:3001  address oldOwner */\n  0x00\n    /* \"@openzeppelin/contracts/access/Ownable.sol\":3004:3010  _owner */\n  dup1\n  0x00\n  swap1\n  sload\n  swap1\n  0x0100\n  exp\n  swap1\n  div\n  0xffffffffffffffffffffffffffffffffffffffff\n  and\n    /* \"@openzeppelin/contracts/access/Ownable.sol\":2985:3010  address oldOwner = _owner */\n  swap1\n  pop\n    /* \"@openzeppelin/contracts/access/Ownable.sol\":3029:3037  newOwner */\n  dup2\n    /* \"@openzeppelin/contracts/access/Ownable.sol\":3020:3026  _owner */\n  0x00\n  dup1\n    /* \"@openzeppelin/contracts/access/Ownable.sol\":3020:3037  _owner = newOwner */\n  0x0100\n  exp\n  dup2\n  sload\n  dup2\n  0xffffffffffffffffffffffffffffffffffffffff\n  mul\n  not\n  and\n  swap1\n  dup4\n  0xffffffffffffffffffffffffffffffffffffffff\n  and\n  mul\n  or\n  swap1\n  sstore\n  pop\n    /* \"@openzeppelin/contracts/access/Ownable.sol\":3083:3091  newOwner */\n  dup2\n    /* \"@openzeppelin/contracts/access/Ownable.sol\":3052:3092  OwnershipTransferred(oldOwner, newOwner) */\n  0xffffffffffffffffffffffffffffffffffffffff\n  and\n    /* \"@openzeppelin/contracts/access/Ownable.sol\":3073:3081  oldOwner */\n  dup2\n    /* \"@openzeppelin/contracts/access/Ownable.sol\":3052:3092  OwnershipTransferred(oldOwner, newOwner) */\n  0xffffffffffffffffffffffffffffffffffffffff\n  and\n  0x8be0079c531659141344cd1fd0a4f28419497f9722a3daafe3b4186f6b6457e0\n  mload(0x40)\n  mload(0x40)\n  dup1\n  swap2\n  sub\n  swap1\n  log3\n    /* \"@openzeppelin/contracts/access/Ownable.sol\":2975:3099  {... */\n  pop\n    /* \"@openzeppelin/contracts/access/Ownable.sol\":2912:3099  function _transferOwnership(address newOwner) internal virtual {... */\n  pop\n  jump\t// out\n    /* \"#utility.yul\":88:205   */\ntag_29:\n    /* \"#utility.yul\":197:198   */\n  0x00\n    /* \"#utility.yul\":194:195   */\n  dup1\n    /* \"#utility.yul\":187:199   */\n  revert\n    /* \"#utility.yul\":334:460   */\ntag_31:\n    /* \"#utility.yul\":371:378   */\n  0x00\n    /* \"#utility.yul\":411:453   */\n  0xffffffffffffffffffffffffffffffffffffffff\n    /* \"#utility.yul\":404:409   */\n  dup3\n    /* \"#utility.yul\":400:454   */\n  and\n    /* \"#utility.yul\":389:454   */\n  swap1\n  pop\n    /* \"#utility.yul\":334:460   */\n  swap2\n  swap1\n  pop\n  jump\t// out\n    /* \"#utility.yul\":466:562   */\ntag_32:\n    /* \"#utility.yul\":503:510   */\n  0x00\n    /* \"#utility.yul\":532:556   */\n  tag_45\n    /* \"#utility.yul\":550:555   */\n  dup3\n    /* \"#utility.yul\":532:556   */\n  tag_31\n  jump\t// in\ntag_45:\n    /* \"#utility.yul\":521:556   */\n  swap1\n  pop\n    /* \"#utility.yul\":466:562   */\n  swap2\n  swap1\n  pop\n  jump\t// out\n    /* \"#utility.yul\":568:678   */\ntag_33:\n    /* \"#utility.yul\":619:626   */\n  0x00\n    /* \"#utility.yul\":648:672   */\n  tag_47\n    /* \"#utility.yul\":666:671   */\n  dup3\n    /* \"#utility.yul\":648:672   */\n  tag_32\n  jump\t// in\ntag_47:\n    /* \"#utility.yul\":637:672   */\n  swap1\n  pop\n    /* \"#utility.yul\":568:678   */\n  swap2\n  swap1\n  pop\n  jump\t// out\n    /* \"#utility.yul\":684:834   */\ntag_34:\n    /* \"#utility.yul\":771:809   */\n  tag_49\n    /* \"#utility.yul\":803:808   */\n  dup2\n    /* \"#utility.yul\":771:809   */\n  tag_33\n  jump\t// in\ntag_49:\n    /* \"#utility.yul\":764:769   */\n  dup2\n    /* \"#utility.yul\":761:810   */\n  eq\n    /* \"#utility.yul\":751:828   */\n  tag_50\n  jumpi\n    /* \"#utility.yul\":824:825   */\n  0x00\n    /* \"#utility.yul\":821:822   */\n  dup1\n    /* \"#utility.yul\":814:826   */\n  revert\n    /* \"#utility.yul\":751:828   */\ntag_50:\n    /* \"#utility.yul\":684:834   */\n  pop\n  jump\t// out\n    /* \"#utility.yul\":840:1011   */\ntag_35:\n    /* \"#utility.yul\":911:916   */\n  0x00\n    /* \"#utility.yul\":942:948   */\n  dup2\n    /* \"#utility.yul\":936:949   */\n  mload\n    /* \"#utility.yul\":927:949   */\n  swap1\n  pop\n    /* \"#utility.yul\":958:1005   */\n  tag_52\n    /* \"#utility.yul\":999:1004   */\n  dup2\n    /* \"#utility.yul\":958:1005   */\n  tag_34\n  jump\t// in\ntag_52:\n    /* \"#utility.yul\":840:1011   */\n  swap3\n  swap2\n  pop\n  pop\n  jump\t// out\n    /* \"#utility.yul\":1017:1139   */\ntag_36:\n    /* \"#utility.yul\":1090:1114   */\n  tag_54\n    /* \"#utility.yul\":1108:1113   */\n  dup2\n    /* \"#utility.yul\":1090:1114   */\n  tag_32\n  jump\t// in\ntag_54:\n    /* \"#utility.yul\":1083:1088   */\n  dup2\n    /* \"#utility.yul\":1080:1115   */\n  eq\n    /* \"#utility.yul\":1070:1133   */\n  tag_55\n  jumpi\n    /* \"#utility.yul\":1129:1130   */\n  0x00\n    /* \"#utility.yul\":1126:1127   */\n  dup1\n    /* \"#utility.yul\":1119:1131   */\n  revert\n    /* \"#utility.yul\":1070:1133   */\ntag_55:\n    /* \"#utility.yul\":1017:1139   */\n  pop\n  jump\t// out\n    /* \"#utility.yul\":1145:1288   */\ntag_37:\n    /* \"#utility.yul\":1202:1207   */\n  0x00\n    /* \"#utility.yul\":1233:1239   */\n  dup2\n    /* \"#utility.yul\":1227:1240   */\n  mload\n    /* \"#utility.yul\":1218:1240   */\n  swap1\n  pop\n    /* \"#utility.yul\":1249:1282   */\n  tag_57\n    /* \"#utility.yul\":1276:1281   */\n  dup2\n    /* \"#utility.yul\":1249:1282   */\n  tag_36\n  jump\t// in\ntag_57:\n    /* \"#utility.yul\":1145:1288   */\n  swap3\n  swap2\n  pop\n  pop\n  jump\t// out\n    /* \"#utility.yul\":1294:1829   */\ntag_3:\n    /* \"#utility.yul\":1387:1393   */\n  0x00\n    /* \"#utility.yul\":1395:1401   */\n  dup1\n    /* \"#utility.yul\":1444:1446   */\n  0x40\n    /* \"#utility.yul\":1432:1441   */\n  dup4\n    /* \"#utility.yul\":1423:1430   */\n  dup6\n    /* \"#utility.yul\":1419:1442   */\n  sub\n    /* \"#utility.yul\":1415:1447   */\n  slt\n    /* \"#utility.yul\":1412:1531   */\n  iszero\n  tag_59\n  jumpi\n    /* \"#utility.yul\":1450:1529   */\n  tag_60\n  tag_29\n  jump\t// in\ntag_60:\n    /* \"#utility.yul\":1412:1531   */\ntag_59:\n    /* \"#utility.yul\":1570:1571   */\n  0x00\n    /* \"#utility.yul\":1595:1673   */\n  tag_61\n    /* \"#utility.yul\":1665:1672   */\n  dup6\n    /* \"#utility.yul\":1656:1662   */\n  dup3\n    /* \"#utility.yul\":1645:1654   */\n  dup7\n    /* \"#utility.yul\":1641:1663   */\n  add\n    /* \"#utility.yul\":1595:1673   */\n  tag_35\n  jump\t// in\ntag_61:\n    /* \"#utility.yul\":1585:1673   */\n  swap3\n  pop\n    /* \"#utility.yul\":1541:1683   */\n  pop\n    /* \"#utility.yul\":1722:1724   */\n  0x20\n    /* \"#utility.yul\":1748:1812   */\n  tag_62\n    /* \"#utility.yul\":1804:1811   */\n  dup6\n    /* \"#utility.yul\":1795:1801   */\n  dup3\n    /* \"#utility.yul\":1784:1793   */\n  dup7\n    /* \"#utility.yul\":1780:1802   */\n  add\n    /* \"#utility.yul\":1748:1812   */\n  tag_37\n  jump\t// in\ntag_62:\n    /* \"#utility.yul\":1738:1812   */\n  swap2\n  pop\n    /* \"#utility.yul\":1693:1822   */\n  pop\n    /* \"#utility.yul\":1294:1829   */\n  swap3\n  pop\n  swap3\n  swap1\n  pop\n  jump\t// out\n    /* \"#utility.yul\":1835:1953   */\ntag_38:\n    /* \"#utility.yul\":1922:1946   */\n  tag_64\n    /* \"#utility.yul\":1940:1945   */\n  dup2\n    /* \"#utility.yul\":1922:1946   */\n  tag_32\n  jump\t// in\ntag_64:\n    /* \"#utility.yul\":1917:1920   */\n  dup3\n    /* \"#utility.yul\":1910:1947   */\n  mstore\n    /* \"#utility.yul\":1835:1953   */\n  pop\n  pop\n  jump\t// out\n    /* \"#utility.yul\":1959:2181   */\ntag_9:\n    /* \"#utility.yul\":2052:2056   */\n  0x00\n    /* \"#utility.yul\":2090:2092   */\n  0x20\n    /* \"#utility.yul\":2079:2088   */\n  dup3\n    /* \"#utility.yul\":2075:2093   */\n  add\n    /* \"#utility.yul\":2067:2093   */\n  swap1\n  pop\n    /* \"#utility.yul\":2103:2174   */\n  tag_66\n    /* \"#utility.yul\":2171:2172   */\n  0x00\n    /* \"#utility.yul\":2160:2169   */\n  dup4\n    /* \"#utility.yul\":2156:2173   */\n  add\n    /* \"#utility.yul\":2147:2153   */\n  dup5\n    /* \"#utility.yul\":2103:2174   */\n  tag_38\n  jump\t// in\ntag_66:\n    /* \"#utility.yul\":1959:2181   */\n  swap3\n  swap2\n  pop\n  pop\n  jump\t// out\n    /* \"#utility.yul\":2187:2367   */\ntag_15:\n    /* \"#utility.yul\":2235:2312   */\n  0x4e487b7100000000000000000000000000000000000000000000000000000000\n    /* \"#utility.yul\":2232:2233   */\n  0x00\n    /* \"#utility.yul\":2225:2313   */\n  mstore\n    /* \"#utility.yul\":2332:2336   */\n  0x21\n    /* \"#utility.yul\":2329:2330   */\n  0x04\n    /* \"#utility.yul\":2322:2337   */\n  mstore\n    /* \"#utility.yul\":2356:2360   */\n  0x24\n    /* \"#utility.yul\":2353:2354   */\n  0x00\n    /* \"#utility.yul\":2346:2361   */\n  revert\n    /* \"contracts/VestingContract.sol\":234:3223  contract VestingContract is Ownable {... */\ntag_26:\n  dataSize(sub_0)\n  dup1\n  dataOffset(sub_0)\n  0x00\n  codecopy\n  0x00\n  return\nstop\n\nsub_0: assembly {\n        /* \"contracts/VestingContract.sol\":234:3223  contract VestingContract is Ownable {... */\n      mstore(0x40, 0x80)\n      callvalue\n      dup1\n      iszero\n      tag_1\n      jumpi\n      0x00\n      dup1\n      revert\n    tag_1:\n      pop\n      jumpi(tag_2, lt(calldatasize, 0x04))\n      shr(0xe0, calldataload(0x00))\n      dup1\n      0x715018a6\n      gt\n      tag_13\n      jumpi\n      dup1\n      0x715018a6\n      eq\n      tag_8\n      jumpi\n      dup1\n      0x8da5cb5b\n      eq\n      tag_9\n      jumpi\n      dup1\n      0xdeb36e32\n      eq\n      tag_10\n      jumpi\n      dup1\n      0xf2fde38b\n      eq\n      tag_11\n      jumpi\n      dup1\n      0xfc0c546a\n      eq\n      tag_12\n      jumpi\n      jump(tag_2)\n    tag_13:\n      dup1\n      0x1bcf8d63\n      eq\n      tag_3\n      jumpi\n      dup1\n      0x32f043ac\n      eq\n      tag_4\n      jumpi\n      dup1\n      0x4445358b\n      eq\n      tag_5\n      jumpi\n      dup1\n      0x5c160f66\n      eq\n      tag_6\n      jumpi\n      dup1\n      0x5f118704\n      eq\n      tag_7\n      jumpi\n    tag_2:\n      0x00\n      dup1\n      revert\n        /* \"contracts/VestingContract.sol\":562:638  mapping(address => mapping(Role => VestingSchedule)) public vestingSchedules */\n    tag_3:\n      tag_14\n      0x04\n      dup1\n      calldatasize\n      sub\n      dup2\n      add\n      swap1\n      tag_15\n      swap2\n      swap1\n      tag_16\n      jump\t// in\n    tag_15:\n      tag_17\n      jump\t// in\n    tag_14:\n      mload(0x40)\n      tag_18\n      swap6\n      swap5\n      swap4\n      swap3\n      swap2\n      swap1\n      tag_19\n      jump\t// in\n    tag_18:\n      mload(0x40)\n      dup1\n      swap2\n      sub\n      swap1\n      return\n        /* \"contracts/VestingContract.sol\":645:691  mapping(Role => uint256) public roleAllocation */\n    tag_4:\n      tag_20\n      0x04\n      dup1\n      calldatasize\n      sub\n      dup2\n      add\n      swap1\n      tag_21\n      swap2\n      swap1\n      tag_22\n      jump\t// in\n    tag_21:\n      tag_23\n      jump\t// in\n    tag_20:\n      mload(0x40)\n      tag_24\n      swap2\n      swap1\n      tag_25\n      jump\t// in\n    tag_24:\n      mload(0x40)\n      dup1\n      swap2\n      sub\n      swap1\n      return\n        /* \"contracts/VestingContract.sol\":2671:3220  function calculateVestedAmount(VestingSchedule memory schedule) public view returns (uint256) {... */\n    tag_5:\n      tag_26\n      0x04\n      dup1\n      calldatasize\n      sub\n      dup2\n      add\n      swap1\n      tag_27\n      swap2\n      swap1\n      tag_28\n      jump\t// in\n    tag_27:\n      tag_29\n      jump\t// in\n    tag_26:\n      mload(0x40)\n      tag_30\n      swap2\n      swap1\n      tag_25\n      jump\t// in\n    tag_30:\n      mload(0x40)\n      dup1\n      swap2\n      sub\n      swap1\n      return\n        /* \"contracts/VestingContract.sol\":1283:2073  function addBeneficiary(address beneficiary, Role role, uint256 totalAmount) external onlyOwner {... */\n    tag_6:\n      tag_31\n      0x04\n      dup1\n      calldatasize\n      sub\n      dup2\n      add\n      swap1\n      tag_32\n      swap2\n      swap1\n      tag_33\n      jump\t// in\n    tag_32:\n      tag_34\n      jump\t// in\n    tag_31:\n      stop\n        /* \"contracts/VestingContract.sol\":2081:2663  function claimTokens(Role role) external {... */\n    tag_7:\n      tag_35\n      0x04\n      dup1\n      calldatasize\n      sub\n      dup2\n      add\n      swap1\n      tag_36\n      swap2\n      swap1\n      tag_22\n      jump\t// in\n    tag_36:\n      tag_37\n      jump\t// in\n    tag_35:\n      stop\n        /* \"@openzeppelin/contracts/access/Ownable.sol\":2293:2394  function renounceOwnership() public virtual onlyOwner {... */\n    tag_8:\n      tag_38\n      tag_39\n      jump\t// in\n    tag_38:\n      stop\n        /* \"@openzeppelin/contracts/access/Ownable.sol\":1638:1723  function owner() public view virtual returns (address) {... */\n    tag_9:\n      tag_40\n      tag_41\n      jump\t// in\n    tag_40:\n      mload(0x40)\n      tag_42\n      swap2\n      swap1\n      tag_43\n      jump\t// in\n    tag_42:\n      mload(0x40)\n      dup1\n      swap2\n      sub\n      swap1\n      return\n        /* \"contracts/VestingContract.sol\":1177:1275  function startVesting() external onlyOwner {... */\n    tag_10:\n      tag_44\n      tag_45\n      jump\t// in\n    tag_44:\n      stop\n        /* \"@openzeppelin/contracts/access/Ownable.sol\":2543:2758  function transferOwnership(address newOwner) public virtual onlyOwner {... */\n    tag_11:\n      tag_46\n      0x04\n      dup1\n      calldatasize\n      sub\n      dup2\n      add\n      swap1\n      tag_47\n      swap2\n      swap1\n      tag_48\n      jump\t// in\n    tag_47:\n      tag_49\n      jump\t// in\n    tag_46:\n      stop\n        /* \"contracts/VestingContract.sol\":312:331  IERC20 public token */\n    tag_12:\n      tag_50\n      tag_51\n      jump\t// in\n    tag_50:\n      mload(0x40)\n      tag_52\n      swap2\n      swap1\n      tag_53\n      jump\t// in\n    tag_52:\n      mload(0x40)\n      dup1\n      swap2\n      sub\n      swap1\n      return\n        /* \"contracts/VestingContract.sol\":562:638  mapping(address => mapping(Role => VestingSchedule)) public vestingSchedules */\n    tag_17:\n      mstore(0x20, 0x02)\n      dup2\n      0x00\n      mstore\n      mstore(0x20, keccak256(0x00, 0x40))\n      dup1\n      0x00\n      mstore\n      keccak256(0x00, 0x40)\n      0x00\n      swap2\n      pop\n      swap2\n      pop\n      pop\n      dup1\n      0x00\n      add\n      sload\n      swap1\n      dup1\n      0x01\n      add\n      sload\n      swap1\n      dup1\n      0x02\n      add\n      sload\n      swap1\n      dup1\n      0x03\n      add\n      sload\n      swap1\n      dup1\n      0x04\n      add\n      sload\n      swap1\n      pop\n      dup6\n      jump\t// out\n        /* \"contracts/VestingContract.sol\":645:691  mapping(Role => uint256) public roleAllocation */\n    tag_23:\n      mstore(0x20, 0x03)\n      dup1\n      0x00\n      mstore\n      keccak256(0x00, 0x40)\n      0x00\n      swap2\n      pop\n      swap1\n      pop\n      sload\n      dup2\n      jump\t// out\n        /* \"contracts/VestingContract.sol\":2671:3220  function calculateVestedAmount(VestingSchedule memory schedule) public view returns (uint256) {... */\n    tag_29:\n        /* \"contracts/VestingContract.sol\":2756:2763  uint256 */\n      0x00\n        /* \"contracts/VestingContract.sol\":2798:2832  schedule.start.add(schedule.cliff) */\n      tag_55\n        /* \"contracts/VestingContract.sol\":2817:2825  schedule */\n      dup3\n        /* \"contracts/VestingContract.sol\":2817:2831  schedule.cliff */\n      0x00\n      add\n      mload\n        /* \"contracts/VestingContract.sol\":2798:2806  schedule */\n      dup4\n        /* \"contracts/VestingContract.sol\":2798:2812  schedule.start */\n      0x40\n      add\n      mload\n        /* \"contracts/VestingContract.sol\":2798:2816  schedule.start.add */\n      tag_56\n      swap1\n        /* \"contracts/VestingContract.sol\":2798:2832  schedule.start.add(schedule.cliff) */\n      swap2\n      swap1\n      0xffffffff\n      and\n      jump\t// in\n    tag_55:\n        /* \"contracts/VestingContract.sol\":2780:2795  block.timestamp */\n      timestamp\n        /* \"contracts/VestingContract.sol\":2780:2832  block.timestamp < schedule.start.add(schedule.cliff) */\n      lt\n        /* \"contracts/VestingContract.sol\":2776:3213  if (block.timestamp < schedule.start.add(schedule.cliff)) {... */\n      iszero\n      tag_57\n      jumpi\n        /* \"contracts/VestingContract.sol\":2856:2857  0 */\n      0x00\n        /* \"contracts/VestingContract.sol\":2849:2857  return 0 */\n      swap1\n      pop\n      jump(tag_54)\n        /* \"contracts/VestingContract.sol\":2776:3213  if (block.timestamp < schedule.start.add(schedule.cliff)) {... */\n    tag_57:\n        /* \"contracts/VestingContract.sol\":2898:2935  schedule.start.add(schedule.duration) */\n      tag_59\n        /* \"contracts/VestingContract.sol\":2917:2925  schedule */\n      dup3\n        /* \"contracts/VestingContract.sol\":2917:2934  schedule.duration */\n      0x20\n      add\n      mload\n        /* \"contracts/VestingContract.sol\":2898:2906  schedule */\n      dup4\n        /* \"contracts/VestingContract.sol\":2898:2912  schedule.start */\n      0x40\n      add\n      mload\n        /* \"contracts/VestingContract.sol\":2898:2916  schedule.start.add */\n      tag_56\n      swap1\n        /* \"contracts/VestingContract.sol\":2898:2935  schedule.start.add(schedule.duration) */\n      swap2\n      swap1\n      0xffffffff\n      and\n      jump\t// in\n    tag_59:\n        /* \"contracts/VestingContract.sol\":2879:2894  block.timestamp */\n      timestamp\n        /* \"contracts/VestingContract.sol\":2879:2935  block.timestamp >= schedule.start.add(schedule.duration) */\n      lt\n        /* \"contracts/VestingContract.sol\":2875:3213  if (block.timestamp >= schedule.start.add(schedule.duration)) {... */\n      tag_60\n      jumpi\n        /* \"contracts/VestingContract.sol\":2959:2967  schedule */\n      dup2\n        /* \"contracts/VestingContract.sol\":2959:2979  schedule.totalAmount */\n      0x60\n      add\n      mload\n        /* \"contracts/VestingContract.sol\":2952:2979  return schedule.totalAmount */\n      swap1\n      pop\n      jump(tag_54)\n        /* \"contracts/VestingContract.sol\":2875:3213  if (block.timestamp >= schedule.start.add(schedule.duration)) {... */\n    tag_60:\n        /* \"contracts/VestingContract.sol\":3012:3031  uint256 elapsedTime */\n      0x00\n        /* \"contracts/VestingContract.sol\":3034:3069  block.timestamp.sub(schedule.start) */\n      tag_62\n        /* \"contracts/VestingContract.sol\":3054:3062  schedule */\n      dup4\n        /* \"contracts/VestingContract.sol\":3054:3068  schedule.start */\n      0x40\n      add\n      mload\n        /* \"contracts/VestingContract.sol\":3034:3049  block.timestamp */\n      timestamp\n        /* \"contracts/VestingContract.sol\":3034:3053  block.timestamp.sub */\n      tag_63\n      swap1\n        /* \"contracts/VestingContract.sol\":3034:3069  block.timestamp.sub(schedule.start) */\n      swap2\n      swap1\n      0xffffffff\n      and\n      jump\t// in\n    tag_62:\n        /* \"contracts/VestingContract.sol\":3012:3069  uint256 elapsedTime = block.timestamp.sub(schedule.start) */\n      swap1\n      pop\n        /* \"contracts/VestingContract.sol\":3084:3104  uint256 vestedAmount */\n      0x00\n        /* \"contracts/VestingContract.sol\":3107:3167  schedule.totalAmount.mul(elapsedTime).div(schedule.duration) */\n      tag_64\n        /* \"contracts/VestingContract.sol\":3149:3157  schedule */\n      dup5\n        /* \"contracts/VestingContract.sol\":3149:3166  schedule.duration */\n      0x20\n      add\n      mload\n        /* \"contracts/VestingContract.sol\":3107:3144  schedule.totalAmount.mul(elapsedTime) */\n      tag_65\n        /* \"contracts/VestingContract.sol\":3132:3143  elapsedTime */\n      dup5\n        /* \"contracts/VestingContract.sol\":3107:3115  schedule */\n      dup8\n        /* \"contracts/VestingContract.sol\":3107:3127  schedule.totalAmount */\n      0x60\n      add\n      mload\n        /* \"contracts/VestingContract.sol\":3107:3131  schedule.totalAmount.mul */\n      tag_66\n      swap1\n        /* \"contracts/VestingContract.sol\":3107:3144  schedule.totalAmount.mul(elapsedTime) */\n      swap2\n      swap1\n      0xffffffff\n      and\n      jump\t// in\n    tag_65:\n        /* \"contracts/VestingContract.sol\":3107:3148  schedule.totalAmount.mul(elapsedTime).div */\n      tag_67\n      swap1\n        /* \"contracts/VestingContract.sol\":3107:3167  schedule.totalAmount.mul(elapsedTime).div(schedule.duration) */\n      swap2\n      swap1\n      0xffffffff\n      and\n      jump\t// in\n    tag_64:\n        /* \"contracts/VestingContract.sol\":3084:3167  uint256 vestedAmount = schedule.totalAmount.mul(elapsedTime).div(schedule.duration) */\n      swap1\n      pop\n        /* \"contracts/VestingContract.sol\":3189:3201  vestedAmount */\n      dup1\n        /* \"contracts/VestingContract.sol\":3182:3201  return vestedAmount */\n      swap3\n      pop\n      pop\n      pop\n        /* \"contracts/VestingContract.sol\":2671:3220  function calculateVestedAmount(VestingSchedule memory schedule) public view returns (uint256) {... */\n    tag_54:\n      swap2\n      swap1\n      pop\n      jump\t// out\n        /* \"contracts/VestingContract.sol\":1283:2073  function addBeneficiary(address beneficiary, Role role, uint256 totalAmount) external onlyOwner {... */\n    tag_34:\n        /* \"@openzeppelin/contracts/access/Ownable.sol\":1531:1544  _checkOwner() */\n      tag_69\n        /* \"@openzeppelin/contracts/access/Ownable.sol\":1531:1542  _checkOwner */\n      tag_70\n        /* \"@openzeppelin/contracts/access/Ownable.sol\":1531:1544  _checkOwner() */\n      jump\t// in\n    tag_69:\n        /* \"contracts/VestingContract.sol\":1449:1450  0 */\n      0x00\n        /* \"contracts/VestingContract.sol\":1398:1414  vestingSchedules */\n      0x02\n        /* \"contracts/VestingContract.sol\":1398:1427  vestingSchedules[beneficiary] */\n      0x00\n        /* \"contracts/VestingContract.sol\":1415:1426  beneficiary */\n      dup6\n        /* \"contracts/VestingContract.sol\":1398:1427  vestingSchedules[beneficiary] */\n      0xffffffffffffffffffffffffffffffffffffffff\n      and\n      0xffffffffffffffffffffffffffffffffffffffff\n      and\n      dup2\n      mstore\n      0x20\n      add\n      swap1\n      dup2\n      mstore\n      0x20\n      add\n      0x00\n      keccak256\n        /* \"contracts/VestingContract.sol\":1398:1433  vestingSchedules[beneficiary][role] */\n      0x00\n        /* \"contracts/VestingContract.sol\":1428:1432  role */\n      dup5\n        /* \"contracts/VestingContract.sol\":1398:1433  vestingSchedules[beneficiary][role] */\n      0x02\n      dup2\n      gt\n      iszero\n      tag_72\n      jumpi\n      tag_73\n      tag_74\n      jump\t// in\n    tag_73:\n    tag_72:\n      0x02\n      dup2\n      gt\n      iszero\n      tag_75\n      jumpi\n      tag_76\n      tag_74\n      jump\t// in\n    tag_76:\n    tag_75:\n      dup2\n      mstore\n      0x20\n      add\n      swap1\n      dup2\n      mstore\n      0x20\n      add\n      0x00\n      keccak256\n        /* \"contracts/VestingContract.sol\":1398:1445  vestingSchedules[beneficiary][role].totalAmount */\n      0x03\n      add\n      sload\n        /* \"contracts/VestingContract.sol\":1398:1450  vestingSchedules[beneficiary][role].totalAmount == 0 */\n      eq\n        /* \"contracts/VestingContract.sol\":1390:1494  require(vestingSchedules[beneficiary][role].totalAmount == 0, \"Beneficiary already added for this role\") */\n      tag_77\n      jumpi\n      mload(0x40)\n      0x08c379a000000000000000000000000000000000000000000000000000000000\n      dup2\n      mstore\n      0x04\n      add\n      tag_78\n      swap1\n      tag_79\n      jump\t// in\n    tag_78:\n      mload(0x40)\n      dup1\n      swap2\n      sub\n      swap1\n      revert\n    tag_77:\n        /* \"contracts/VestingContract.sol\":1505:1518  uint256 cliff */\n      0x00\n        /* \"contracts/VestingContract.sol\":1530:1539  Role.User */\n      dup1\n        /* \"contracts/VestingContract.sol\":1522:1539  role == Role.User */\n      0x02\n      dup2\n      gt\n      iszero\n      tag_80\n      jumpi\n      tag_81\n      tag_74\n      jump\t// in\n    tag_81:\n    tag_80:\n        /* \"contracts/VestingContract.sol\":1522:1526  role */\n      dup4\n        /* \"contracts/VestingContract.sol\":1522:1539  role == Role.User */\n      0x02\n      dup2\n      gt\n      iszero\n      tag_82\n      jumpi\n      tag_83\n      tag_74\n      jump\t// in\n    tag_83:\n    tag_82:\n      eq\n        /* \"contracts/VestingContract.sol\":1521:1589  (role == Role.User) ? 10 * 30 * 24 * 60 * 60 : 2 * 30 * 24 * 60 * 60 */\n      tag_84\n      jumpi\n        /* \"contracts/VestingContract.sol\":1568:1589  2 * 30 * 24 * 60 * 60 */\n      0x4f1a00\n        /* \"contracts/VestingContract.sol\":1521:1589  (role == Role.User) ? 10 * 30 * 24 * 60 * 60 : 2 * 30 * 24 * 60 * 60 */\n      jump(tag_85)\n    tag_84:\n        /* \"contracts/VestingContract.sol\":1543:1565  10 * 30 * 24 * 60 * 60 */\n      0x018b8200\n        /* \"contracts/VestingContract.sol\":1521:1589  (role == Role.User) ? 10 * 30 * 24 * 60 * 60 : 2 * 30 * 24 * 60 * 60 */\n    tag_85:\n        /* \"contracts/VestingContract.sol\":1505:1589  uint256 cliff = (role == Role.User) ? 10 * 30 * 24 * 60 * 60 : 2 * 30 * 24 * 60 * 60 */\n      0xffffffff\n      and\n      swap1\n      pop\n        /* \"contracts/VestingContract.sol\":1636:1652  uint256 duration */\n      0x00\n        /* \"contracts/VestingContract.sol\":1664:1673  Role.User */\n      dup1\n        /* \"contracts/VestingContract.sol\":1656:1673  role == Role.User */\n      0x02\n      dup2\n      gt\n      iszero\n      tag_86\n      jumpi\n      tag_87\n      tag_74\n      jump\t// in\n    tag_87:\n    tag_86:\n        /* \"contracts/VestingContract.sol\":1656:1660  role */\n      dup5\n        /* \"contracts/VestingContract.sol\":1656:1673  role == Role.User */\n      0x02\n      dup2\n      gt\n      iszero\n      tag_88\n      jumpi\n      tag_89\n      tag_74\n      jump\t// in\n    tag_89:\n    tag_88:\n      eq\n        /* \"contracts/VestingContract.sol\":1655:1720  (role == Role.User) ? 2 * 365 * 24 * 60 * 60 : 365 * 24 * 60 * 60 */\n      tag_90\n      jumpi\n        /* \"contracts/VestingContract.sol\":1702:1720  365 * 24 * 60 * 60 */\n      0x01e13380\n        /* \"contracts/VestingContract.sol\":1655:1720  (role == Role.User) ? 2 * 365 * 24 * 60 * 60 : 365 * 24 * 60 * 60 */\n      jump(tag_91)\n    tag_90:\n        /* \"contracts/VestingContract.sol\":1677:1699  2 * 365 * 24 * 60 * 60 */\n      0x03c26700\n        /* \"contracts/VestingContract.sol\":1655:1720  (role == Role.User) ? 2 * 365 * 24 * 60 * 60 : 365 * 24 * 60 * 60 */\n    tag_91:\n        /* \"contracts/VestingContract.sol\":1636:1720  uint256 duration = (role == Role.User) ? 2 * 365 * 24 * 60 * 60 : 365 * 24 * 60 * 60 */\n      0xffffffff\n      and\n      swap1\n      pop\n        /* \"contracts/VestingContract.sol\":1803:1999  VestingSchedule({... */\n      mload(0x40)\n      dup1\n      0xa0\n      add\n      0x40\n      mstore\n      dup1\n        /* \"contracts/VestingContract.sol\":1841:1846  cliff */\n      dup4\n        /* \"contracts/VestingContract.sol\":1803:1999  VestingSchedule({... */\n      dup2\n      mstore\n      0x20\n      add\n        /* \"contracts/VestingContract.sol\":1871:1879  duration */\n      dup3\n        /* \"contracts/VestingContract.sol\":1803:1999  VestingSchedule({... */\n      dup2\n      mstore\n      0x20\n      add\n        /* \"contracts/VestingContract.sol\":1901:1916  block.timestamp */\n      timestamp\n        /* \"contracts/VestingContract.sol\":1803:1999  VestingSchedule({... */\n      dup2\n      mstore\n      0x20\n      add\n        /* \"contracts/VestingContract.sol\":1944:1955  totalAmount */\n      dup5\n        /* \"contracts/VestingContract.sol\":1803:1999  VestingSchedule({... */\n      dup2\n      mstore\n      0x20\n      add\n        /* \"contracts/VestingContract.sol\":1986:1987  0 */\n      0x00\n        /* \"contracts/VestingContract.sol\":1803:1999  VestingSchedule({... */\n      dup2\n      mstore\n      pop\n        /* \"contracts/VestingContract.sol\":1765:1781  vestingSchedules */\n      0x02\n        /* \"contracts/VestingContract.sol\":1765:1794  vestingSchedules[beneficiary] */\n      0x00\n        /* \"contracts/VestingContract.sol\":1782:1793  beneficiary */\n      dup8\n        /* \"contracts/VestingContract.sol\":1765:1794  vestingSchedules[beneficiary] */\n      0xffffffffffffffffffffffffffffffffffffffff\n      and\n      0xffffffffffffffffffffffffffffffffffffffff\n      and\n      dup2\n      mstore\n      0x20\n      add\n      swap1\n      dup2\n      mstore\n      0x20\n      add\n      0x00\n      keccak256\n        /* \"contracts/VestingContract.sol\":1765:1800  vestingSchedules[beneficiary][role] */\n      0x00\n        /* \"contracts/VestingContract.sol\":1795:1799  role */\n      dup7\n        /* \"contracts/VestingContract.sol\":1765:1800  vestingSchedules[beneficiary][role] */\n      0x02\n      dup2\n      gt\n      iszero\n      tag_92\n      jumpi\n      tag_93\n      tag_74\n      jump\t// in\n    tag_93:\n    tag_92:\n      0x02\n      dup2\n      gt\n      iszero\n      tag_94\n      jumpi\n      tag_95\n      tag_74\n      jump\t// in\n    tag_95:\n    tag_94:\n      dup2\n      mstore\n      0x20\n      add\n      swap1\n      dup2\n      mstore\n      0x20\n      add\n      0x00\n      keccak256\n        /* \"contracts/VestingContract.sol\":1765:1999  vestingSchedules[beneficiary][role] = VestingSchedule({... */\n      0x00\n      dup3\n      add\n      mload\n      dup2\n      0x00\n      add\n      sstore\n      0x20\n      dup3\n      add\n      mload\n      dup2\n      0x01\n      add\n      sstore\n      0x40\n      dup3\n      add\n      mload\n      dup2\n      0x02\n      add\n      sstore\n      0x60\n      dup3\n      add\n      mload\n      dup2\n      0x03\n      add\n      sstore\n      0x80\n      dup3\n      add\n      mload\n      dup2\n      0x04\n      add\n      sstore\n      swap1\n      pop\n      pop\n        /* \"contracts/VestingContract.sol\":2017:2065  BeneficiaryAdded(beneficiary, role, totalAmount) */\n      0xc8f4be38ce4ee78fa6b536837e37b8af78b810208aad8ccc7b0331f46a3cda22\n        /* \"contracts/VestingContract.sol\":2034:2045  beneficiary */\n      dup6\n        /* \"contracts/VestingContract.sol\":2047:2051  role */\n      dup6\n        /* \"contracts/VestingContract.sol\":2053:2064  totalAmount */\n      dup6\n        /* \"contracts/VestingContract.sol\":2017:2065  BeneficiaryAdded(beneficiary, role, totalAmount) */\n      mload(0x40)\n      tag_96\n      swap4\n      swap3\n      swap2\n      swap1\n      tag_97\n      jump\t// in\n    tag_96:\n      mload(0x40)\n      dup1\n      swap2\n      sub\n      swap1\n      log1\n        /* \"contracts/VestingContract.sol\":1379:2073  {... */\n      pop\n      pop\n        /* \"contracts/VestingContract.sol\":1283:2073  function addBeneficiary(address beneficiary, Role role, uint256 totalAmount) external onlyOwner {... */\n      pop\n      pop\n      pop\n      jump\t// out\n        /* \"contracts/VestingContract.sol\":2081:2663  function claimTokens(Role role) external {... */\n    tag_37:\n        /* \"contracts/VestingContract.sol\":2133:2165  VestingSchedule storage schedule */\n      0x00\n        /* \"contracts/VestingContract.sol\":2168:2184  vestingSchedules */\n      0x02\n        /* \"contracts/VestingContract.sol\":2168:2196  vestingSchedules[msg.sender] */\n      0x00\n        /* \"contracts/VestingContract.sol\":2185:2195  msg.sender */\n      caller\n        /* \"contracts/VestingContract.sol\":2168:2196  vestingSchedules[msg.sender] */\n      0xffffffffffffffffffffffffffffffffffffffff\n      and\n      0xffffffffffffffffffffffffffffffffffffffff\n      and\n      dup2\n      mstore\n      0x20\n      add\n      swap1\n      dup2\n      mstore\n      0x20\n      add\n      0x00\n      keccak256\n        /* \"contracts/VestingContract.sol\":2168:2202  vestingSchedules[msg.sender][role] */\n      0x00\n        /* \"contracts/VestingContract.sol\":2197:2201  role */\n      dup4\n        /* \"contracts/VestingContract.sol\":2168:2202  vestingSchedules[msg.sender][role] */\n      0x02\n      dup2\n      gt\n      iszero\n      tag_99\n      jumpi\n      tag_100\n      tag_74\n      jump\t// in\n    tag_100:\n    tag_99:\n      0x02\n      dup2\n      gt\n      iszero\n      tag_101\n      jumpi\n      tag_102\n      tag_74\n      jump\t// in\n    tag_102:\n    tag_101:\n      dup2\n      mstore\n      0x20\n      add\n      swap1\n      dup2\n      mstore\n      0x20\n      add\n      0x00\n      keccak256\n        /* \"contracts/VestingContract.sol\":2133:2202  VestingSchedule storage schedule = vestingSchedules[msg.sender][role] */\n      swap1\n      pop\n        /* \"contracts/VestingContract.sol\":2244:2245  0 */\n      0x00\n        /* \"contracts/VestingContract.sol\":2221:2229  schedule */\n      dup2\n        /* \"contracts/VestingContract.sol\":2221:2241  schedule.totalAmount */\n      0x03\n      add\n      sload\n        /* \"contracts/VestingContract.sol\":2221:2245  schedule.totalAmount > 0 */\n      gt\n        /* \"contracts/VestingContract.sol\":2213:2283  require(schedule.totalAmount > 0, \"No vesting schedule for this role\") */\n      tag_103\n      jumpi\n      mload(0x40)\n      0x08c379a000000000000000000000000000000000000000000000000000000000\n      dup2\n      mstore\n      0x04\n      add\n      tag_104\n      swap1\n      tag_105\n      jump\t// in\n    tag_104:\n      mload(0x40)\n      dup1\n      swap2\n      sub\n      swap1\n      revert\n    tag_103:\n        /* \"contracts/VestingContract.sol\":2296:2310  uint256 vested */\n      0x00\n        /* \"contracts/VestingContract.sol\":2313:2344  calculateVestedAmount(schedule) */\n      tag_106\n        /* \"contracts/VestingContract.sol\":2335:2343  schedule */\n      dup3\n        /* \"contracts/VestingContract.sol\":2313:2344  calculateVestedAmount(schedule) */\n      mload(0x40)\n      dup1\n      0xa0\n      add\n      0x40\n      mstore\n      swap1\n      dup2\n      0x00\n      dup3\n      add\n      sload\n      dup2\n      mstore\n      0x20\n      add\n      0x01\n      dup3\n      add\n      sload\n      dup2\n      mstore\n      0x20\n      add\n      0x02\n      dup3\n      add\n      sload\n      dup2\n      mstore\n      0x20\n      add\n      0x03\n      dup3\n      add\n      sload\n      dup2\n      mstore\n      0x20\n      add\n      0x04\n      dup3\n      add\n      sload\n      dup2\n      mstore\n      pop\n      pop\n        /* \"contracts/VestingContract.sol\":2313:2334  calculateVestedAmount */\n      tag_29\n        /* \"contracts/VestingContract.sol\":2313:2344  calculateVestedAmount(schedule) */\n      jump\t// in\n    tag_106:\n        /* \"contracts/VestingContract.sol\":2296:2344  uint256 vested = calculateVestedAmount(schedule) */\n      swap1\n      pop\n        /* \"contracts/VestingContract.sol\":2355:2373  uint256 unreleased */\n      0x00\n        /* \"contracts/VestingContract.sol\":2376:2411  vested.sub(schedule.releasedAmount) */\n      tag_107\n        /* \"contracts/VestingContract.sol\":2387:2395  schedule */\n      dup4\n        /* \"contracts/VestingContract.sol\":2387:2410  schedule.releasedAmount */\n      0x04\n      add\n      sload\n        /* \"contracts/VestingContract.sol\":2376:2382  vested */\n      dup4\n        /* \"contracts/VestingContract.sol\":2376:2386  vested.sub */\n      tag_63\n      swap1\n        /* \"contracts/VestingContract.sol\":2376:2411  vested.sub(schedule.releasedAmount) */\n      swap2\n      swap1\n      0xffffffff\n      and\n      jump\t// in\n    tag_107:\n        /* \"contracts/VestingContract.sol\":2355:2411  uint256 unreleased = vested.sub(schedule.releasedAmount) */\n      swap1\n      pop\n        /* \"contracts/VestingContract.sol\":2445:2446  0 */\n      0x00\n        /* \"contracts/VestingContract.sol\":2432:2442  unreleased */\n      dup2\n        /* \"contracts/VestingContract.sol\":2432:2446  unreleased > 0 */\n      gt\n        /* \"contracts/VestingContract.sol\":2424:2471  require(unreleased > 0, \"No tokens to release\") */\n      tag_108\n      jumpi\n      mload(0x40)\n      0x08c379a000000000000000000000000000000000000000000000000000000000\n      dup2\n      mstore\n      0x04\n      add\n      tag_109\n      swap1\n      tag_110\n      jump\t// in\n    tag_109:\n      mload(0x40)\n      dup1\n      swap2\n      sub\n      swap1\n      revert\n    tag_108:\n        /* \"contracts/VestingContract.sol\":2510:2549  schedule.releasedAmount.add(unreleased) */\n      tag_111\n        /* \"contracts/VestingContract.sol\":2538:2548  unreleased */\n      dup2\n        /* \"contracts/VestingContract.sol\":2510:2518  schedule */\n      dup5\n        /* \"contracts/VestingContract.sol\":2510:2533  schedule.releasedAmount */\n      0x04\n      add\n      sload\n        /* \"contracts/VestingContract.sol\":2510:2537  schedule.releasedAmount.add */\n      tag_56\n      swap1\n        /* \"contracts/VestingContract.sol\":2510:2549  schedule.releasedAmount.add(unreleased) */\n      swap2\n      swap1\n      0xffffffff\n      and\n      jump\t// in\n    tag_111:\n        /* \"contracts/VestingContract.sol\":2484:2492  schedule */\n      dup4\n        /* \"contracts/VestingContract.sol\":2484:2507  schedule.releasedAmount */\n      0x04\n      add\n        /* \"contracts/VestingContract.sol\":2484:2549  schedule.releasedAmount = schedule.releasedAmount.add(unreleased) */\n      dup2\n      swap1\n      sstore\n      pop\n        /* \"contracts/VestingContract.sol\":2560:2565  token */\n      0x01\n      0x00\n      swap1\n      sload\n      swap1\n      0x0100\n      exp\n      swap1\n      div\n      0xffffffffffffffffffffffffffffffffffffffff\n      and\n        /* \"contracts/VestingContract.sol\":2560:2574  token.transfer */\n      0xffffffffffffffffffffffffffffffffffffffff\n      and\n      0xa9059cbb\n        /* \"contracts/VestingContract.sol\":2575:2585  msg.sender */\n      caller\n        /* \"contracts/VestingContract.sol\":2587:2597  unreleased */\n      dup4\n        /* \"contracts/VestingContract.sol\":2560:2598  token.transfer(msg.sender, unreleased) */\n      mload(0x40)\n      dup4\n      0xffffffff\n      and\n      0xe0\n      shl\n      dup2\n      mstore\n      0x04\n      add\n      tag_112\n      swap3\n      swap2\n      swap1\n      tag_113\n      jump\t// in\n    tag_112:\n      0x20\n      mload(0x40)\n      dup1\n      dup4\n      sub\n      dup2\n      0x00\n      dup8\n      gas\n      call\n      iszero\n      dup1\n      iszero\n      tag_115\n      jumpi\n      returndatasize\n      0x00\n      dup1\n      returndatacopy\n      revert(0x00, returndatasize)\n    tag_115:\n      pop\n      pop\n      pop\n      pop\n      mload(0x40)\n      returndatasize\n      not(0x1f)\n      0x1f\n      dup3\n      add\n      and\n      dup3\n      add\n      dup1\n      0x40\n      mstore\n      pop\n      dup2\n      add\n      swap1\n      tag_116\n      swap2\n      swap1\n      tag_117\n      jump\t// in\n    tag_116:\n      pop\n        /* \"contracts/VestingContract.sol\":2616:2655  TokensWithdrawn(msg.sender, unreleased) */\n      0x6352c5382c4a4578e712449ca65e83cdb392d045dfcf1cad9615189db2da244b\n        /* \"contracts/VestingContract.sol\":2632:2642  msg.sender */\n      caller\n        /* \"contracts/VestingContract.sol\":2644:2654  unreleased */\n      dup3\n        /* \"contracts/VestingContract.sol\":2616:2655  TokensWithdrawn(msg.sender, unreleased) */\n      mload(0x40)\n      tag_118\n      swap3\n      swap2\n      swap1\n      tag_113\n      jump\t// in\n    tag_118:\n      mload(0x40)\n      dup1\n      swap2\n      sub\n      swap1\n      log1\n        /* \"contracts/VestingContract.sol\":2122:2663  {... */\n      pop\n      pop\n      pop\n        /* \"contracts/VestingContract.sol\":2081:2663  function claimTokens(Role role) external {... */\n      pop\n      jump\t// out\n        /* \"@openzeppelin/contracts/access/Ownable.sol\":2293:2394  function renounceOwnership() public virtual onlyOwner {... */\n    tag_39:\n        /* \"@openzeppelin/contracts/access/Ownable.sol\":1531:1544  _checkOwner() */\n      tag_120\n        /* \"@openzeppelin/contracts/access/Ownable.sol\":1531:1542  _checkOwner */\n      tag_70\n        /* \"@openzeppelin/contracts/access/Ownable.sol\":1531:1544  _checkOwner() */\n      jump\t// in\n    tag_120:\n        /* \"@openzeppelin/contracts/access/Ownable.sol\":2357:2387  _transferOwnership(address(0)) */\n      tag_122\n        /* \"@openzeppelin/contracts/access/Ownable.sol\":2384:2385  0 */\n      0x00\n        /* \"@openzeppelin/contracts/access/Ownable.sol\":2357:2375  _transferOwnership */\n      tag_123\n        /* \"@openzeppelin/contracts/access/Ownable.sol\":2357:2387  _transferOwnership(address(0)) */\n      jump\t// in\n    tag_122:\n        /* \"@openzeppelin/contracts/access/Ownable.sol\":2293:2394  function renounceOwnership() public virtual onlyOwner {... */\n      jump\t// out\n        /* \"@openzeppelin/contracts/access/Ownable.sol\":1638:1723  function owner() public view virtual returns (address) {... */\n    tag_41:\n        /* \"@openzeppelin/contracts/access/Ownable.sol\":1684:1691  address */\n      0x00\n        /* \"@openzeppelin/contracts/access/Ownable.sol\":1710:1716  _owner */\n      dup1\n      0x00\n      swap1\n      sload\n      swap1\n      0x0100\n      exp\n      swap1\n      div\n      0xffffffffffffffffffffffffffffffffffffffff\n      and\n        /* \"@openzeppelin/contracts/access/Ownable.sol\":1703:1716  return _owner */\n      swap1\n      pop\n        /* \"@openzeppelin/contracts/access/Ownable.sol\":1638:1723  function owner() public view virtual returns (address) {... */\n      swap1\n      jump\t// out\n        /* \"contracts/VestingContract.sol\":1177:1275  function startVesting() external onlyOwner {... */\n    tag_45:\n        /* \"@openzeppelin/contracts/access/Ownable.sol\":1531:1544  _checkOwner() */\n      tag_126\n        /* \"@openzeppelin/contracts/access/Ownable.sol\":1531:1542  _checkOwner */\n      tag_70\n        /* \"@openzeppelin/contracts/access/Ownable.sol\":1531:1544  _checkOwner() */\n      jump\t// in\n    tag_126:\n        /* \"contracts/VestingContract.sol\":1236:1267  VestingStarted(block.timestamp) */\n      0x3930f04857ba592ba0a6a96942f8350c2415c0a4aa849021aeefee98bb55b122\n        /* \"contracts/VestingContract.sol\":1251:1266  block.timestamp */\n      timestamp\n        /* \"contracts/VestingContract.sol\":1236:1267  VestingStarted(block.timestamp) */\n      mload(0x40)\n      tag_128\n      swap2\n      swap1\n      tag_25\n      jump\t// in\n    tag_128:\n      mload(0x40)\n      dup1\n      swap2\n      sub\n      swap1\n      log1\n        /* \"contracts/VestingContract.sol\":1177:1275  function startVesting() external onlyOwner {... */\n      jump\t// out\n        /* \"@openzeppelin/contracts/access/Ownable.sol\":2543:2758  function transferOwnership(address newOwner) public virtual onlyOwner {... */\n    tag_49:\n        /* \"@openzeppelin/contracts/access/Ownable.sol\":1531:1544  _checkOwner() */\n      tag_130\n        /* \"@openzeppelin/contracts/access/Ownable.sol\":1531:1542  _checkOwner */\n      tag_70\n        /* \"@openzeppelin/contracts/access/Ownable.sol\":1531:1544  _checkOwner() */\n      jump\t// in\n    tag_130:\n        /* \"@openzeppelin/contracts/access/Ownable.sol\":2647:2648  0 */\n      0x00\n        /* \"@openzeppelin/contracts/access/Ownable.sol\":2627:2649  newOwner == address(0) */\n      0xffffffffffffffffffffffffffffffffffffffff\n      and\n        /* \"@openzeppelin/contracts/access/Ownable.sol\":2627:2635  newOwner */\n      dup2\n        /* \"@openzeppelin/contracts/access/Ownable.sol\":2627:2649  newOwner == address(0) */\n      0xffffffffffffffffffffffffffffffffffffffff\n      and\n      sub\n        /* \"@openzeppelin/contracts/access/Ownable.sol\":2623:2714  if (newOwner == address(0)) {... */\n      tag_132\n      jumpi\n        /* \"@openzeppelin/contracts/access/Ownable.sol\":2700:2701  0 */\n      0x00\n        /* \"@openzeppelin/contracts/access/Ownable.sol\":2672:2703  OwnableInvalidOwner(address(0)) */\n      mload(0x40)\n      0x1e4fbdf700000000000000000000000000000000000000000000000000000000\n      dup2\n      mstore\n      0x04\n      add\n      tag_133\n      swap2\n      swap1\n      tag_43\n      jump\t// in\n    tag_133:\n      mload(0x40)\n      dup1\n      swap2\n      sub\n      swap1\n      revert\n        /* \"@openzeppelin/contracts/access/Ownable.sol\":2623:2714  if (newOwner == address(0)) {... */\n    tag_132:\n        /* \"@openzeppelin/contracts/access/Ownable.sol\":2723:2751  _transferOwnership(newOwner) */\n      tag_134\n        /* \"@openzeppelin/contracts/access/Ownable.sol\":2742:2750  newOwner */\n      dup2\n        /* \"@openzeppelin/contracts/access/Ownable.sol\":2723:2741  _transferOwnership */\n      tag_123\n        /* \"@openzeppelin/contracts/access/Ownable.sol\":2723:2751  _transferOwnership(newOwner) */\n      jump\t// in\n    tag_134:\n        /* \"@openzeppelin/contracts/access/Ownable.sol\":2543:2758  function transferOwnership(address newOwner) public virtual onlyOwner {... */\n      pop\n      jump\t// out\n        /* \"contracts/VestingContract.sol\":312:331  IERC20 public token */\n    tag_51:\n      0x01\n      0x00\n      swap1\n      sload\n      swap1\n      0x0100\n      exp\n      swap1\n      div\n      0xffffffffffffffffffffffffffffffffffffffff\n      and\n      dup2\n      jump\t// out\n        /* \"@openzeppelin/contracts/utils/math/SafeMath.sol\":2755:2851  function add(uint256 a, uint256 b) internal pure returns (uint256) {... */\n    tag_56:\n        /* \"@openzeppelin/contracts/utils/math/SafeMath.sol\":2813:2820  uint256 */\n      0x00\n        /* \"@openzeppelin/contracts/utils/math/SafeMath.sol\":2843:2844  b */\n      dup2\n        /* \"@openzeppelin/contracts/utils/math/SafeMath.sol\":2839:2840  a */\n      dup4\n        /* \"@openzeppelin/contracts/utils/math/SafeMath.sol\":2839:2844  a + b */\n      tag_136\n      swap2\n      swap1\n      tag_137\n      jump\t// in\n    tag_136:\n        /* \"@openzeppelin/contracts/utils/math/SafeMath.sol\":2832:2844  return a + b */\n      swap1\n      pop\n        /* \"@openzeppelin/contracts/utils/math/SafeMath.sol\":2755:2851  function add(uint256 a, uint256 b) internal pure returns (uint256) {... */\n      swap3\n      swap2\n      pop\n      pop\n      jump\t// out\n        /* \"@openzeppelin/contracts/utils/math/SafeMath.sol\":3122:3218  function sub(uint256 a, uint256 b) internal pure returns (uint256) {... */\n    tag_63:\n        /* \"@openzeppelin/contracts/utils/math/SafeMath.sol\":3180:3187  uint256 */\n      0x00\n        /* \"@openzeppelin/contracts/utils/math/SafeMath.sol\":3210:3211  b */\n      dup2\n        /* \"@openzeppelin/contracts/utils/math/SafeMath.sol\":3206:3207  a */\n      dup4\n        /* \"@openzeppelin/contracts/utils/math/SafeMath.sol\":3206:3211  a - b */\n      tag_139\n      swap2\n      swap1\n      tag_140\n      jump\t// in\n    tag_139:\n        /* \"@openzeppelin/contracts/utils/math/SafeMath.sol\":3199:3211  return a - b */\n      swap1\n      pop\n        /* \"@openzeppelin/contracts/utils/math/SafeMath.sol\":3122:3218  function sub(uint256 a, uint256 b) internal pure returns (uint256) {... */\n      swap3\n      swap2\n      pop\n      pop\n      jump\t// out\n        /* \"@openzeppelin/contracts/utils/math/SafeMath.sol\":3465:3561  function mul(uint256 a, uint256 b) internal pure returns (uint256) {... */\n    tag_66:\n        /* \"@openzeppelin/contracts/utils/math/SafeMath.sol\":3523:3530  uint256 */\n      0x00\n        /* \"@openzeppelin/contracts/utils/math/SafeMath.sol\":3553:3554  b */\n      dup2\n        /* \"@openzeppelin/contracts/utils/math/SafeMath.sol\":3549:3550  a */\n      dup4\n        /* \"@openzeppelin/contracts/utils/math/SafeMath.sol\":3549:3554  a * b */\n      tag_142\n      swap2\n      swap1\n      tag_143\n      jump\t// in\n    tag_142:\n        /* \"@openzeppelin/contracts/utils/math/SafeMath.sol\":3542:3554  return a * b */\n      swap1\n      pop\n        /* \"@openzeppelin/contracts/utils/math/SafeMath.sol\":3465:3561  function mul(uint256 a, uint256 b) internal pure returns (uint256) {... */\n      swap3\n      swap2\n      pop\n      pop\n      jump\t// out\n        /* \"@openzeppelin/contracts/utils/math/SafeMath.sol\":3850:3946  function div(uint256 a, uint256 b) internal pure returns (uint256) {... */\n    tag_67:\n        /* \"@openzeppelin/contracts/utils/math/SafeMath.sol\":3908:3915  uint256 */\n      0x00\n        /* \"@openzeppelin/contracts/utils/math/SafeMath.sol\":3938:3939  b */\n      dup2\n        /* \"@openzeppelin/contracts/utils/math/SafeMath.sol\":3934:3935  a */\n      dup4\n        /* \"@openzeppelin/contracts/utils/math/SafeMath.sol\":3934:3939  a / b */\n      tag_145\n      swap2\n      swap1\n      tag_146\n      jump\t// in\n    tag_145:\n        /* \"@openzeppelin/contracts/utils/math/SafeMath.sol\":3927:3939  return a / b */\n      swap1\n      pop\n        /* \"@openzeppelin/contracts/utils/math/SafeMath.sol\":3850:3946  function div(uint256 a, uint256 b) internal pure returns (uint256) {... */\n      swap3\n      swap2\n      pop\n      pop\n      jump\t// out\n        /* \"@openzeppelin/contracts/access/Ownable.sol\":1796:1958  function _checkOwner() internal view virtual {... */\n    tag_70:\n        /* \"@openzeppelin/contracts/access/Ownable.sol\":1866:1878  _msgSender() */\n      tag_148\n        /* \"@openzeppelin/contracts/access/Ownable.sol\":1866:1876  _msgSender */\n      tag_149\n        /* \"@openzeppelin/contracts/access/Ownable.sol\":1866:1878  _msgSender() */\n      jump\t// in\n    tag_148:\n        /* \"@openzeppelin/contracts/access/Ownable.sol\":1855:1878  owner() != _msgSender() */\n      0xffffffffffffffffffffffffffffffffffffffff\n      and\n        /* \"@openzeppelin/contracts/access/Ownable.sol\":1855:1862  owner() */\n      tag_150\n        /* \"@openzeppelin/contracts/access/Ownable.sol\":1855:1860  owner */\n      tag_41\n        /* \"@openzeppelin/contracts/access/Ownable.sol\":1855:1862  owner() */\n      jump\t// in\n    tag_150:\n        /* \"@openzeppelin/contracts/access/Ownable.sol\":1855:1878  owner() != _msgSender() */\n      0xffffffffffffffffffffffffffffffffffffffff\n      and\n      eq\n        /* \"@openzeppelin/contracts/access/Ownable.sol\":1851:1952  if (owner() != _msgSender()) {... */\n      tag_151\n      jumpi\n        /* \"@openzeppelin/contracts/access/Ownable.sol\":1928:1940  _msgSender() */\n      tag_152\n        /* \"@openzeppelin/contracts/access/Ownable.sol\":1928:1938  _msgSender */\n      tag_149\n        /* \"@openzeppelin/contracts/access/Ownable.sol\":1928:1940  _msgSender() */\n      jump\t// in\n    tag_152:\n        /* \"@openzeppelin/contracts/access/Ownable.sol\":1901:1941  OwnableUnauthorizedAccount(_msgSender()) */\n      mload(0x40)\n      0x118cdaa700000000000000000000000000000000000000000000000000000000\n      dup2\n      mstore\n      0x04\n      add\n      tag_153\n      swap2\n      swap1\n      tag_43\n      jump\t// in\n    tag_153:\n      mload(0x40)\n      dup1\n      swap2\n      sub\n      swap1\n      revert\n        /* \"@openzeppelin/contracts/access/Ownable.sol\":1851:1952  if (owner() != _msgSender()) {... */\n    tag_151:\n        /* \"@openzeppelin/contracts/access/Ownable.sol\":1796:1958  function _checkOwner() internal view virtual {... */\n      jump\t// out\n        /* \"@openzeppelin/contracts/access/Ownable.sol\":2912:3099  function _transferOwnership(address newOwner) internal virtual {... */\n    tag_123:\n        /* \"@openzeppelin/contracts/access/Ownable.sol\":2985:3001  address oldOwner */\n      0x00\n        /* \"@openzeppelin/contracts/access/Ownable.sol\":3004:3010  _owner */\n      dup1\n      0x00\n      swap1\n      sload\n      swap1\n      0x0100\n      exp\n      swap1\n      div\n      0xffffffffffffffffffffffffffffffffffffffff\n      and\n        /* \"@openzeppelin/contracts/access/Ownable.sol\":2985:3010  address oldOwner = _owner */\n      swap1\n      pop\n        /* \"@openzeppelin/contracts/access/Ownable.sol\":3029:3037  newOwner */\n      dup2\n        /* \"@openzeppelin/contracts/access/Ownable.sol\":3020:3026  _owner */\n      0x00\n      dup1\n        /* \"@openzeppelin/contracts/access/Ownable.sol\":3020:3037  _owner = newOwner */\n      0x0100\n      exp\n      dup2\n      sload\n      dup2\n      0xffffffffffffffffffffffffffffffffffffffff\n      mul\n      not\n      and\n      swap1\n      dup4\n      0xffffffffffffffffffffffffffffffffffffffff\n      and\n      mul\n      or\n      swap1\n      sstore\n      pop\n        /* \"@openzeppelin/contracts/access/Ownable.sol\":3083:3091  newOwner */\n      dup2\n        /* \"@openzeppelin/contracts/access/Ownable.sol\":3052:3092  OwnershipTransferred(oldOwner, newOwner) */\n      0xffffffffffffffffffffffffffffffffffffffff\n      and\n        /* \"@openzeppelin/contracts/access/Ownable.sol\":3073:3081  oldOwner */\n      dup2\n        /* \"@openzeppelin/contracts/access/Ownable.sol\":3052:3092  OwnershipTransferred(oldOwner, newOwner) */\n      0xffffffffffffffffffffffffffffffffffffffff\n      and\n      0x8be0079c531659141344cd1fd0a4f28419497f9722a3daafe3b4186f6b6457e0\n      mload(0x40)\n      mload(0x40)\n      dup1\n      swap2\n      sub\n      swap1\n      log3\n        /* \"@openzeppelin/contracts/access/Ownable.sol\":2975:3099  {... */\n      pop\n        /* \"@openzeppelin/contracts/access/Ownable.sol\":2912:3099  function _transferOwnership(address newOwner) internal virtual {... */\n      pop\n      jump\t// out\n        /* \"@openzeppelin/contracts/utils/Context.sol\":656:752  function _msgSender() internal view virtual returns (address) {... */\n    tag_149:\n        /* \"@openzeppelin/contracts/utils/Context.sol\":709:716  address */\n      0x00\n        /* \"@openzeppelin/contracts/utils/Context.sol\":735:745  msg.sender */\n      caller\n        /* \"@openzeppelin/contracts/utils/Context.sol\":728:745  return msg.sender */\n      swap1\n      pop\n        /* \"@openzeppelin/contracts/utils/Context.sol\":656:752  function _msgSender() internal view virtual returns (address) {... */\n      swap1\n      jump\t// out\n        /* \"#utility.yul\":7:82   */\n    tag_156:\n        /* \"#utility.yul\":40:46   */\n      0x00\n        /* \"#utility.yul\":73:75   */\n      0x40\n        /* \"#utility.yul\":67:76   */\n      mload\n        /* \"#utility.yul\":57:76   */\n      swap1\n      pop\n        /* \"#utility.yul\":7:82   */\n      swap1\n      jump\t// out\n        /* \"#utility.yul\":88:205   */\n    tag_157:\n        /* \"#utility.yul\":197:198   */\n      0x00\n        /* \"#utility.yul\":194:195   */\n      dup1\n        /* \"#utility.yul\":187:199   */\n      revert\n        /* \"#utility.yul\":334:460   */\n    tag_159:\n        /* \"#utility.yul\":371:378   */\n      0x00\n        /* \"#utility.yul\":411:453   */\n      0xffffffffffffffffffffffffffffffffffffffff\n        /* \"#utility.yul\":404:409   */\n      dup3\n        /* \"#utility.yul\":400:454   */\n      and\n        /* \"#utility.yul\":389:454   */\n      swap1\n      pop\n        /* \"#utility.yul\":334:460   */\n      swap2\n      swap1\n      pop\n      jump\t// out\n        /* \"#utility.yul\":466:562   */\n    tag_160:\n        /* \"#utility.yul\":503:510   */\n      0x00\n        /* \"#utility.yul\":532:556   */\n      tag_204\n        /* \"#utility.yul\":550:555   */\n      dup3\n        /* \"#utility.yul\":532:556   */\n      tag_159\n      jump\t// in\n    tag_204:\n        /* \"#utility.yul\":521:556   */\n      swap1\n      pop\n        /* \"#utility.yul\":466:562   */\n      swap2\n      swap1\n      pop\n      jump\t// out\n        /* \"#utility.yul\":568:690   */\n    tag_161:\n        /* \"#utility.yul\":641:665   */\n      tag_206\n        /* \"#utility.yul\":659:664   */\n      dup2\n        /* \"#utility.yul\":641:665   */\n      tag_160\n      jump\t// in\n    tag_206:\n        /* \"#utility.yul\":634:639   */\n      dup2\n        /* \"#utility.yul\":631:666   */\n      eq\n        /* \"#utility.yul\":621:684   */\n      tag_207\n      jumpi\n        /* \"#utility.yul\":680:681   */\n      0x00\n        /* \"#utility.yul\":677:678   */\n      dup1\n        /* \"#utility.yul\":670:682   */\n      revert\n        /* \"#utility.yul\":621:684   */\n    tag_207:\n        /* \"#utility.yul\":568:690   */\n      pop\n      jump\t// out\n        /* \"#utility.yul\":696:835   */\n    tag_162:\n        /* \"#utility.yul\":742:747   */\n      0x00\n        /* \"#utility.yul\":780:786   */\n      dup2\n        /* \"#utility.yul\":767:787   */\n      calldataload\n        /* \"#utility.yul\":758:787   */\n      swap1\n      pop\n        /* \"#utility.yul\":796:829   */\n      tag_209\n        /* \"#utility.yul\":823:828   */\n      dup2\n        /* \"#utility.yul\":796:829   */\n      tag_161\n      jump\t// in\n    tag_209:\n        /* \"#utility.yul\":696:835   */\n      swap3\n      swap2\n      pop\n      pop\n      jump\t// out\n        /* \"#utility.yul\":841:948   */\n    tag_163:\n        /* \"#utility.yul\":922:923   */\n      0x03\n        /* \"#utility.yul\":915:920   */\n      dup2\n        /* \"#utility.yul\":912:924   */\n      lt\n        /* \"#utility.yul\":902:942   */\n      tag_211\n      jumpi\n        /* \"#utility.yul\":938:939   */\n      0x00\n        /* \"#utility.yul\":935:936   */\n      dup1\n        /* \"#utility.yul\":928:940   */\n      revert\n        /* \"#utility.yul\":902:942   */\n    tag_211:\n        /* \"#utility.yul\":841:948   */\n      pop\n      jump\t// out\n        /* \"#utility.yul\":954:1109   */\n    tag_164:\n        /* \"#utility.yul\":1008:1013   */\n      0x00\n        /* \"#utility.yul\":1046:1052   */\n      dup2\n        /* \"#utility.yul\":1033:1053   */\n      calldataload\n        /* \"#utility.yul\":1024:1053   */\n      swap1\n      pop\n        /* \"#utility.yul\":1062:1103   */\n      tag_213\n        /* \"#utility.yul\":1097:1102   */\n      dup2\n        /* \"#utility.yul\":1062:1103   */\n      tag_163\n      jump\t// in\n    tag_213:\n        /* \"#utility.yul\":954:1109   */\n      swap3\n      swap2\n      pop\n      pop\n      jump\t// out\n        /* \"#utility.yul\":1115:1605   */\n    tag_16:\n        /* \"#utility.yul\":1191:1197   */\n      0x00\n        /* \"#utility.yul\":1199:1205   */\n      dup1\n        /* \"#utility.yul\":1248:1250   */\n      0x40\n        /* \"#utility.yul\":1236:1245   */\n      dup4\n        /* \"#utility.yul\":1227:1234   */\n      dup6\n        /* \"#utility.yul\":1223:1246   */\n      sub\n        /* \"#utility.yul\":1219:1251   */\n      slt\n        /* \"#utility.yul\":1216:1335   */\n      iszero\n      tag_215\n      jumpi\n        /* \"#utility.yul\":1254:1333   */\n      tag_216\n      tag_157\n      jump\t// in\n    tag_216:\n        /* \"#utility.yul\":1216:1335   */\n    tag_215:\n        /* \"#utility.yul\":1374:1375   */\n      0x00\n        /* \"#utility.yul\":1399:1452   */\n      tag_217\n        /* \"#utility.yul\":1444:1451   */\n      dup6\n        /* \"#utility.yul\":1435:1441   */\n      dup3\n        /* \"#utility.yul\":1424:1433   */\n      dup7\n        /* \"#utility.yul\":1420:1442   */\n      add\n        /* \"#utility.yul\":1399:1452   */\n      tag_162\n      jump\t// in\n    tag_217:\n        /* \"#utility.yul\":1389:1452   */\n      swap3\n      pop\n        /* \"#utility.yul\":1345:1462   */\n      pop\n        /* \"#utility.yul\":1501:1503   */\n      0x20\n        /* \"#utility.yul\":1527:1588   */\n      tag_218\n        /* \"#utility.yul\":1580:1587   */\n      dup6\n        /* \"#utility.yul\":1571:1577   */\n      dup3\n        /* \"#utility.yul\":1560:1569   */\n      dup7\n        /* \"#utility.yul\":1556:1578   */\n      add\n        /* \"#utility.yul\":1527:1588   */\n      tag_164\n      jump\t// in\n    tag_218:\n        /* \"#utility.yul\":1517:1588   */\n      swap2\n      pop\n        /* \"#utility.yul\":1472:1598   */\n      pop\n        /* \"#utility.yul\":1115:1605   */\n      swap3\n      pop\n      swap3\n      swap1\n      pop\n      jump\t// out\n        /* \"#utility.yul\":1611:1688   */\n    tag_165:\n        /* \"#utility.yul\":1648:1655   */\n      0x00\n        /* \"#utility.yul\":1677:1682   */\n      dup2\n        /* \"#utility.yul\":1666:1682   */\n      swap1\n      pop\n        /* \"#utility.yul\":1611:1688   */\n      swap2\n      swap1\n      pop\n      jump\t// out\n        /* \"#utility.yul\":1694:1812   */\n    tag_166:\n        /* \"#utility.yul\":1781:1805   */\n      tag_221\n        /* \"#utility.yul\":1799:1804   */\n      dup2\n        /* \"#utility.yul\":1781:1805   */\n      tag_165\n      jump\t// in\n    tag_221:\n        /* \"#utility.yul\":1776:1779   */\n      dup3\n        /* \"#utility.yul\":1769:1806   */\n      mstore\n        /* \"#utility.yul\":1694:1812   */\n      pop\n      pop\n      jump\t// out\n        /* \"#utility.yul\":1818:2482   */\n    tag_19:\n        /* \"#utility.yul\":2023:2027   */\n      0x00\n        /* \"#utility.yul\":2061:2064   */\n      0xa0\n        /* \"#utility.yul\":2050:2059   */\n      dup3\n        /* \"#utility.yul\":2046:2065   */\n      add\n        /* \"#utility.yul\":2038:2065   */\n      swap1\n      pop\n        /* \"#utility.yul\":2075:2146   */\n      tag_223\n        /* \"#utility.yul\":2143:2144   */\n      0x00\n        /* \"#utility.yul\":2132:2141   */\n      dup4\n        /* \"#utility.yul\":2128:2145   */\n      add\n        /* \"#utility.yul\":2119:2125   */\n      dup9\n        /* \"#utility.yul\":2075:2146   */\n      tag_166\n      jump\t// in\n    tag_223:\n        /* \"#utility.yul\":2156:2228   */\n      tag_224\n        /* \"#utility.yul\":2224:2226   */\n      0x20\n        /* \"#utility.yul\":2213:2222   */\n      dup4\n        /* \"#utility.yul\":2209:2227   */\n      add\n        /* \"#utility.yul\":2200:2206   */\n      dup8\n        /* \"#utility.yul\":2156:2228   */\n      tag_166\n      jump\t// in\n    tag_224:\n        /* \"#utility.yul\":2238:2310   */\n      tag_225\n        /* \"#utility.yul\":2306:2308   */\n      0x40\n        /* \"#utility.yul\":2295:2304   */\n      dup4\n        /* \"#utility.yul\":2291:2309   */\n      add\n        /* \"#utility.yul\":2282:2288   */\n      dup7\n        /* \"#utility.yul\":2238:2310   */\n      tag_166\n      jump\t// in\n    tag_225:\n        /* \"#utility.yul\":2320:2392   */\n      tag_226\n        /* \"#utility.yul\":2388:2390   */\n      0x60\n        /* \"#utility.yul\":2377:2386   */\n      dup4\n        /* \"#utility.yul\":2373:2391   */\n      add\n        /* \"#utility.yul\":2364:2370   */\n      dup6\n        /* \"#utility.yul\":2320:2392   */\n      tag_166\n      jump\t// in\n    tag_226:\n        /* \"#utility.yul\":2402:2475   */\n      tag_227\n        /* \"#utility.yul\":2470:2473   */\n      0x80\n        /* \"#utility.yul\":2459:2468   */\n      dup4\n        /* \"#utility.yul\":2455:2474   */\n      add\n        /* \"#utility.yul\":2446:2452   */\n      dup5\n        /* \"#utility.yul\":2402:2475   */\n      tag_166\n      jump\t// in\n    tag_227:\n        /* \"#utility.yul\":1818:2482   */\n      swap7\n      swap6\n      pop\n      pop\n      pop\n      pop\n      pop\n      pop\n      jump\t// out\n        /* \"#utility.yul\":2488:2833   */\n    tag_22:\n        /* \"#utility.yul\":2555:2561   */\n      0x00\n        /* \"#utility.yul\":2604:2606   */\n      0x20\n        /* \"#utility.yul\":2592:2601   */\n      dup3\n        /* \"#utility.yul\":2583:2590   */\n      dup5\n        /* \"#utility.yul\":2579:2602   */\n      sub\n        /* \"#utility.yul\":2575:2607   */\n      slt\n        /* \"#utility.yul\":2572:2691   */\n      iszero\n      tag_229\n      jumpi\n        /* \"#utility.yul\":2610:2689   */\n      tag_230\n      tag_157\n      jump\t// in\n    tag_230:\n        /* \"#utility.yul\":2572:2691   */\n    tag_229:\n        /* \"#utility.yul\":2730:2731   */\n      0x00\n        /* \"#utility.yul\":2755:2816   */\n      tag_231\n        /* \"#utility.yul\":2808:2815   */\n      dup5\n        /* \"#utility.yul\":2799:2805   */\n      dup3\n        /* \"#utility.yul\":2788:2797   */\n      dup6\n        /* \"#utility.yul\":2784:2806   */\n      add\n        /* \"#utility.yul\":2755:2816   */\n      tag_164\n      jump\t// in\n    tag_231:\n        /* \"#utility.yul\":2745:2816   */\n      swap2\n      pop\n        /* \"#utility.yul\":2701:2826   */\n      pop\n        /* \"#utility.yul\":2488:2833   */\n      swap3\n      swap2\n      pop\n      pop\n      jump\t// out\n        /* \"#utility.yul\":2839:3061   */\n    tag_25:\n        /* \"#utility.yul\":2932:2936   */\n      0x00\n        /* \"#utility.yul\":2970:2972   */\n      0x20\n        /* \"#utility.yul\":2959:2968   */\n      dup3\n        /* \"#utility.yul\":2955:2973   */\n      add\n        /* \"#utility.yul\":2947:2973   */\n      swap1\n      pop\n        /* \"#utility.yul\":2983:3054   */\n      tag_233\n        /* \"#utility.yul\":3051:3052   */\n      0x00\n        /* \"#utility.yul\":3040:3049   */\n      dup4\n        /* \"#utility.yul\":3036:3053   */\n      add\n        /* \"#utility.yul\":3027:3033   */\n      dup5\n        /* \"#utility.yul\":2983:3054   */\n      tag_166\n      jump\t// in\n    tag_233:\n        /* \"#utility.yul\":2839:3061   */\n      swap3\n      swap2\n      pop\n      pop\n      jump\t// out\n        /* \"#utility.yul\":3067:3184   */\n    tag_167:\n        /* \"#utility.yul\":3176:3177   */\n      0x00\n        /* \"#utility.yul\":3173:3174   */\n      dup1\n        /* \"#utility.yul\":3166:3178   */\n      revert\n        /* \"#utility.yul\":3190:3292   */\n    tag_168:\n        /* \"#utility.yul\":3231:3237   */\n      0x00\n        /* \"#utility.yul\":3282:3284   */\n      0x1f\n        /* \"#utility.yul\":3278:3285   */\n      not\n        /* \"#utility.yul\":3273:3275   */\n      0x1f\n        /* \"#utility.yul\":3266:3271   */\n      dup4\n        /* \"#utility.yul\":3262:3276   */\n      add\n        /* \"#utility.yul\":3258:3286   */\n      and\n        /* \"#utility.yul\":3248:3286   */\n      swap1\n      pop\n        /* \"#utility.yul\":3190:3292   */\n      swap2\n      swap1\n      pop\n      jump\t// out\n        /* \"#utility.yul\":3298:3478   */\n    tag_169:\n        /* \"#utility.yul\":3346:3423   */\n      0x4e487b7100000000000000000000000000000000000000000000000000000000\n        /* \"#utility.yul\":3343:3344   */\n      0x00\n        /* \"#utility.yul\":3336:3424   */\n      mstore\n        /* \"#utility.yul\":3443:3447   */\n      0x41\n        /* \"#utility.yul\":3440:3441   */\n      0x04\n        /* \"#utility.yul\":3433:3448   */\n      mstore\n        /* \"#utility.yul\":3467:3471   */\n      0x24\n        /* \"#utility.yul\":3464:3465   */\n      0x00\n        /* \"#utility.yul\":3457:3472   */\n      revert\n        /* \"#utility.yul\":3484:3765   */\n    tag_170:\n        /* \"#utility.yul\":3567:3594   */\n      tag_238\n        /* \"#utility.yul\":3589:3593   */\n      dup3\n        /* \"#utility.yul\":3567:3594   */\n      tag_168\n      jump\t// in\n    tag_238:\n        /* \"#utility.yul\":3559:3565   */\n      dup2\n        /* \"#utility.yul\":3555:3595   */\n      add\n        /* \"#utility.yul\":3697:3703   */\n      dup2\n        /* \"#utility.yul\":3685:3695   */\n      dup2\n        /* \"#utility.yul\":3682:3704   */\n      lt\n        /* \"#utility.yul\":3661:3679   */\n      0xffffffffffffffff\n        /* \"#utility.yul\":3649:3659   */\n      dup3\n        /* \"#utility.yul\":3646:3680   */\n      gt\n        /* \"#utility.yul\":3643:3705   */\n      or\n        /* \"#utility.yul\":3640:3728   */\n      iszero\n      tag_239\n      jumpi\n        /* \"#utility.yul\":3708:3726   */\n      tag_240\n      tag_169\n      jump\t// in\n    tag_240:\n        /* \"#utility.yul\":3640:3728   */\n    tag_239:\n        /* \"#utility.yul\":3748:3758   */\n      dup1\n        /* \"#utility.yul\":3744:3746   */\n      0x40\n        /* \"#utility.yul\":3737:3759   */\n      mstore\n        /* \"#utility.yul\":3527:3765   */\n      pop\n        /* \"#utility.yul\":3484:3765   */\n      pop\n      pop\n      jump\t// out\n        /* \"#utility.yul\":3771:3900   */\n    tag_171:\n        /* \"#utility.yul\":3805:3811   */\n      0x00\n        /* \"#utility.yul\":3832:3852   */\n      tag_242\n      tag_156\n      jump\t// in\n    tag_242:\n        /* \"#utility.yul\":3822:3852   */\n      swap1\n      pop\n        /* \"#utility.yul\":3861:3894   */\n      tag_243\n        /* \"#utility.yul\":3889:3893   */\n      dup3\n        /* \"#utility.yul\":3881:3887   */\n      dup3\n        /* \"#utility.yul\":3861:3894   */\n      tag_170\n      jump\t// in\n    tag_243:\n        /* \"#utility.yul\":3771:3900   */\n      swap2\n      swap1\n      pop\n      jump\t// out\n        /* \"#utility.yul\":4029:4151   */\n    tag_173:\n        /* \"#utility.yul\":4102:4126   */\n      tag_246\n        /* \"#utility.yul\":4120:4125   */\n      dup2\n        /* \"#utility.yul\":4102:4126   */\n      tag_165\n      jump\t// in\n    tag_246:\n        /* \"#utility.yul\":4095:4100   */\n      dup2\n        /* \"#utility.yul\":4092:4127   */\n      eq\n        /* \"#utility.yul\":4082:4145   */\n      tag_247\n      jumpi\n        /* \"#utility.yul\":4141:4142   */\n      0x00\n        /* \"#utility.yul\":4138:4139   */\n      dup1\n        /* \"#utility.yul\":4131:4143   */\n      revert\n        /* \"#utility.yul\":4082:4145   */\n    tag_247:\n        /* \"#utility.yul\":4029:4151   */\n      pop\n      jump\t// out\n        /* \"#utility.yul\":4157:4296   */\n    tag_174:\n        /* \"#utility.yul\":4203:4208   */\n      0x00\n        /* \"#utility.yul\":4241:4247   */\n      dup2\n        /* \"#utility.yul\":4228:4248   */\n      calldataload\n        /* \"#utility.yul\":4219:4248   */\n      swap1\n      pop\n        /* \"#utility.yul\":4257:4290   */\n      tag_249\n        /* \"#utility.yul\":4284:4289   */\n      dup2\n        /* \"#utility.yul\":4257:4290   */\n      tag_173\n      jump\t// in\n    tag_249:\n        /* \"#utility.yul\":4157:4296   */\n      swap3\n      swap2\n      pop\n      pop\n      jump\t// out\n        /* \"#utility.yul\":4348:5436   */\n    tag_175:\n        /* \"#utility.yul\":4429:4434   */\n      0x00\n        /* \"#utility.yul\":4473:4477   */\n      0xa0\n        /* \"#utility.yul\":4461:4470   */\n      dup3\n        /* \"#utility.yul\":4456:4459   */\n      dup5\n        /* \"#utility.yul\":4452:4471   */\n      sub\n        /* \"#utility.yul\":4448:4478   */\n      slt\n        /* \"#utility.yul\":4445:4562   */\n      iszero\n      tag_251\n      jumpi\n        /* \"#utility.yul\":4481:4560   */\n      tag_252\n      tag_167\n      jump\t// in\n    tag_252:\n        /* \"#utility.yul\":4445:4562   */\n    tag_251:\n        /* \"#utility.yul\":4580:4601   */\n      tag_253\n        /* \"#utility.yul\":4596:4600   */\n      0xa0\n        /* \"#utility.yul\":4580:4601   */\n      tag_171\n      jump\t// in\n    tag_253:\n        /* \"#utility.yul\":4571:4601   */\n      swap1\n      pop\n        /* \"#utility.yul\":4661:4662   */\n      0x00\n        /* \"#utility.yul\":4701:4750   */\n      tag_254\n        /* \"#utility.yul\":4746:4749   */\n      dup5\n        /* \"#utility.yul\":4737:4743   */\n      dup3\n        /* \"#utility.yul\":4726:4735   */\n      dup6\n        /* \"#utility.yul\":4722:4744   */\n      add\n        /* \"#utility.yul\":4701:4750   */\n      tag_174\n      jump\t// in\n    tag_254:\n        /* \"#utility.yul\":4694:4698   */\n      0x00\n        /* \"#utility.yul\":4687:4692   */\n      dup4\n        /* \"#utility.yul\":4683:4699   */\n      add\n        /* \"#utility.yul\":4676:4751   */\n      mstore\n        /* \"#utility.yul\":4611:4762   */\n      pop\n        /* \"#utility.yul\":4825:4827   */\n      0x20\n        /* \"#utility.yul\":4866:4915   */\n      tag_255\n        /* \"#utility.yul\":4911:4914   */\n      dup5\n        /* \"#utility.yul\":4902:4908   */\n      dup3\n        /* \"#utility.yul\":4891:4900   */\n      dup6\n        /* \"#utility.yul\":4887:4909   */\n      add\n        /* \"#utility.yul\":4866:4915   */\n      tag_174\n      jump\t// in\n    tag_255:\n        /* \"#utility.yul\":4859:4863   */\n      0x20\n        /* \"#utility.yul\":4852:4857   */\n      dup4\n        /* \"#utility.yul\":4848:4864   */\n      add\n        /* \"#utility.yul\":4841:4916   */\n      mstore\n        /* \"#utility.yul\":4772:4927   */\n      pop\n        /* \"#utility.yul\":4987:4989   */\n      0x40\n        /* \"#utility.yul\":5028:5077   */\n      tag_256\n        /* \"#utility.yul\":5073:5076   */\n      dup5\n        /* \"#utility.yul\":5064:5070   */\n      dup3\n        /* \"#utility.yul\":5053:5062   */\n      dup6\n        /* \"#utility.yul\":5049:5071   */\n      add\n        /* \"#utility.yul\":5028:5077   */\n      tag_174\n      jump\t// in\n    tag_256:\n        /* \"#utility.yul\":5021:5025   */\n      0x40\n        /* \"#utility.yul\":5014:5019   */\n      dup4\n        /* \"#utility.yul\":5010:5026   */\n      add\n        /* \"#utility.yul\":5003:5078   */\n      mstore\n        /* \"#utility.yul\":4937:5089   */\n      pop\n        /* \"#utility.yul\":5155:5157   */\n      0x60\n        /* \"#utility.yul\":5196:5245   */\n      tag_257\n        /* \"#utility.yul\":5241:5244   */\n      dup5\n        /* \"#utility.yul\":5232:5238   */\n      dup3\n        /* \"#utility.yul\":5221:5230   */\n      dup6\n        /* \"#utility.yul\":5217:5239   */\n      add\n        /* \"#utility.yul\":5196:5245   */\n      tag_174\n      jump\t// in\n    tag_257:\n        /* \"#utility.yul\":5189:5193   */\n      0x60\n        /* \"#utility.yul\":5182:5187   */\n      dup4\n        /* \"#utility.yul\":5178:5194   */\n      add\n        /* \"#utility.yul\":5171:5246   */\n      mstore\n        /* \"#utility.yul\":5099:5257   */\n      pop\n        /* \"#utility.yul\":5326:5329   */\n      0x80\n        /* \"#utility.yul\":5368:5417   */\n      tag_258\n        /* \"#utility.yul\":5413:5416   */\n      dup5\n        /* \"#utility.yul\":5404:5410   */\n      dup3\n        /* \"#utility.yul\":5393:5402   */\n      dup6\n        /* \"#utility.yul\":5389:5411   */\n      add\n        /* \"#utility.yul\":5368:5417   */\n      tag_174\n      jump\t// in\n    tag_258:\n        /* \"#utility.yul\":5361:5365   */\n      0x80\n        /* \"#utility.yul\":5354:5359   */\n      dup4\n        /* \"#utility.yul\":5350:5366   */\n      add\n        /* \"#utility.yul\":5343:5418   */\n      mstore\n        /* \"#utility.yul\":5267:5429   */\n      pop\n        /* \"#utility.yul\":4348:5436   */\n      swap3\n      swap2\n      pop\n      pop\n      jump\t// out\n        /* \"#utility.yul\":5442:5836   */\n    tag_28:\n        /* \"#utility.yul\":5533:5539   */\n      0x00\n        /* \"#utility.yul\":5582:5585   */\n      0xa0\n        /* \"#utility.yul\":5570:5579   */\n      dup3\n        /* \"#utility.yul\":5561:5568   */\n      dup5\n        /* \"#utility.yul\":5557:5580   */\n      sub\n        /* \"#utility.yul\":5553:5586   */\n      slt\n        /* \"#utility.yul\":5550:5670   */\n      iszero\n      tag_260\n      jumpi\n        /* \"#utility.yul\":5589:5668   */\n      tag_261\n      tag_157\n      jump\t// in\n    tag_261:\n        /* \"#utility.yul\":5550:5670   */\n    tag_260:\n        /* \"#utility.yul\":5709:5710   */\n      0x00\n        /* \"#utility.yul\":5734:5819   */\n      tag_262\n        /* \"#utility.yul\":5811:5818   */\n      dup5\n        /* \"#utility.yul\":5802:5808   */\n      dup3\n        /* \"#utility.yul\":5791:5800   */\n      dup6\n        /* \"#utility.yul\":5787:5809   */\n      add\n        /* \"#utility.yul\":5734:5819   */\n      tag_175\n      jump\t// in\n    tag_262:\n        /* \"#utility.yul\":5724:5819   */\n      swap2\n      pop\n        /* \"#utility.yul\":5680:5829   */\n      pop\n        /* \"#utility.yul\":5442:5836   */\n      swap3\n      swap2\n      pop\n      pop\n      jump\t// out\n        /* \"#utility.yul\":5842:6477   */\n    tag_33:\n        /* \"#utility.yul\":5927:5933   */\n      0x00\n        /* \"#utility.yul\":5935:5941   */\n      dup1\n        /* \"#utility.yul\":5943:5949   */\n      0x00\n        /* \"#utility.yul\":5992:5994   */\n      0x60\n        /* \"#utility.yul\":5980:5989   */\n      dup5\n        /* \"#utility.yul\":5971:5978   */\n      dup7\n        /* \"#utility.yul\":5967:5990   */\n      sub\n        /* \"#utility.yul\":5963:5995   */\n      slt\n        /* \"#utility.yul\":5960:6079   */\n      iszero\n      tag_264\n      jumpi\n        /* \"#utility.yul\":5998:6077   */\n      tag_265\n      tag_157\n      jump\t// in\n    tag_265:\n        /* \"#utility.yul\":5960:6079   */\n    tag_264:\n        /* \"#utility.yul\":6118:6119   */\n      0x00\n        /* \"#utility.yul\":6143:6196   */\n      tag_266\n        /* \"#utility.yul\":6188:6195   */\n      dup7\n        /* \"#utility.yul\":6179:6185   */\n      dup3\n        /* \"#utility.yul\":6168:6177   */\n      dup8\n        /* \"#utility.yul\":6164:6186   */\n      add\n        /* \"#utility.yul\":6143:6196   */\n      tag_162\n      jump\t// in\n    tag_266:\n        /* \"#utility.yul\":6133:6196   */\n      swap4\n      pop\n        /* \"#utility.yul\":6089:6206   */\n      pop\n        /* \"#utility.yul\":6245:6247   */\n      0x20\n        /* \"#utility.yul\":6271:6332   */\n      tag_267\n        /* \"#utility.yul\":6324:6331   */\n      dup7\n        /* \"#utility.yul\":6315:6321   */\n      dup3\n        /* \"#utility.yul\":6304:6313   */\n      dup8\n        /* \"#utility.yul\":6300:6322   */\n      add\n        /* \"#utility.yul\":6271:6332   */\n      tag_164\n      jump\t// in\n    tag_267:\n        /* \"#utility.yul\":6261:6332   */\n      swap3\n      pop\n        /* \"#utility.yul\":6216:6342   */\n      pop\n        /* \"#utility.yul\":6381:6383   */\n      0x40\n        /* \"#utility.yul\":6407:6460   */\n      tag_268\n        /* \"#utility.yul\":6452:6459   */\n      dup7\n        /* \"#utility.yul\":6443:6449   */\n      dup3\n        /* \"#utility.yul\":6432:6441   */\n      dup8\n        /* \"#utility.yul\":6428:6450   */\n      add\n        /* \"#utility.yul\":6407:6460   */\n      tag_174\n      jump\t// in\n    tag_268:\n        /* \"#utility.yul\":6397:6460   */\n      swap2\n      pop\n        /* \"#utility.yul\":6352:6470   */\n      pop\n        /* \"#utility.yul\":5842:6477   */\n      swap3\n      pop\n      swap3\n      pop\n      swap3\n      jump\t// out\n        /* \"#utility.yul\":6483:6601   */\n    tag_176:\n        /* \"#utility.yul\":6570:6594   */\n      tag_270\n        /* \"#utility.yul\":6588:6593   */\n      dup2\n        /* \"#utility.yul\":6570:6594   */\n      tag_160\n      jump\t// in\n    tag_270:\n        /* \"#utility.yul\":6565:6568   */\n      dup3\n        /* \"#utility.yul\":6558:6595   */\n      mstore\n        /* \"#utility.yul\":6483:6601   */\n      pop\n      pop\n      jump\t// out\n        /* \"#utility.yul\":6607:6829   */\n    tag_43:\n        /* \"#utility.yul\":6700:6704   */\n      0x00\n        /* \"#utility.yul\":6738:6740   */\n      0x20\n        /* \"#utility.yul\":6727:6736   */\n      dup3\n        /* \"#utility.yul\":6723:6741   */\n      add\n        /* \"#utility.yul\":6715:6741   */\n      swap1\n      pop\n        /* \"#utility.yul\":6751:6822   */\n      tag_272\n        /* \"#utility.yul\":6819:6820   */\n      0x00\n        /* \"#utility.yul\":6808:6817   */\n      dup4\n        /* \"#utility.yul\":6804:6821   */\n      add\n        /* \"#utility.yul\":6795:6801   */\n      dup5\n        /* \"#utility.yul\":6751:6822   */\n      tag_176\n      jump\t// in\n    tag_272:\n        /* \"#utility.yul\":6607:6829   */\n      swap3\n      swap2\n      pop\n      pop\n      jump\t// out\n        /* \"#utility.yul\":6835:7164   */\n    tag_48:\n        /* \"#utility.yul\":6894:6900   */\n      0x00\n        /* \"#utility.yul\":6943:6945   */\n      0x20\n        /* \"#utility.yul\":6931:6940   */\n      dup3\n        /* \"#utility.yul\":6922:6929   */\n      dup5\n        /* \"#utility.yul\":6918:6941   */\n      sub\n        /* \"#utility.yul\":6914:6946   */\n      slt\n        /* \"#utility.yul\":6911:7030   */\n      iszero\n      tag_274\n      jumpi\n        /* \"#utility.yul\":6949:7028   */\n      tag_275\n      tag_157\n      jump\t// in\n    tag_275:\n        /* \"#utility.yul\":6911:7030   */\n    tag_274:\n        /* \"#utility.yul\":7069:7070   */\n      0x00\n        /* \"#utility.yul\":7094:7147   */\n      tag_276\n        /* \"#utility.yul\":7139:7146   */\n      dup5\n        /* \"#utility.yul\":7130:7136   */\n      dup3\n        /* \"#utility.yul\":7119:7128   */\n      dup6\n        /* \"#utility.yul\":7115:7137   */\n      add\n        /* \"#utility.yul\":7094:7147   */\n      tag_162\n      jump\t// in\n    tag_276:\n        /* \"#utility.yul\":7084:7147   */\n      swap2\n      pop\n        /* \"#utility.yul\":7040:7157   */\n      pop\n        /* \"#utility.yul\":6835:7164   */\n      swap3\n      swap2\n      pop\n      pop\n      jump\t// out\n        /* \"#utility.yul\":7170:7230   */\n    tag_177:\n        /* \"#utility.yul\":7198:7201   */\n      0x00\n        /* \"#utility.yul\":7219:7224   */\n      dup2\n        /* \"#utility.yul\":7212:7224   */\n      swap1\n      pop\n        /* \"#utility.yul\":7170:7230   */\n      swap2\n      swap1\n      pop\n      jump\t// out\n        /* \"#utility.yul\":7236:7378   */\n    tag_178:\n        /* \"#utility.yul\":7286:7295   */\n      0x00\n        /* \"#utility.yul\":7319:7372   */\n      tag_279\n        /* \"#utility.yul\":7337:7371   */\n      tag_280\n        /* \"#utility.yul\":7346:7370   */\n      tag_281\n        /* \"#utility.yul\":7364:7369   */\n      dup5\n        /* \"#utility.yul\":7346:7370   */\n      tag_159\n      jump\t// in\n    tag_281:\n        /* \"#utility.yul\":7337:7371   */\n      tag_177\n      jump\t// in\n    tag_280:\n        /* \"#utility.yul\":7319:7372   */\n      tag_159\n      jump\t// in\n    tag_279:\n        /* \"#utility.yul\":7306:7372   */\n      swap1\n      pop\n        /* \"#utility.yul\":7236:7378   */\n      swap2\n      swap1\n      pop\n      jump\t// out\n        /* \"#utility.yul\":7384:7510   */\n    tag_179:\n        /* \"#utility.yul\":7434:7443   */\n      0x00\n        /* \"#utility.yul\":7467:7504   */\n      tag_283\n        /* \"#utility.yul\":7498:7503   */\n      dup3\n        /* \"#utility.yul\":7467:7504   */\n      tag_178\n      jump\t// in\n    tag_283:\n        /* \"#utility.yul\":7454:7504   */\n      swap1\n      pop\n        /* \"#utility.yul\":7384:7510   */\n      swap2\n      swap1\n      pop\n      jump\t// out\n        /* \"#utility.yul\":7516:7656   */\n    tag_180:\n        /* \"#utility.yul\":7580:7589   */\n      0x00\n        /* \"#utility.yul\":7613:7650   */\n      tag_285\n        /* \"#utility.yul\":7644:7649   */\n      dup3\n        /* \"#utility.yul\":7613:7650   */\n      tag_179\n      jump\t// in\n    tag_285:\n        /* \"#utility.yul\":7600:7650   */\n      swap1\n      pop\n        /* \"#utility.yul\":7516:7656   */\n      swap2\n      swap1\n      pop\n      jump\t// out\n        /* \"#utility.yul\":7662:7821   */\n    tag_181:\n        /* \"#utility.yul\":7763:7814   */\n      tag_287\n        /* \"#utility.yul\":7808:7813   */\n      dup2\n        /* \"#utility.yul\":7763:7814   */\n      tag_180\n      jump\t// in\n    tag_287:\n        /* \"#utility.yul\":7758:7761   */\n      dup3\n        /* \"#utility.yul\":7751:7815   */\n      mstore\n        /* \"#utility.yul\":7662:7821   */\n      pop\n      pop\n      jump\t// out\n        /* \"#utility.yul\":7827:8077   */\n    tag_53:\n        /* \"#utility.yul\":7934:7938   */\n      0x00\n        /* \"#utility.yul\":7972:7974   */\n      0x20\n        /* \"#utility.yul\":7961:7970   */\n      dup3\n        /* \"#utility.yul\":7957:7975   */\n      add\n        /* \"#utility.yul\":7949:7975   */\n      swap1\n      pop\n        /* \"#utility.yul\":7985:8070   */\n      tag_289\n        /* \"#utility.yul\":8067:8068   */\n      0x00\n        /* \"#utility.yul\":8056:8065   */\n      dup4\n        /* \"#utility.yul\":8052:8069   */\n      add\n        /* \"#utility.yul\":8043:8049   */\n      dup5\n        /* \"#utility.yul\":7985:8070   */\n      tag_181\n      jump\t// in\n    tag_289:\n        /* \"#utility.yul\":7827:8077   */\n      swap3\n      swap2\n      pop\n      pop\n      jump\t// out\n        /* \"#utility.yul\":8083:8263   */\n    tag_74:\n        /* \"#utility.yul\":8131:8208   */\n      0x4e487b7100000000000000000000000000000000000000000000000000000000\n        /* \"#utility.yul\":8128:8129   */\n      0x00\n        /* \"#utility.yul\":8121:8209   */\n      mstore\n        /* \"#utility.yul\":8228:8232   */\n      0x21\n        /* \"#utility.yul\":8225:8226   */\n      0x04\n        /* \"#utility.yul\":8218:8233   */\n      mstore\n        /* \"#utility.yul\":8252:8256   */\n      0x24\n        /* \"#utility.yul\":8249:8250   */\n      0x00\n        /* \"#utility.yul\":8242:8257   */\n      revert\n        /* \"#utility.yul\":8269:8438   */\n    tag_182:\n        /* \"#utility.yul\":8353:8364   */\n      0x00\n        /* \"#utility.yul\":8387:8393   */\n      dup3\n        /* \"#utility.yul\":8382:8385   */\n      dup3\n        /* \"#utility.yul\":8375:8394   */\n      mstore\n        /* \"#utility.yul\":8427:8431   */\n      0x20\n        /* \"#utility.yul\":8422:8425   */\n      dup3\n        /* \"#utility.yul\":8418:8432   */\n      add\n        /* \"#utility.yul\":8403:8432   */\n      swap1\n      pop\n        /* \"#utility.yul\":8269:8438   */\n      swap3\n      swap2\n      pop\n      pop\n      jump\t// out\n        /* \"#utility.yul\":8444:8670   */\n    tag_183:\n        /* \"#utility.yul\":8584:8618   */\n      0x42656e656669636961727920616c726561647920616464656420666f72207468\n        /* \"#utility.yul\":8580:8581   */\n      0x00\n        /* \"#utility.yul\":8572:8578   */\n      dup3\n        /* \"#utility.yul\":8568:8582   */\n      add\n        /* \"#utility.yul\":8561:8619   */\n      mstore\n        /* \"#utility.yul\":8653:8662   */\n      0x697320726f6c6500000000000000000000000000000000000000000000000000\n        /* \"#utility.yul\":8648:8650   */\n      0x20\n        /* \"#utility.yul\":8640:8646   */\n      dup3\n        /* \"#utility.yul\":8636:8651   */\n      add\n        /* \"#utility.yul\":8629:8663   */\n      mstore\n        /* \"#utility.yul\":8444:8670   */\n      pop\n      jump\t// out\n        /* \"#utility.yul\":8676:9042   */\n    tag_184:\n        /* \"#utility.yul\":8818:8821   */\n      0x00\n        /* \"#utility.yul\":8839:8906   */\n      tag_294\n        /* \"#utility.yul\":8903:8905   */\n      0x27\n        /* \"#utility.yul\":8898:8901   */\n      dup4\n        /* \"#utility.yul\":8839:8906   */\n      tag_182\n      jump\t// in\n    tag_294:\n        /* \"#utility.yul\":8832:8906   */\n      swap2\n      pop\n        /* \"#utility.yul\":8915:9008   */\n      tag_295\n        /* \"#utility.yul\":9004:9007   */\n      dup3\n        /* \"#utility.yul\":8915:9008   */\n      tag_183\n      jump\t// in\n    tag_295:\n        /* \"#utility.yul\":9033:9035   */\n      0x40\n        /* \"#utility.yul\":9028:9031   */\n      dup3\n        /* \"#utility.yul\":9024:9036   */\n      add\n        /* \"#utility.yul\":9017:9036   */\n      swap1\n      pop\n        /* \"#utility.yul\":8676:9042   */\n      swap2\n      swap1\n      pop\n      jump\t// out\n        /* \"#utility.yul\":9048:9467   */\n    tag_79:\n        /* \"#utility.yul\":9214:9218   */\n      0x00\n        /* \"#utility.yul\":9252:9254   */\n      0x20\n        /* \"#utility.yul\":9241:9250   */\n      dup3\n        /* \"#utility.yul\":9237:9255   */\n      add\n        /* \"#utility.yul\":9229:9255   */\n      swap1\n      pop\n        /* \"#utility.yul\":9301:9310   */\n      dup2\n        /* \"#utility.yul\":9295:9299   */\n      dup2\n        /* \"#utility.yul\":9291:9311   */\n      sub\n        /* \"#utility.yul\":9287:9288   */\n      0x00\n        /* \"#utility.yul\":9276:9285   */\n      dup4\n        /* \"#utility.yul\":9272:9289   */\n      add\n        /* \"#utility.yul\":9265:9312   */\n      mstore\n        /* \"#utility.yul\":9329:9460   */\n      tag_297\n        /* \"#utility.yul\":9455:9459   */\n      dup2\n        /* \"#utility.yul\":9329:9460   */\n      tag_184\n      jump\t// in\n    tag_297:\n        /* \"#utility.yul\":9321:9460   */\n      swap1\n      pop\n        /* \"#utility.yul\":9048:9467   */\n      swap2\n      swap1\n      pop\n      jump\t// out\n        /* \"#utility.yul\":9473:9586   */\n    tag_185:\n        /* \"#utility.yul\":9554:9555   */\n      0x03\n        /* \"#utility.yul\":9547:9552   */\n      dup2\n        /* \"#utility.yul\":9544:9556   */\n      lt\n        /* \"#utility.yul\":9534:9580   */\n      tag_299\n      jumpi\n        /* \"#utility.yul\":9560:9578   */\n      tag_300\n      tag_74\n      jump\t// in\n    tag_300:\n        /* \"#utility.yul\":9534:9580   */\n    tag_299:\n        /* \"#utility.yul\":9473:9586   */\n      pop\n      jump\t// out\n        /* \"#utility.yul\":9592:9719   */\n    tag_186:\n        /* \"#utility.yul\":9637:9644   */\n      0x00\n        /* \"#utility.yul\":9666:9671   */\n      dup2\n        /* \"#utility.yul\":9655:9671   */\n      swap1\n      pop\n        /* \"#utility.yul\":9672:9713   */\n      tag_302\n        /* \"#utility.yul\":9707:9712   */\n      dup3\n        /* \"#utility.yul\":9672:9713   */\n      tag_185\n      jump\t// in\n    tag_302:\n        /* \"#utility.yul\":9592:9719   */\n      swap2\n      swap1\n      pop\n      jump\t// out\n        /* \"#utility.yul\":9725:9852   */\n    tag_187:\n        /* \"#utility.yul\":9781:9790   */\n      0x00\n        /* \"#utility.yul\":9814:9846   */\n      tag_304\n        /* \"#utility.yul\":9840:9845   */\n      dup3\n        /* \"#utility.yul\":9814:9846   */\n      tag_186\n      jump\t// in\n    tag_304:\n        /* \"#utility.yul\":9801:9846   */\n      swap1\n      pop\n        /* \"#utility.yul\":9725:9852   */\n      swap2\n      swap1\n      pop\n      jump\t// out\n        /* \"#utility.yul\":9858:10001   */\n    tag_188:\n        /* \"#utility.yul\":9951:9994   */\n      tag_306\n        /* \"#utility.yul\":9988:9993   */\n      dup2\n        /* \"#utility.yul\":9951:9994   */\n      tag_187\n      jump\t// in\n    tag_306:\n        /* \"#utility.yul\":9946:9949   */\n      dup3\n        /* \"#utility.yul\":9939:9995   */\n      mstore\n        /* \"#utility.yul\":9858:10001   */\n      pop\n      pop\n      jump\t// out\n        /* \"#utility.yul\":10007:10461   */\n    tag_97:\n        /* \"#utility.yul\":10162:10166   */\n      0x00\n        /* \"#utility.yul\":10200:10202   */\n      0x60\n        /* \"#utility.yul\":10189:10198   */\n      dup3\n        /* \"#utility.yul\":10185:10203   */\n      add\n        /* \"#utility.yul\":10177:10203   */\n      swap1\n      pop\n        /* \"#utility.yul\":10213:10284   */\n      tag_308\n        /* \"#utility.yul\":10281:10282   */\n      0x00\n        /* \"#utility.yul\":10270:10279   */\n      dup4\n        /* \"#utility.yul\":10266:10283   */\n      add\n        /* \"#utility.yul\":10257:10263   */\n      dup7\n        /* \"#utility.yul\":10213:10284   */\n      tag_176\n      jump\t// in\n    tag_308:\n        /* \"#utility.yul\":10294:10372   */\n      tag_309\n        /* \"#utility.yul\":10368:10370   */\n      0x20\n        /* \"#utility.yul\":10357:10366   */\n      dup4\n        /* \"#utility.yul\":10353:10371   */\n      add\n        /* \"#utility.yul\":10344:10350   */\n      dup6\n        /* \"#utility.yul\":10294:10372   */\n      tag_188\n      jump\t// in\n    tag_309:\n        /* \"#utility.yul\":10382:10454   */\n      tag_310\n        /* \"#utility.yul\":10450:10452   */\n      0x40\n        /* \"#utility.yul\":10439:10448   */\n      dup4\n        /* \"#utility.yul\":10435:10453   */\n      add\n        /* \"#utility.yul\":10426:10432   */\n      dup5\n        /* \"#utility.yul\":10382:10454   */\n      tag_166\n      jump\t// in\n    tag_310:\n        /* \"#utility.yul\":10007:10461   */\n      swap5\n      swap4\n      pop\n      pop\n      pop\n      pop\n      jump\t// out\n        /* \"#utility.yul\":10467:10687   */\n    tag_189:\n        /* \"#utility.yul\":10607:10641   */\n      0x4e6f2076657374696e67207363686564756c6520666f72207468697320726f6c\n        /* \"#utility.yul\":10603:10604   */\n      0x00\n        /* \"#utility.yul\":10595:10601   */\n      dup3\n        /* \"#utility.yul\":10591:10605   */\n      add\n        /* \"#utility.yul\":10584:10642   */\n      mstore\n        /* \"#utility.yul\":10676:10679   */\n      0x6500000000000000000000000000000000000000000000000000000000000000\n        /* \"#utility.yul\":10671:10673   */\n      0x20\n        /* \"#utility.yul\":10663:10669   */\n      dup3\n        /* \"#utility.yul\":10659:10674   */\n      add\n        /* \"#utility.yul\":10652:10680   */\n      mstore\n        /* \"#utility.yul\":10467:10687   */\n      pop\n      jump\t// out\n        /* \"#utility.yul\":10693:11059   */\n    tag_190:\n        /* \"#utility.yul\":10835:10838   */\n      0x00\n        /* \"#utility.yul\":10856:10923   */\n      tag_313\n        /* \"#utility.yul\":10920:10922   */\n      0x21\n        /* \"#utility.yul\":10915:10918   */\n      dup4\n        /* \"#utility.yul\":10856:10923   */\n      tag_182\n      jump\t// in\n    tag_313:\n        /* \"#utility.yul\":10849:10923   */\n      swap2\n      pop\n        /* \"#utility.yul\":10932:11025   */\n      tag_314\n        /* \"#utility.yul\":11021:11024   */\n      dup3\n        /* \"#utility.yul\":10932:11025   */\n      tag_189\n      jump\t// in\n    tag_314:\n        /* \"#utility.yul\":11050:11052   */\n      0x40\n        /* \"#utility.yul\":11045:11048   */\n      dup3\n        /* \"#utility.yul\":11041:11053   */\n      add\n        /* \"#utility.yul\":11034:11053   */\n      swap1\n      pop\n        /* \"#utility.yul\":10693:11059   */\n      swap2\n      swap1\n      pop\n      jump\t// out\n        /* \"#utility.yul\":11065:11484   */\n    tag_105:\n        /* \"#utility.yul\":11231:11235   */\n      0x00\n        /* \"#utility.yul\":11269:11271   */\n      0x20\n        /* \"#utility.yul\":11258:11267   */\n      dup3\n        /* \"#utility.yul\":11254:11272   */\n      add\n        /* \"#utility.yul\":11246:11272   */\n      swap1\n      pop\n        /* \"#utility.yul\":11318:11327   */\n      dup2\n        /* \"#utility.yul\":11312:11316   */\n      dup2\n        /* \"#utility.yul\":11308:11328   */\n      sub\n        /* \"#utility.yul\":11304:11305   */\n      0x00\n        /* \"#utility.yul\":11293:11302   */\n      dup4\n        /* \"#utility.yul\":11289:11306   */\n      add\n        /* \"#utility.yul\":11282:11329   */\n      mstore\n        /* \"#utility.yul\":11346:11477   */\n      tag_316\n        /* \"#utility.yul\":11472:11476   */\n      dup2\n        /* \"#utility.yul\":11346:11477   */\n      tag_190\n      jump\t// in\n    tag_316:\n        /* \"#utility.yul\":11338:11477   */\n      swap1\n      pop\n        /* \"#utility.yul\":11065:11484   */\n      swap2\n      swap1\n      pop\n      jump\t// out\n        /* \"#utility.yul\":11490:11660   */\n    tag_191:\n        /* \"#utility.yul\":11630:11652   */\n      0x4e6f20746f6b656e7320746f2072656c65617365000000000000000000000000\n        /* \"#utility.yul\":11626:11627   */\n      0x00\n        /* \"#utility.yul\":11618:11624   */\n      dup3\n        /* \"#utility.yul\":11614:11628   */\n      add\n        /* \"#utility.yul\":11607:11653   */\n      mstore\n        /* \"#utility.yul\":11490:11660   */\n      pop\n      jump\t// out\n        /* \"#utility.yul\":11666:12032   */\n    tag_192:\n        /* \"#utility.yul\":11808:11811   */\n      0x00\n        /* \"#utility.yul\":11829:11896   */\n      tag_319\n        /* \"#utility.yul\":11893:11895   */\n      0x14\n        /* \"#utility.yul\":11888:11891   */\n      dup4\n        /* \"#utility.yul\":11829:11896   */\n      tag_182\n      jump\t// in\n    tag_319:\n        /* \"#utility.yul\":11822:11896   */\n      swap2\n      pop\n        /* \"#utility.yul\":11905:11998   */\n      tag_320\n        /* \"#utility.yul\":11994:11997   */\n      dup3\n        /* \"#utility.yul\":11905:11998   */\n      tag_191\n      jump\t// in\n    tag_320:\n        /* \"#utility.yul\":12023:12025   */\n      0x20\n        /* \"#utility.yul\":12018:12021   */\n      dup3\n        /* \"#utility.yul\":12014:12026   */\n      add\n        /* \"#utility.yul\":12007:12026   */\n      swap1\n      pop\n        /* \"#utility.yul\":11666:12032   */\n      swap2\n      swap1\n      pop\n      jump\t// out\n        /* \"#utility.yul\":12038:12457   */\n    tag_110:\n        /* \"#utility.yul\":12204:12208   */\n      0x00\n        /* \"#utility.yul\":12242:12244   */\n      0x20\n        /* \"#utility.yul\":12231:12240   */\n      dup3\n        /* \"#utility.yul\":12227:12245   */\n      add\n        /* \"#utility.yul\":12219:12245   */\n      swap1\n      pop\n        /* \"#utility.yul\":12291:12300   */\n      dup2\n        /* \"#utility.yul\":12285:12289   */\n      dup2\n        /* \"#utility.yul\":12281:12301   */\n      sub\n        /* \"#utility.yul\":12277:12278   */\n      0x00\n        /* \"#utility.yul\":12266:12275   */\n      dup4\n        /* \"#utility.yul\":12262:12279   */\n      add\n        /* \"#utility.yul\":12255:12302   */\n      mstore\n        /* \"#utility.yul\":12319:12450   */\n      tag_322\n        /* \"#utility.yul\":12445:12449   */\n      dup2\n        /* \"#utility.yul\":12319:12450   */\n      tag_192\n      jump\t// in\n    tag_322:\n        /* \"#utility.yul\":12311:12450   */\n      swap1\n      pop\n        /* \"#utility.yul\":12038:12457   */\n      swap2\n      swap1\n      pop\n      jump\t// out\n        /* \"#utility.yul\":12463:12795   */\n    tag_113:\n        /* \"#utility.yul\":12584:12588   */\n      0x00\n        /* \"#utility.yul\":12622:12624   */\n      0x40\n        /* \"#utility.yul\":12611:12620   */\n      dup3\n        /* \"#utility.yul\":12607:12625   */\n      add\n        /* \"#utility.yul\":12599:12625   */\n      swap1\n      pop\n        /* \"#utility.yul\":12635:12706   */\n      tag_324\n        /* \"#utility.yul\":12703:12704   */\n      0x00\n        /* \"#utility.yul\":12692:12701   */\n      dup4\n        /* \"#utility.yul\":12688:12705   */\n      add\n        /* \"#utility.yul\":12679:12685   */\n      dup6\n        /* \"#utility.yul\":12635:12706   */\n      tag_176\n      jump\t// in\n    tag_324:\n        /* \"#utility.yul\":12716:12788   */\n      tag_325\n        /* \"#utility.yul\":12784:12786   */\n      0x20\n        /* \"#utility.yul\":12773:12782   */\n      dup4\n        /* \"#utility.yul\":12769:12787   */\n      add\n        /* \"#utility.yul\":12760:12766   */\n      dup5\n        /* \"#utility.yul\":12716:12788   */\n      tag_166\n      jump\t// in\n    tag_325:\n        /* \"#utility.yul\":12463:12795   */\n      swap4\n      swap3\n      pop\n      pop\n      pop\n      jump\t// out\n        /* \"#utility.yul\":12801:12891   */\n    tag_193:\n        /* \"#utility.yul\":12835:12842   */\n      0x00\n        /* \"#utility.yul\":12878:12883   */\n      dup2\n        /* \"#utility.yul\":12871:12884   */\n      iszero\n        /* \"#utility.yul\":12864:12885   */\n      iszero\n        /* \"#utility.yul\":12853:12885   */\n      swap1\n      pop\n        /* \"#utility.yul\":12801:12891   */\n      swap2\n      swap1\n      pop\n      jump\t// out\n        /* \"#utility.yul\":12897:13013   */\n    tag_194:\n        /* \"#utility.yul\":12967:12988   */\n      tag_328\n        /* \"#utility.yul\":12982:12987   */\n      dup2\n        /* \"#utility.yul\":12967:12988   */\n      tag_193\n      jump\t// in\n    tag_328:\n        /* \"#utility.yul\":12960:12965   */\n      dup2\n        /* \"#utility.yul\":12957:12989   */\n      eq\n        /* \"#utility.yul\":12947:13007   */\n      tag_329\n      jumpi\n        /* \"#utility.yul\":13003:13004   */\n      0x00\n        /* \"#utility.yul\":13000:13001   */\n      dup1\n        /* \"#utility.yul\":12993:13005   */\n      revert\n        /* \"#utility.yul\":12947:13007   */\n    tag_329:\n        /* \"#utility.yul\":12897:13013   */\n      pop\n      jump\t// out\n        /* \"#utility.yul\":13019:13156   */\n    tag_195:\n        /* \"#utility.yul\":13073:13078   */\n      0x00\n        /* \"#utility.yul\":13104:13110   */\n      dup2\n        /* \"#utility.yul\":13098:13111   */\n      mload\n        /* \"#utility.yul\":13089:13111   */\n      swap1\n      pop\n        /* \"#utility.yul\":13120:13150   */\n      tag_331\n        /* \"#utility.yul\":13144:13149   */\n      dup2\n        /* \"#utility.yul\":13120:13150   */\n      tag_194\n      jump\t// in\n    tag_331:\n        /* \"#utility.yul\":13019:13156   */\n      swap3\n      swap2\n      pop\n      pop\n      jump\t// out\n        /* \"#utility.yul\":13162:13507   */\n    tag_117:\n        /* \"#utility.yul\":13229:13235   */\n      0x00\n        /* \"#utility.yul\":13278:13280   */\n      0x20\n        /* \"#utility.yul\":13266:13275   */\n      dup3\n        /* \"#utility.yul\":13257:13264   */\n      dup5\n        /* \"#utility.yul\":13253:13276   */\n      sub\n        /* \"#utility.yul\":13249:13281   */\n      slt\n        /* \"#utility.yul\":13246:13365   */\n      iszero\n      tag_333\n      jumpi\n        /* \"#utility.yul\":13284:13363   */\n      tag_334\n      tag_157\n      jump\t// in\n    tag_334:\n        /* \"#utility.yul\":13246:13365   */\n    tag_333:\n        /* \"#utility.yul\":13404:13405   */\n      0x00\n        /* \"#utility.yul\":13429:13490   */\n      tag_335\n        /* \"#utility.yul\":13482:13489   */\n      dup5\n        /* \"#utility.yul\":13473:13479   */\n      dup3\n        /* \"#utility.yul\":13462:13471   */\n      dup6\n        /* \"#utility.yul\":13458:13480   */\n      add\n        /* \"#utility.yul\":13429:13490   */\n      tag_195\n      jump\t// in\n    tag_335:\n        /* \"#utility.yul\":13419:13490   */\n      swap2\n      pop\n        /* \"#utility.yul\":13375:13500   */\n      pop\n        /* \"#utility.yul\":13162:13507   */\n      swap3\n      swap2\n      pop\n      pop\n      jump\t// out\n        /* \"#utility.yul\":13513:13693   */\n    tag_196:\n        /* \"#utility.yul\":13561:13638   */\n      0x4e487b7100000000000000000000000000000000000000000000000000000000\n        /* \"#utility.yul\":13558:13559   */\n      0x00\n        /* \"#utility.yul\":13551:13639   */\n      mstore\n        /* \"#utility.yul\":13658:13662   */\n      0x11\n        /* \"#utility.yul\":13655:13656   */\n      0x04\n        /* \"#utility.yul\":13648:13663   */\n      mstore\n        /* \"#utility.yul\":13682:13686   */\n      0x24\n        /* \"#utility.yul\":13679:13680   */\n      0x00\n        /* \"#utility.yul\":13672:13687   */\n      revert\n        /* \"#utility.yul\":13699:13890   */\n    tag_137:\n        /* \"#utility.yul\":13739:13742   */\n      0x00\n        /* \"#utility.yul\":13758:13778   */\n      tag_338\n        /* \"#utility.yul\":13776:13777   */\n      dup3\n        /* \"#utility.yul\":13758:13778   */\n      tag_165\n      jump\t// in\n    tag_338:\n        /* \"#utility.yul\":13753:13778   */\n      swap2\n      pop\n        /* \"#utility.yul\":13792:13812   */\n      tag_339\n        /* \"#utility.yul\":13810:13811   */\n      dup4\n        /* \"#utility.yul\":13792:13812   */\n      tag_165\n      jump\t// in\n    tag_339:\n        /* \"#utility.yul\":13787:13812   */\n      swap3\n      pop\n        /* \"#utility.yul\":13835:13836   */\n      dup3\n        /* \"#utility.yul\":13832:13833   */\n      dup3\n        /* \"#utility.yul\":13828:13837   */\n      add\n        /* \"#utility.yul\":13821:13837   */\n      swap1\n      pop\n        /* \"#utility.yul\":13856:13859   */\n      dup1\n        /* \"#utility.yul\":13853:13854   */\n      dup3\n        /* \"#utility.yul\":13850:13860   */\n      gt\n        /* \"#utility.yul\":13847:13883   */\n      iszero\n      tag_340\n      jumpi\n        /* \"#utility.yul\":13863:13881   */\n      tag_341\n      tag_196\n      jump\t// in\n    tag_341:\n        /* \"#utility.yul\":13847:13883   */\n    tag_340:\n        /* \"#utility.yul\":13699:13890   */\n      swap3\n      swap2\n      pop\n      pop\n      jump\t// out\n        /* \"#utility.yul\":13896:14090   */\n    tag_140:\n        /* \"#utility.yul\":13936:13940   */\n      0x00\n        /* \"#utility.yul\":13956:13976   */\n      tag_343\n        /* \"#utility.yul\":13974:13975   */\n      dup3\n        /* \"#utility.yul\":13956:13976   */\n      tag_165\n      jump\t// in\n    tag_343:\n        /* \"#utility.yul\":13951:13976   */\n      swap2\n      pop\n        /* \"#utility.yul\":13990:14010   */\n      tag_344\n        /* \"#utility.yul\":14008:14009   */\n      dup4\n        /* \"#utility.yul\":13990:14010   */\n      tag_165\n      jump\t// in\n    tag_344:\n        /* \"#utility.yul\":13985:14010   */\n      swap3\n      pop\n        /* \"#utility.yul\":14034:14035   */\n      dup3\n        /* \"#utility.yul\":14031:14032   */\n      dup3\n        /* \"#utility.yul\":14027:14036   */\n      sub\n        /* \"#utility.yul\":14019:14036   */\n      swap1\n      pop\n        /* \"#utility.yul\":14058:14059   */\n      dup2\n        /* \"#utility.yul\":14052:14056   */\n      dup2\n        /* \"#utility.yul\":14049:14060   */\n      gt\n        /* \"#utility.yul\":14046:14083   */\n      iszero\n      tag_345\n      jumpi\n        /* \"#utility.yul\":14063:14081   */\n      tag_346\n      tag_196\n      jump\t// in\n    tag_346:\n        /* \"#utility.yul\":14046:14083   */\n    tag_345:\n        /* \"#utility.yul\":13896:14090   */\n      swap3\n      swap2\n      pop\n      pop\n      jump\t// out\n        /* \"#utility.yul\":14096:14506   */\n    tag_143:\n        /* \"#utility.yul\":14136:14143   */\n      0x00\n        /* \"#utility.yul\":14159:14179   */\n      tag_348\n        /* \"#utility.yul\":14177:14178   */\n      dup3\n        /* \"#utility.yul\":14159:14179   */\n      tag_165\n      jump\t// in\n    tag_348:\n        /* \"#utility.yul\":14154:14179   */\n      swap2\n      pop\n        /* \"#utility.yul\":14193:14213   */\n      tag_349\n        /* \"#utility.yul\":14211:14212   */\n      dup4\n        /* \"#utility.yul\":14193:14213   */\n      tag_165\n      jump\t// in\n    tag_349:\n        /* \"#utility.yul\":14188:14213   */\n      swap3\n      pop\n        /* \"#utility.yul\":14248:14249   */\n      dup3\n        /* \"#utility.yul\":14245:14246   */\n      dup3\n        /* \"#utility.yul\":14241:14250   */\n      mul\n        /* \"#utility.yul\":14270:14300   */\n      tag_350\n        /* \"#utility.yul\":14288:14299   */\n      dup2\n        /* \"#utility.yul\":14270:14300   */\n      tag_165\n      jump\t// in\n    tag_350:\n        /* \"#utility.yul\":14259:14300   */\n      swap2\n      pop\n        /* \"#utility.yul\":14449:14450   */\n      dup3\n        /* \"#utility.yul\":14440:14447   */\n      dup3\n        /* \"#utility.yul\":14436:14451   */\n      div\n        /* \"#utility.yul\":14433:14434   */\n      dup5\n        /* \"#utility.yul\":14430:14452   */\n      eq\n        /* \"#utility.yul\":14410:14411   */\n      dup4\n        /* \"#utility.yul\":14403:14412   */\n      iszero\n        /* \"#utility.yul\":14383:14466   */\n      or\n        /* \"#utility.yul\":14360:14499   */\n      tag_351\n      jumpi\n        /* \"#utility.yul\":14479:14497   */\n      tag_352\n      tag_196\n      jump\t// in\n    tag_352:\n        /* \"#utility.yul\":14360:14499   */\n    tag_351:\n        /* \"#utility.yul\":14144:14506   */\n      pop\n        /* \"#utility.yul\":14096:14506   */\n      swap3\n      swap2\n      pop\n      pop\n      jump\t// out\n        /* \"#utility.yul\":14512:14692   */\n    tag_197:\n        /* \"#utility.yul\":14560:14637   */\n      0x4e487b7100000000000000000000000000000000000000000000000000000000\n        /* \"#utility.yul\":14557:14558   */\n      0x00\n        /* \"#utility.yul\":14550:14638   */\n      mstore\n        /* \"#utility.yul\":14657:14661   */\n      0x12\n        /* \"#utility.yul\":14654:14655   */\n      0x04\n        /* \"#utility.yul\":14647:14662   */\n      mstore\n        /* \"#utility.yul\":14681:14685   */\n      0x24\n        /* \"#utility.yul\":14678:14679   */\n      0x00\n        /* \"#utility.yul\":14671:14686   */\n      revert\n        /* \"#utility.yul\":14698:14883   */\n    tag_146:\n        /* \"#utility.yul\":14738:14739   */\n      0x00\n        /* \"#utility.yul\":14755:14775   */\n      tag_355\n        /* \"#utility.yul\":14773:14774   */\n      dup3\n        /* \"#utility.yul\":14755:14775   */\n      tag_165\n      jump\t// in\n    tag_355:\n        /* \"#utility.yul\":14750:14775   */\n      swap2\n      pop\n        /* \"#utility.yul\":14789:14809   */\n      tag_356\n        /* \"#utility.yul\":14807:14808   */\n      dup4\n        /* \"#utility.yul\":14789:14809   */\n      tag_165\n      jump\t// in\n    tag_356:\n        /* \"#utility.yul\":14784:14809   */\n      swap3\n      pop\n        /* \"#utility.yul\":14828:14829   */\n      dup3\n        /* \"#utility.yul\":14818:14853   */\n      tag_357\n      jumpi\n        /* \"#utility.yul\":14833:14851   */\n      tag_358\n      tag_197\n      jump\t// in\n    tag_358:\n        /* \"#utility.yul\":14818:14853   */\n    tag_357:\n        /* \"#utility.yul\":14875:14876   */\n      dup3\n        /* \"#utility.yul\":14872:14873   */\n      dup3\n        /* \"#utility.yul\":14868:14877   */\n      div\n        /* \"#utility.yul\":14863:14877   */\n      swap1\n      pop\n        /* \"#utility.yul\":14698:14883   */\n      swap3\n      swap2\n      pop\n      pop\n      jump\t// out\n\n    auxdata: 0xa26469706673582212204231448e4420fe6860464cddb459aadbef4bef0534604e2b30576ffbe0d3a7c764736f6c63430008150033\n}\n",
				"bytecode": {
					"linkReferences": {},
					"object": "608060405234801562000010575f80fd5b506040516200164138038062001641833981810160405281019062000036919062000330565b805f73ffffffffffffffffffffffffffffffffffffffff168173ffffffffffffffffffffffffffffffffffffffff1603620000aa575f6040517f1e4fbdf7000000000000000000000000000000000000000000000000000000008152600401620000a1919062000386565b60405180910390fd5b620000bb81620001c860201b60201c565b508160015f6101000a81548173ffffffffffffffffffffffffffffffffffffffff021916908373ffffffffffffffffffffffffffffffffffffffff160217905550603260035f806002811115620001175762000116620003a1565b5b60028111156200012c576200012b620003a1565b5b81526020019081526020015f2081905550601960035f60016002811115620001595762000158620003a1565b5b60028111156200016e576200016d620003a1565b5b81526020019081526020015f2081905550601960035f6002808111156200019a5762000199620003a1565b5b6002811115620001af57620001ae620003a1565b5b81526020019081526020015f20819055505050620003ce565b5f805f9054906101000a900473ffffffffffffffffffffffffffffffffffffffff169050815f806101000a81548173ffffffffffffffffffffffffffffffffffffffff021916908373ffffffffffffffffffffffffffffffffffffffff1602179055508173ffffffffffffffffffffffffffffffffffffffff168173ffffffffffffffffffffffffffffffffffffffff167f8be0079c531659141344cd1fd0a4f28419497f9722a3daafe3b4186f6b6457e060405160405180910390a35050565b5f80fd5b5f73ffffffffffffffffffffffffffffffffffffffff82169050919050565b5f620002b8826200028d565b9050919050565b5f620002cb82620002ac565b9050919050565b620002dd81620002bf565b8114620002e8575f80fd5b50565b5f81519050620002fb81620002d2565b92915050565b6200030c81620002ac565b811462000317575f80fd5b50565b5f815190506200032a8162000301565b92915050565b5f806040838503121562000349576200034862000289565b5b5f6200035885828601620002eb565b92505060206200036b858286016200031a565b9150509250929050565b6200038081620002ac565b82525050565b5f6020820190506200039b5f83018462000375565b92915050565b7f4e487b71000000000000000000000000000000000000000000000000000000005f52602160045260245ffd5b61126580620003dc5f395ff3fe608060405234801561000f575f80fd5b506004361061009c575f3560e01c8063715018a611610064578063715018a61461016c5780638da5cb5b14610176578063deb36e3214610194578063f2fde38b1461019e578063fc0c546a146101ba5761009c565b80631bcf8d63146100a057806332f043ac146100d45780634445358b146101045780635c160f66146101345780635f11870414610150575b5f80fd5b6100ba60048036038101906100b59190610acf565b6101d8565b6040516100cb959493929190610b25565b60405180910390f35b6100ee60048036038101906100e99190610b76565b610215565b6040516100fb9190610ba1565b60405180910390f35b61011e60048036038101906101199190610cf9565b61022a565b60405161012b9190610ba1565b60405180910390f35b61014e60048036038101906101499190610d24565b6102d6565b005b61016a60048036038101906101659190610b76565b610526565b005b61017461077e565b005b61017e610791565b60405161018b9190610d83565b60405180910390f35b61019c6107b8565b005b6101b860048036038101906101b39190610d9c565b6107f9565b005b6101c261087d565b6040516101cf9190610e22565b60405180910390f35b6002602052815f5260405f20602052805f5260405f205f9150915050805f0154908060010154908060020154908060030154908060040154905085565b6003602052805f5260405f205f915090505481565b5f610245825f015183604001516108a290919063ffffffff16565b421015610254575f90506102d1565b61026f826020015183604001516108a290919063ffffffff16565b421061028157816060015190506102d1565b5f6102998360400151426108b790919063ffffffff16565b90505f6102c984602001516102bb8487606001516108cc90919063ffffffff16565b6108e190919063ffffffff16565b905080925050505b919050565b6102de6108f6565b5f60025f8573ffffffffffffffffffffffffffffffffffffffff1673ffffffffffffffffffffffffffffffffffffffff1681526020019081526020015f205f8460028111156103305761032f610e3b565b5b600281111561034257610341610e3b565b5b81526020019081526020015f206003015414610393576040517f08c379a000000000000000000000000000000000000000000000000000000000815260040161038a90610ee8565b60405180910390fd5b5f8060028111156103a7576103a6610e3b565b5b8360028111156103ba576103b9610e3b565b5b146103c857624f1a006103ce565b63018b82005b63ffffffff1690505f8060028111156103ea576103e9610e3b565b5b8460028111156103fd576103fc610e3b565b5b1461040c576301e13380610412565b6303c267005b63ffffffff1690506040518060a001604052808381526020018281526020014281526020018481526020015f81525060025f8773ffffffffffffffffffffffffffffffffffffffff1673ffffffffffffffffffffffffffffffffffffffff1681526020019081526020015f205f86600281111561049257610491610e3b565b5b60028111156104a4576104a3610e3b565b5b81526020019081526020015f205f820151815f0155602082015181600101556040820151816002015560608201518160030155608082015181600401559050507fc8f4be38ce4ee78fa6b536837e37b8af78b810208aad8ccc7b0331f46a3cda2285858560405161051793929190610f4c565b60405180910390a15050505050565b5f60025f3373ffffffffffffffffffffffffffffffffffffffff1673ffffffffffffffffffffffffffffffffffffffff1681526020019081526020015f205f83600281111561057857610577610e3b565b5b600281111561058a57610589610e3b565b5b81526020019081526020015f2090505f8160030154116105df576040517f08c379a00000000000000000000000000000000000000000000000000000000081526004016105d690610ff1565b60405180910390fd5b5f610625826040518060a00160405290815f820154815260200160018201548152602001600282015481526020016003820154815260200160048201548152505061022a565b90505f61063f8360040154836108b790919063ffffffff16565b90505f8111610683576040517f08c379a000000000000000000000000000000000000000000000000000000000815260040161067a90611059565b60405180910390fd5b61069a8184600401546108a290919063ffffffff16565b836004018190555060015f9054906101000a900473ffffffffffffffffffffffffffffffffffffffff1673ffffffffffffffffffffffffffffffffffffffff1663a9059cbb33836040518363ffffffff1660e01b81526004016106fe929190611077565b6020604051808303815f875af115801561071a573d5f803e3d5ffd5b505050506040513d601f19601f8201168201806040525081019061073e91906110d3565b507f6352c5382c4a4578e712449ca65e83cdb392d045dfcf1cad9615189db2da244b3382604051610770929190611077565b60405180910390a150505050565b6107866108f6565b61078f5f61097d565b565b5f805f9054906101000a900473ffffffffffffffffffffffffffffffffffffffff16905090565b6107c06108f6565b7f3930f04857ba592ba0a6a96942f8350c2415c0a4aa849021aeefee98bb55b122426040516107ef9190610ba1565b60405180910390a1565b6108016108f6565b5f73ffffffffffffffffffffffffffffffffffffffff168173ffffffffffffffffffffffffffffffffffffffff1603610871575f6040517f1e4fbdf70000000000000000000000000000000000000000000000000000000081526004016108689190610d83565b60405180910390fd5b61087a8161097d565b50565b60015f9054906101000a900473ffffffffffffffffffffffffffffffffffffffff1681565b5f81836108af919061112b565b905092915050565b5f81836108c4919061115e565b905092915050565b5f81836108d99190611191565b905092915050565b5f81836108ee91906111ff565b905092915050565b6108fe610a3e565b73ffffffffffffffffffffffffffffffffffffffff1661091c610791565b73ffffffffffffffffffffffffffffffffffffffff161461097b5761093f610a3e565b6040517f118cdaa70000000000000000000000000000000000000000000000000000000081526004016109729190610d83565b60405180910390fd5b565b5f805f9054906101000a900473ffffffffffffffffffffffffffffffffffffffff169050815f806101000a81548173ffffffffffffffffffffffffffffffffffffffff021916908373ffffffffffffffffffffffffffffffffffffffff1602179055508173ffffffffffffffffffffffffffffffffffffffff168173ffffffffffffffffffffffffffffffffffffffff167f8be0079c531659141344cd1fd0a4f28419497f9722a3daafe3b4186f6b6457e060405160405180910390a35050565b5f33905090565b5f604051905090565b5f80fd5b5f73ffffffffffffffffffffffffffffffffffffffff82169050919050565b5f610a7b82610a52565b9050919050565b610a8b81610a71565b8114610a95575f80fd5b50565b5f81359050610aa681610a82565b92915050565b60038110610ab8575f80fd5b50565b5f81359050610ac981610aac565b92915050565b5f8060408385031215610ae557610ae4610a4e565b5b5f610af285828601610a98565b9250506020610b0385828601610abb565b9150509250929050565b5f819050919050565b610b1f81610b0d565b82525050565b5f60a082019050610b385f830188610b16565b610b456020830187610b16565b610b526040830186610b16565b610b5f6060830185610b16565b610b6c6080830184610b16565b9695505050505050565b5f60208284031215610b8b57610b8a610a4e565b5b5f610b9884828501610abb565b91505092915050565b5f602082019050610bb45f830184610b16565b92915050565b5f80fd5b5f601f19601f8301169050919050565b7f4e487b71000000000000000000000000000000000000000000000000000000005f52604160045260245ffd5b610c0482610bbe565b810181811067ffffffffffffffff82111715610c2357610c22610bce565b5b80604052505050565b5f610c35610a45565b9050610c418282610bfb565b919050565b610c4f81610b0d565b8114610c59575f80fd5b50565b5f81359050610c6a81610c46565b92915050565b5f60a08284031215610c8557610c84610bba565b5b610c8f60a0610c2c565b90505f610c9e84828501610c5c565b5f830152506020610cb184828501610c5c565b6020830152506040610cc584828501610c5c565b6040830152506060610cd984828501610c5c565b6060830152506080610ced84828501610c5c565b60808301525092915050565b5f60a08284031215610d0e57610d0d610a4e565b5b5f610d1b84828501610c70565b91505092915050565b5f805f60608486031215610d3b57610d3a610a4e565b5b5f610d4886828701610a98565b9350506020610d5986828701610abb565b9250506040610d6a86828701610c5c565b9150509250925092565b610d7d81610a71565b82525050565b5f602082019050610d965f830184610d74565b92915050565b5f60208284031215610db157610db0610a4e565b5b5f610dbe84828501610a98565b91505092915050565b5f819050919050565b5f610dea610de5610de084610a52565b610dc7565b610a52565b9050919050565b5f610dfb82610dd0565b9050919050565b5f610e0c82610df1565b9050919050565b610e1c81610e02565b82525050565b5f602082019050610e355f830184610e13565b92915050565b7f4e487b71000000000000000000000000000000000000000000000000000000005f52602160045260245ffd5b5f82825260208201905092915050565b7f42656e656669636961727920616c726561647920616464656420666f722074685f8201527f697320726f6c6500000000000000000000000000000000000000000000000000602082015250565b5f610ed2602783610e68565b9150610edd82610e78565b604082019050919050565b5f6020820190508181035f830152610eff81610ec6565b9050919050565b60038110610f1757610f16610e3b565b5b50565b5f819050610f2782610f06565b919050565b5f610f3682610f1a565b9050919050565b610f4681610f2c565b82525050565b5f606082019050610f5f5f830186610d74565b610f6c6020830185610f3d565b610f796040830184610b16565b949350505050565b7f4e6f2076657374696e67207363686564756c6520666f72207468697320726f6c5f8201527f6500000000000000000000000000000000000000000000000000000000000000602082015250565b5f610fdb602183610e68565b9150610fe682610f81565b604082019050919050565b5f6020820190508181035f83015261100881610fcf565b9050919050565b7f4e6f20746f6b656e7320746f2072656c656173650000000000000000000000005f82015250565b5f611043601483610e68565b915061104e8261100f565b602082019050919050565b5f6020820190508181035f83015261107081611037565b9050919050565b5f60408201905061108a5f830185610d74565b6110976020830184610b16565b9392505050565b5f8115159050919050565b6110b28161109e565b81146110bc575f80fd5b50565b5f815190506110cd816110a9565b92915050565b5f602082840312156110e8576110e7610a4e565b5b5f6110f5848285016110bf565b91505092915050565b7f4e487b71000000000000000000000000000000000000000000000000000000005f52601160045260245ffd5b5f61113582610b0d565b915061114083610b0d565b9250828201905080821115611158576111576110fe565b5b92915050565b5f61116882610b0d565b915061117383610b0d565b925082820390508181111561118b5761118a6110fe565b5b92915050565b5f61119b82610b0d565b91506111a683610b0d565b92508282026111b481610b0d565b915082820484148315176111cb576111ca6110fe565b5b5092915050565b7f4e487b71000000000000000000000000000000000000000000000000000000005f52601260045260245ffd5b5f61120982610b0d565b915061121483610b0d565b925082611224576112236111d2565b5b82820490509291505056fea26469706673582212204231448e4420fe6860464cddb459aadbef4bef0534604e2b30576ffbe0d3a7c764736f6c63430008150033",
					"opcodes": "PUSH1 0x80 PUSH1 0x40 MSTORE CALLVALUE DUP1 ISZERO PUSH3 0x10 JUMPI PUSH0 DUP1 REVERT JUMPDEST POP PUSH1 0x40 MLOAD PUSH3 0x1641 CODESIZE SUB DUP1 PUSH3 0x1641 DUP4 CODECOPY DUP2 DUP2 ADD PUSH1 0x40 MSTORE DUP2 ADD SWAP1 PUSH3 0x36 SWAP2 SWAP1 PUSH3 0x330 JUMP JUMPDEST DUP1 PUSH0 PUSH20 0xFFFFFFFFFFFFFFFFFFFFFFFFFFFFFFFFFFFFFFFF AND DUP2 PUSH20 0xFFFFFFFFFFFFFFFFFFFFFFFFFFFFFFFFFFFFFFFF AND SUB PUSH3 0xAA JUMPI PUSH0 PUSH1 0x40 MLOAD PUSH32 0x1E4FBDF700000000000000000000000000000000000000000000000000000000 DUP2 MSTORE PUSH1 0x4 ADD PUSH3 0xA1 SWAP2 SWAP1 PUSH3 0x386 JUMP JUMPDEST PUSH1 0x40 MLOAD DUP1 SWAP2 SUB SWAP1 REVERT JUMPDEST PUSH3 0xBB DUP2 PUSH3 0x1C8 PUSH1 0x20 SHL PUSH1 0x20 SHR JUMP JUMPDEST POP DUP2 PUSH1 0x1 PUSH0 PUSH2 0x100 EXP DUP2 SLOAD DUP2 PUSH20 0xFFFFFFFFFFFFFFFFFFFFFFFFFFFFFFFFFFFFFFFF MUL NOT AND SWAP1 DUP4 PUSH20 0xFFFFFFFFFFFFFFFFFFFFFFFFFFFFFFFFFFFFFFFF AND MUL OR SWAP1 SSTORE POP PUSH1 0x32 PUSH1 0x3 PUSH0 DUP1 PUSH1 0x2 DUP2 GT ISZERO PUSH3 0x117 JUMPI PUSH3 0x116 PUSH3 0x3A1 JUMP JUMPDEST JUMPDEST PUSH1 0x2 DUP2 GT ISZERO PUSH3 0x12C JUMPI PUSH3 0x12B PUSH3 0x3A1 JUMP JUMPDEST JUMPDEST DUP2 MSTORE PUSH1 0x20 ADD SWAP1 DUP2 MSTORE PUSH1 0x20 ADD PUSH0 KECCAK256 DUP2 SWAP1 SSTORE POP PUSH1 0x19 PUSH1 0x3 PUSH0 PUSH1 0x1 PUSH1 0x2 DUP2 GT ISZERO PUSH3 0x159 JUMPI PUSH3 0x158 PUSH3 0x3A1 JUMP JUMPDEST JUMPDEST PUSH1 0x2 DUP2 GT ISZERO PUSH3 0x16E JUMPI PUSH3 0x16D PUSH3 0x3A1 JUMP JUMPDEST JUMPDEST DUP2 MSTORE PUSH1 0x20 ADD SWAP1 DUP2 MSTORE PUSH1 0x20 ADD PUSH0 KECCAK256 DUP2 SWAP1 SSTORE POP PUSH1 0x19 PUSH1 0x3 PUSH0 PUSH1 0x2 DUP1 DUP2 GT ISZERO PUSH3 0x19A JUMPI PUSH3 0x199 PUSH3 0x3A1 JUMP JUMPDEST JUMPDEST PUSH1 0x2 DUP2 GT ISZERO PUSH3 0x1AF JUMPI PUSH3 0x1AE PUSH3 0x3A1 JUMP JUMPDEST JUMPDEST DUP2 MSTORE PUSH1 0x20 ADD SWAP1 DUP2 MSTORE PUSH1 0x20 ADD PUSH0 KECCAK256 DUP2 SWAP1 SSTORE POP POP POP PUSH3 0x3CE JUMP JUMPDEST PUSH0 DUP1 PUSH0 SWAP1 SLOAD SWAP1 PUSH2 0x100 EXP SWAP1 DIV PUSH20 0xFFFFFFFFFFFFFFFFFFFFFFFFFFFFFFFFFFFFFFFF AND SWAP1 POP DUP2 PUSH0 DUP1 PUSH2 0x100 EXP DUP2 SLOAD DUP2 PUSH20 0xFFFFFFFFFFFFFFFFFFFFFFFFFFFFFFFFFFFFFFFF MUL NOT AND SWAP1 DUP4 PUSH20 0xFFFFFFFFFFFFFFFFFFFFFFFFFFFFFFFFFFFFFFFF AND MUL OR SWAP1 SSTORE POP DUP2 PUSH20 0xFFFFFFFFFFFFFFFFFFFFFFFFFFFFFFFFFFFFFFFF AND DUP2 PUSH20 0xFFFFFFFFFFFFFFFFFFFFFFFFFFFFFFFFFFFFFFFF AND PUSH32 0x8BE0079C531659141344CD1FD0A4F28419497F9722A3DAAFE3B4186F6B6457E0 PUSH1 0x40 MLOAD PUSH1 0x40 MLOAD DUP1 SWAP2 SUB SWAP1 LOG3 POP POP JUMP JUMPDEST PUSH0 DUP1 REVERT JUMPDEST PUSH0 PUSH20 0xFFFFFFFFFFFFFFFFFFFFFFFFFFFFFFFFFFFFFFFF DUP3 AND SWAP1 POP SWAP2 SWAP1 POP JUMP JUMPDEST PUSH0 PUSH3 0x2B8 DUP3 PUSH3 0x28D JUMP JUMPDEST SWAP1 POP SWAP2 SWAP1 POP JUMP JUMPDEST PUSH0 PUSH3 0x2CB DUP3 PUSH3 0x2AC JUMP JUMPDEST SWAP1 POP SWAP2 SWAP1 POP JUMP JUMPDEST PUSH3 0x2DD DUP2 PUSH3 0x2BF JUMP JUMPDEST DUP2 EQ PUSH3 0x2E8 JUMPI PUSH0 DUP1 REVERT JUMPDEST POP JUMP JUMPDEST PUSH0 DUP2 MLOAD SWAP1 POP PUSH3 0x2FB DUP2 PUSH3 0x2D2 JUMP JUMPDEST SWAP3 SWAP2 POP POP JUMP JUMPDEST PUSH3 0x30C DUP2 PUSH3 0x2AC JUMP JUMPDEST DUP2 EQ PUSH3 0x317 JUMPI PUSH0 DUP1 REVERT JUMPDEST POP JUMP JUMPDEST PUSH0 DUP2 MLOAD SWAP1 POP PUSH3 0x32A DUP2 PUSH3 0x301 JUMP JUMPDEST SWAP3 SWAP2 POP POP JUMP JUMPDEST PUSH0 DUP1 PUSH1 0x40 DUP4 DUP6 SUB SLT ISZERO PUSH3 0x349 JUMPI PUSH3 0x348 PUSH3 0x289 JUMP JUMPDEST JUMPDEST PUSH0 PUSH3 0x358 DUP6 DUP3 DUP7 ADD PUSH3 0x2EB JUMP JUMPDEST SWAP3 POP POP PUSH1 0x20 PUSH3 0x36B DUP6 DUP3 DUP7 ADD PUSH3 0x31A JUMP JUMPDEST SWAP2 POP POP SWAP3 POP SWAP3 SWAP1 POP JUMP JUMPDEST PUSH3 0x380 DUP2 PUSH3 0x2AC JUMP JUMPDEST DUP3 MSTORE POP POP JUMP JUMPDEST PUSH0 PUSH1 0x20 DUP3 ADD SWAP1 POP PUSH3 0x39B PUSH0 DUP4 ADD DUP5 PUSH3 0x375 JUMP JUMPDEST SWAP3 SWAP2 POP POP JUMP JUMPDEST PUSH32 0x4E487B7100000000000000000000000000000000000000000000000000000000 PUSH0 MSTORE PUSH1 0x21 PUSH1 0x4 MSTORE PUSH1 0x24 PUSH0 REVERT JUMPDEST PUSH2 0x1265 DUP1 PUSH3 0x3DC PUSH0 CODECOPY PUSH0 RETURN INVALID PUSH1 0x80 PUSH1 0x40 MSTORE CALLVALUE DUP1 ISZERO PUSH2 0xF JUMPI PUSH0 DUP1 REVERT JUMPDEST POP PUSH1 0x4 CALLDATASIZE LT PUSH2 0x9C JUMPI PUSH0 CALLDATALOAD PUSH1 0xE0 SHR DUP1 PUSH4 0x715018A6 GT PUSH2 0x64 JUMPI DUP1 PUSH4 0x715018A6 EQ PUSH2 0x16C JUMPI DUP1 PUSH4 0x8DA5CB5B EQ PUSH2 0x176 JUMPI DUP1 PUSH4 0xDEB36E32 EQ PUSH2 0x194 JUMPI DUP1 PUSH4 0xF2FDE38B EQ PUSH2 0x19E JUMPI DUP1 PUSH4 0xFC0C546A EQ PUSH2 0x1BA JUMPI PUSH2 0x9C JUMP JUMPDEST DUP1 PUSH4 0x1BCF8D63 EQ PUSH2 0xA0 JUMPI DUP1 PUSH4 0x32F043AC EQ PUSH2 0xD4 JUMPI DUP1 PUSH4 0x4445358B EQ PUSH2 0x104 JUMPI DUP1 PUSH4 0x5C160F66 EQ PUSH2 0x134 JUMPI DUP1 PUSH4 0x5F118704 EQ PUSH2 0x150 JUMPI JUMPDEST PUSH0 DUP1 REVERT JUMPDEST PUSH2 0xBA PUSH1 0x4 DUP1 CALLDATASIZE SUB DUP2 ADD SWAP1 PUSH2 0xB5 SWAP2 SWAP1 PUSH2 0xACF JUMP JUMPDEST PUSH2 0x1D8 JUMP JUMPDEST PUSH1 0x40 MLOAD PUSH2 0xCB SWAP6 SWAP5 SWAP4 SWAP3 SWAP2 SWAP1 PUSH2 0xB25 JUMP JUMPDEST PUSH1 0x40 MLOAD DUP1 SWAP2 SUB SWAP1 RETURN JUMPDEST PUSH2 0xEE PUSH1 0x4 DUP1 CALLDATASIZE SUB DUP2 ADD SWAP1 PUSH2 0xE9 SWAP2 SWAP1 PUSH2 0xB76 JUMP JUMPDEST PUSH2 0x215 JUMP JUMPDEST PUSH1 0x40 MLOAD PUSH2 0xFB SWAP2 SWAP1 PUSH2 0xBA1 JUMP JUMPDEST PUSH1 0x40 MLOAD DUP1 SWAP2 SUB SWAP1 RETURN JUMPDEST PUSH2 0x11E PUSH1 0x4 DUP1 CALLDATASIZE SUB DUP2 ADD SWAP1 PUSH2 0x119 SWAP2 SWAP1 PUSH2 0xCF9 JUMP JUMPDEST PUSH2 0x22A JUMP JUMPDEST PUSH1 0x40 MLOAD PUSH2 0x12B SWAP2 SWAP1 PUSH2 0xBA1 JUMP JUMPDEST PUSH1 0x40 MLOAD DUP1 SWAP2 SUB SWAP1 RETURN JUMPDEST PUSH2 0x14E PUSH1 0x4 DUP1 CALLDATASIZE SUB DUP2 ADD SWAP1 PUSH2 0x149 SWAP2 SWAP1 PUSH2 0xD24 JUMP JUMPDEST PUSH2 0x2D6 JUMP JUMPDEST STOP JUMPDEST PUSH2 0x16A PUSH1 0x4 DUP1 CALLDATASIZE SUB DUP2 ADD SWAP1 PUSH2 0x165 SWAP2 SWAP1 PUSH2 0xB76 JUMP JUMPDEST PUSH2 0x526 JUMP JUMPDEST STOP JUMPDEST PUSH2 0x174 PUSH2 0x77E JUMP JUMPDEST STOP JUMPDEST PUSH2 0x17E PUSH2 0x791 JUMP JUMPDEST PUSH1 0x40 MLOAD PUSH2 0x18B SWAP2 SWAP1 PUSH2 0xD83 JUMP JUMPDEST PUSH1 0x40 MLOAD DUP1 SWAP2 SUB SWAP1 RETURN JUMPDEST PUSH2 0x19C PUSH2 0x7B8 JUMP JUMPDEST STOP JUMPDEST PUSH2 0x1B8 PUSH1 0x4 DUP1 CALLDATASIZE SUB DUP2 ADD SWAP1 PUSH2 0x1B3 SWAP2 SWAP1 PUSH2 0xD9C JUMP JUMPDEST PUSH2 0x7F9 JUMP JUMPDEST STOP JUMPDEST PUSH2 0x1C2 PUSH2 0x87D JUMP JUMPDEST PUSH1 0x40 MLOAD PUSH2 0x1CF SWAP2 SWAP1 PUSH2 0xE22 JUMP JUMPDEST PUSH1 0x40 MLOAD DUP1 SWAP2 SUB SWAP1 RETURN JUMPDEST PUSH1 0x2 PUSH1 0x20 MSTORE DUP2 PUSH0 MSTORE PUSH1 0x40 PUSH0 KECCAK256 PUSH1 0x20 MSTORE DUP1 PUSH0 MSTORE PUSH1 0x40 PUSH0 KECCAK256 PUSH0 SWAP2 POP SWAP2 POP POP DUP1 PUSH0 ADD SLOAD SWAP1 DUP1 PUSH1 0x1 ADD SLOAD SWAP1 DUP1 PUSH1 0x2 ADD SLOAD SWAP1 DUP1 PUSH1 0x3 ADD SLOAD SWAP1 DUP1 PUSH1 0x4 ADD SLOAD SWAP1 POP DUP6 JUMP JUMPDEST PUSH1 0x3 PUSH1 0x20 MSTORE DUP1 PUSH0 MSTORE PUSH1 0x40 PUSH0 KECCAK256 PUSH0 SWAP2 POP SWAP1 POP SLOAD DUP2 JUMP JUMPDEST PUSH0 PUSH2 0x245 DUP3 PUSH0 ADD MLOAD DUP4 PUSH1 0x40 ADD MLOAD PUSH2 0x8A2 SWAP1 SWAP2 SWAP1 PUSH4 0xFFFFFFFF AND JUMP JUMPDEST TIMESTAMP LT ISZERO PUSH2 0x254 JUMPI PUSH0 SWAP1 POP PUSH2 0x2D1 JUMP JUMPDEST PUSH2 0x26F DUP3 PUSH1 0x20 ADD MLOAD DUP4 PUSH1 0x40 ADD MLOAD PUSH2 0x8A2 SWAP1 SWAP2 SWAP1 PUSH4 0xFFFFFFFF AND JUMP JUMPDEST TIMESTAMP LT PUSH2 0x281 JUMPI DUP2 PUSH1 0x60 ADD MLOAD SWAP1 POP PUSH2 0x2D1 JUMP JUMPDEST PUSH0 PUSH2 0x299 DUP4 PUSH1 0x40 ADD MLOAD TIMESTAMP PUSH2 0x8B7 SWAP1 SWAP2 SWAP1 PUSH4 0xFFFFFFFF AND JUMP JUMPDEST SWAP1 POP PUSH0 PUSH2 0x2C9 DUP5 PUSH1 0x20 ADD MLOAD PUSH2 0x2BB DUP5 DUP8 PUSH1 0x60 ADD MLOAD PUSH2 0x8CC SWAP1 SWAP2 SWAP1 PUSH4 0xFFFFFFFF AND JUMP JUMPDEST PUSH2 0x8E1 SWAP1 SWAP2 SWAP1 PUSH4 0xFFFFFFFF AND JUMP JUMPDEST SWAP1 POP DUP1 SWAP3 POP POP POP JUMPDEST SWAP2 SWAP1 POP JUMP JUMPDEST PUSH2 0x2DE PUSH2 0x8F6 JUMP JUMPDEST PUSH0 PUSH1 0x2 PUSH0 DUP6 PUSH20 0xFFFFFFFFFFFFFFFFFFFFFFFFFFFFFFFFFFFFFFFF AND PUSH20 0xFFFFFFFFFFFFFFFFFFFFFFFFFFFFFFFFFFFFFFFF AND DUP2 MSTORE PUSH1 0x20 ADD SWAP1 DUP2 MSTORE PUSH1 0x20 ADD PUSH0 KECCAK256 PUSH0 DUP5 PUSH1 0x2 DUP2 GT ISZERO PUSH2 0x330 JUMPI PUSH2 0x32F PUSH2 0xE3B JUMP JUMPDEST JUMPDEST PUSH1 0x2 DUP2 GT ISZERO PUSH2 0x342 JUMPI PUSH2 0x341 PUSH2 0xE3B JUMP JUMPDEST JUMPDEST DUP2 MSTORE PUSH1 0x20 ADD SWAP1 DUP2 MSTORE PUSH1 0x20 ADD PUSH0 KECCAK256 PUSH1 0x3 ADD SLOAD EQ PUSH2 0x393 JUMPI PUSH1 0x40 MLOAD PUSH32 0x8C379A000000000000000000000000000000000000000000000000000000000 DUP2 MSTORE PUSH1 0x4 ADD PUSH2 0x38A SWAP1 PUSH2 0xEE8 JUMP JUMPDEST PUSH1 0x40 MLOAD DUP1 SWAP2 SUB SWAP1 REVERT JUMPDEST PUSH0 DUP1 PUSH1 0x2 DUP2 GT ISZERO PUSH2 0x3A7 JUMPI PUSH2 0x3A6 PUSH2 0xE3B JUMP JUMPDEST JUMPDEST DUP4 PUSH1 0x2 DUP2 GT ISZERO PUSH2 0x3BA JUMPI PUSH2 0x3B9 PUSH2 0xE3B JUMP JUMPDEST JUMPDEST EQ PUSH2 0x3C8 JUMPI PUSH3 0x4F1A00 PUSH2 0x3CE JUMP JUMPDEST PUSH4 0x18B8200 JUMPDEST PUSH4 0xFFFFFFFF AND SWAP1 POP PUSH0 DUP1 PUSH1 0x2 DUP2 GT ISZERO PUSH2 0x3EA JUMPI PUSH2 0x3E9 PUSH2 0xE3B JUMP JUMPDEST JUMPDEST DUP5 PUSH1 0x2 DUP2 GT ISZERO PUSH2 0x3FD JUMPI PUSH2 0x3FC PUSH2 0xE3B JUMP JUMPDEST JUMPDEST EQ PUSH2 0x40C JUMPI PUSH4 0x1E13380 PUSH2 0x412 JUMP JUMPDEST PUSH4 0x3C26700 JUMPDEST PUSH4 0xFFFFFFFF AND SWAP1 POP PUSH1 0x40 MLOAD DUP1 PUSH1 0xA0 ADD PUSH1 0x40 MSTORE DUP1 DUP4 DUP2 MSTORE PUSH1 0x20 ADD DUP3 DUP2 MSTORE PUSH1 0x20 ADD TIMESTAMP DUP2 MSTORE PUSH1 0x20 ADD DUP5 DUP2 MSTORE PUSH1 0x20 ADD PUSH0 DUP2 MSTORE POP PUSH1 0x2 PUSH0 DUP8 PUSH20 0xFFFFFFFFFFFFFFFFFFFFFFFFFFFFFFFFFFFFFFFF AND PUSH20 0xFFFFFFFFFFFFFFFFFFFFFFFFFFFFFFFFFFFFFFFF AND DUP2 MSTORE PUSH1 0x20 ADD SWAP1 DUP2 MSTORE PUSH1 0x20 ADD PUSH0 KECCAK256 PUSH0 DUP7 PUSH1 0x2 DUP2 GT ISZERO PUSH2 0x492 JUMPI PUSH2 0x491 PUSH2 0xE3B JUMP JUMPDEST JUMPDEST PUSH1 0x2 DUP2 GT ISZERO PUSH2 0x4A4 JUMPI PUSH2 0x4A3 PUSH2 0xE3B JUMP JUMPDEST JUMPDEST DUP2 MSTORE PUSH1 0x20 ADD SWAP1 DUP2 MSTORE PUSH1 0x20 ADD PUSH0 KECCAK256 PUSH0 DUP3 ADD MLOAD DUP2 PUSH0 ADD SSTORE PUSH1 0x20 DUP3 ADD MLOAD DUP2 PUSH1 0x1 ADD SSTORE PUSH1 0x40 DUP3 ADD MLOAD DUP2 PUSH1 0x2 ADD SSTORE PUSH1 0x60 DUP3 ADD MLOAD DUP2 PUSH1 0x3 ADD SSTORE PUSH1 0x80 DUP3 ADD MLOAD DUP2 PUSH1 0x4 ADD SSTORE SWAP1 POP POP PUSH32 0xC8F4BE38CE4EE78FA6B536837E37B8AF78B810208AAD8CCC7B0331F46A3CDA22 DUP6 DUP6 DUP6 PUSH1 0x40 MLOAD PUSH2 0x517 SWAP4 SWAP3 SWAP2 SWAP1 PUSH2 0xF4C JUMP JUMPDEST PUSH1 0x40 MLOAD DUP1 SWAP2 SUB SWAP1 LOG1 POP POP POP POP POP JUMP JUMPDEST PUSH0 PUSH1 0x2 PUSH0 CALLER PUSH20 0xFFFFFFFFFFFFFFFFFFFFFFFFFFFFFFFFFFFFFFFF AND PUSH20 0xFFFFFFFFFFFFFFFFFFFFFFFFFFFFFFFFFFFFFFFF AND DUP2 MSTORE PUSH1 0x20 ADD SWAP1 DUP2 MSTORE PUSH1 0x20 ADD PUSH0 KECCAK256 PUSH0 DUP4 PUSH1 0x2 DUP2 GT ISZERO PUSH2 0x578 JUMPI PUSH2 0x577 PUSH2 0xE3B JUMP JUMPDEST JUMPDEST PUSH1 0x2 DUP2 GT ISZERO PUSH2 0x58A JUMPI PUSH2 0x589 PUSH2 0xE3B JUMP JUMPDEST JUMPDEST DUP2 MSTORE PUSH1 0x20 ADD SWAP1 DUP2 MSTORE PUSH1 0x20 ADD PUSH0 KECCAK256 SWAP1 POP PUSH0 DUP2 PUSH1 0x3 ADD SLOAD GT PUSH2 0x5DF JUMPI PUSH1 0x40 MLOAD PUSH32 0x8C379A000000000000000000000000000000000000000000000000000000000 DUP2 MSTORE PUSH1 0x4 ADD PUSH2 0x5D6 SWAP1 PUSH2 0xFF1 JUMP JUMPDEST PUSH1 0x40 MLOAD DUP1 SWAP2 SUB SWAP1 REVERT JUMPDEST PUSH0 PUSH2 0x625 DUP3 PUSH1 0x40 MLOAD DUP1 PUSH1 0xA0 ADD PUSH1 0x40 MSTORE SWAP1 DUP2 PUSH0 DUP3 ADD SLOAD DUP2 MSTORE PUSH1 0x20 ADD PUSH1 0x1 DUP3 ADD SLOAD DUP2 MSTORE PUSH1 0x20 ADD PUSH1 0x2 DUP3 ADD SLOAD DUP2 MSTORE PUSH1 0x20 ADD PUSH1 0x3 DUP3 ADD SLOAD DUP2 MSTORE PUSH1 0x20 ADD PUSH1 0x4 DUP3 ADD SLOAD DUP2 MSTORE POP POP PUSH2 0x22A JUMP JUMPDEST SWAP1 POP PUSH0 PUSH2 0x63F DUP4 PUSH1 0x4 ADD SLOAD DUP4 PUSH2 0x8B7 SWAP1 SWAP2 SWAP1 PUSH4 0xFFFFFFFF AND JUMP JUMPDEST SWAP1 POP PUSH0 DUP2 GT PUSH2 0x683 JUMPI PUSH1 0x40 MLOAD PUSH32 0x8C379A000000000000000000000000000000000000000000000000000000000 DUP2 MSTORE PUSH1 0x4 ADD PUSH2 0x67A SWAP1 PUSH2 0x1059 JUMP JUMPDEST PUSH1 0x40 MLOAD DUP1 SWAP2 SUB SWAP1 REVERT JUMPDEST PUSH2 0x69A DUP2 DUP5 PUSH1 0x4 ADD SLOAD PUSH2 0x8A2 SWAP1 SWAP2 SWAP1 PUSH4 0xFFFFFFFF AND JUMP JUMPDEST DUP4 PUSH1 0x4 ADD DUP2 SWAP1 SSTORE POP PUSH1 0x1 PUSH0 SWAP1 SLOAD SWAP1 PUSH2 0x100 EXP SWAP1 DIV PUSH20 0xFFFFFFFFFFFFFFFFFFFFFFFFFFFFFFFFFFFFFFFF AND PUSH20 0xFFFFFFFFFFFFFFFFFFFFFFFFFFFFFFFFFFFFFFFF AND PUSH4 0xA9059CBB CALLER DUP4 PUSH1 0x40 MLOAD DUP4 PUSH4 0xFFFFFFFF AND PUSH1 0xE0 SHL DUP2 MSTORE PUSH1 0x4 ADD PUSH2 0x6FE SWAP3 SWAP2 SWAP1 PUSH2 0x1077 JUMP JUMPDEST PUSH1 0x20 PUSH1 0x40 MLOAD DUP1 DUP4 SUB DUP2 PUSH0 DUP8 GAS CALL ISZERO DUP1 ISZERO PUSH2 0x71A JUMPI RETURNDATASIZE PUSH0 DUP1 RETURNDATACOPY RETURNDATASIZE PUSH0 REVERT JUMPDEST POP POP POP POP PUSH1 0x40 MLOAD RETURNDATASIZE PUSH1 0x1F NOT PUSH1 0x1F DUP3 ADD AND DUP3 ADD DUP1 PUSH1 0x40 MSTORE POP DUP2 ADD SWAP1 PUSH2 0x73E SWAP2 SWAP1 PUSH2 0x10D3 JUMP JUMPDEST POP PUSH32 0x6352C5382C4A4578E712449CA65E83CDB392D045DFCF1CAD9615189DB2DA244B CALLER DUP3 PUSH1 0x40 MLOAD PUSH2 0x770 SWAP3 SWAP2 SWAP1 PUSH2 0x1077 JUMP JUMPDEST PUSH1 0x40 MLOAD DUP1 SWAP2 SUB SWAP1 LOG1 POP POP POP POP JUMP JUMPDEST PUSH2 0x786 PUSH2 0x8F6 JUMP JUMPDEST PUSH2 0x78F PUSH0 PUSH2 0x97D JUMP JUMPDEST JUMP JUMPDEST PUSH0 DUP1 PUSH0 SWAP1 SLOAD SWAP1 PUSH2 0x100 EXP SWAP1 DIV PUSH20 0xFFFFFFFFFFFFFFFFFFFFFFFFFFFFFFFFFFFFFFFF AND SWAP1 POP SWAP1 JUMP JUMPDEST PUSH2 0x7C0 PUSH2 0x8F6 JUMP JUMPDEST PUSH32 0x3930F04857BA592BA0A6A96942F8350C2415C0A4AA849021AEEFEE98BB55B122 TIMESTAMP PUSH1 0x40 MLOAD PUSH2 0x7EF SWAP2 SWAP1 PUSH2 0xBA1 JUMP JUMPDEST PUSH1 0x40 MLOAD DUP1 SWAP2 SUB SWAP1 LOG1 JUMP JUMPDEST PUSH2 0x801 PUSH2 0x8F6 JUMP JUMPDEST PUSH0 PUSH20 0xFFFFFFFFFFFFFFFFFFFFFFFFFFFFFFFFFFFFFFFF AND DUP2 PUSH20 0xFFFFFFFFFFFFFFFFFFFFFFFFFFFFFFFFFFFFFFFF AND SUB PUSH2 0x871 JUMPI PUSH0 PUSH1 0x40 MLOAD PUSH32 0x1E4FBDF700000000000000000000000000000000000000000000000000000000 DUP2 MSTORE PUSH1 0x4 ADD PUSH2 0x868 SWAP2 SWAP1 PUSH2 0xD83 JUMP JUMPDEST PUSH1 0x40 MLOAD DUP1 SWAP2 SUB SWAP1 REVERT JUMPDEST PUSH2 0x87A DUP2 PUSH2 0x97D JUMP JUMPDEST POP JUMP JUMPDEST PUSH1 0x1 PUSH0 SWAP1 SLOAD SWAP1 PUSH2 0x100 EXP SWAP1 DIV PUSH20 0xFFFFFFFFFFFFFFFFFFFFFFFFFFFFFFFFFFFFFFFF AND DUP2 JUMP JUMPDEST PUSH0 DUP2 DUP4 PUSH2 0x8AF SWAP2 SWAP1 PUSH2 0x112B JUMP JUMPDEST SWAP1 POP SWAP3 SWAP2 POP POP JUMP JUMPDEST PUSH0 DUP2 DUP4 PUSH2 0x8C4 SWAP2 SWAP1 PUSH2 0x115E JUMP JUMPDEST SWAP1 POP SWAP3 SWAP2 POP POP JUMP JUMPDEST PUSH0 DUP2 DUP4 PUSH2 0x8D9 SWAP2 SWAP1 PUSH2 0x1191 JUMP JUMPDEST SWAP1 POP SWAP3 SWAP2 POP POP JUMP JUMPDEST PUSH0 DUP2 DUP4 PUSH2 0x8EE SWAP2 SWAP1 PUSH2 0x11FF JUMP JUMPDEST SWAP1 POP SWAP3 SWAP2 POP POP JUMP JUMPDEST PUSH2 0x8FE PUSH2 0xA3E JUMP JUMPDEST PUSH20 0xFFFFFFFFFFFFFFFFFFFFFFFFFFFFFFFFFFFFFFFF AND PUSH2 0x91C PUSH2 0x791 JUMP JUMPDEST PUSH20 0xFFFFFFFFFFFFFFFFFFFFFFFFFFFFFFFFFFFFFFFF AND EQ PUSH2 0x97B JUMPI PUSH2 0x93F PUSH2 0xA3E JUMP JUMPDEST PUSH1 0x40 MLOAD PUSH32 0x118CDAA700000000000000000000000000000000000000000000000000000000 DUP2 MSTORE PUSH1 0x4 ADD PUSH2 0x972 SWAP2 SWAP1 PUSH2 0xD83 JUMP JUMPDEST PUSH1 0x40 MLOAD DUP1 SWAP2 SUB SWAP1 REVERT JUMPDEST JUMP JUMPDEST PUSH0 DUP1 PUSH0 SWAP1 SLOAD SWAP1 PUSH2 0x100 EXP SWAP1 DIV PUSH20 0xFFFFFFFFFFFFFFFFFFFFFFFFFFFFFFFFFFFFFFFF AND SWAP1 POP DUP2 PUSH0 DUP1 PUSH2 0x100 EXP DUP2 SLOAD DUP2 PUSH20 0xFFFFFFFFFFFFFFFFFFFFFFFFFFFFFFFFFFFFFFFF MUL NOT AND SWAP1 DUP4 PUSH20 0xFFFFFFFFFFFFFFFFFFFFFFFFFFFFFFFFFFFFFFFF AND MUL OR SWAP1 SSTORE POP DUP2 PUSH20 0xFFFFFFFFFFFFFFFFFFFFFFFFFFFFFFFFFFFFFFFF AND DUP2 PUSH20 0xFFFFFFFFFFFFFFFFFFFFFFFFFFFFFFFFFFFFFFFF AND PUSH32 0x8BE0079C531659141344CD1FD0A4F28419497F9722A3DAAFE3B4186F6B6457E0 PUSH1 0x40 MLOAD PUSH1 0x40 MLOAD DUP1 SWAP2 SUB SWAP1 LOG3 POP POP JUMP JUMPDEST PUSH0 CALLER SWAP1 POP SWAP1 JUMP JUMPDEST PUSH0 PUSH1 0x40 MLOAD SWAP1 POP SWAP1 JUMP JUMPDEST PUSH0 DUP1 REVERT JUMPDEST PUSH0 PUSH20 0xFFFFFFFFFFFFFFFFFFFFFFFFFFFFFFFFFFFFFFFF DUP3 AND SWAP1 POP SWAP2 SWAP1 POP JUMP JUMPDEST PUSH0 PUSH2 0xA7B DUP3 PUSH2 0xA52 JUMP JUMPDEST SWAP1 POP SWAP2 SWAP1 POP JUMP JUMPDEST PUSH2 0xA8B DUP2 PUSH2 0xA71 JUMP JUMPDEST DUP2 EQ PUSH2 0xA95 JUMPI PUSH0 DUP1 REVERT JUMPDEST POP JUMP JUMPDEST PUSH0 DUP2 CALLDATALOAD SWAP1 POP PUSH2 0xAA6 DUP2 PUSH2 0xA82 JUMP JUMPDEST SWAP3 SWAP2 POP POP JUMP JUMPDEST PUSH1 0x3 DUP2 LT PUSH2 0xAB8 JUMPI PUSH0 DUP1 REVERT JUMPDEST POP JUMP JUMPDEST PUSH0 DUP2 CALLDATALOAD SWAP1 POP PUSH2 0xAC9 DUP2 PUSH2 0xAAC JUMP JUMPDEST SWAP3 SWAP2 POP POP JUMP JUMPDEST PUSH0 DUP1 PUSH1 0x40 DUP4 DUP6 SUB SLT ISZERO PUSH2 0xAE5 JUMPI PUSH2 0xAE4 PUSH2 0xA4E JUMP JUMPDEST JUMPDEST PUSH0 PUSH2 0xAF2 DUP6 DUP3 DUP7 ADD PUSH2 0xA98 JUMP JUMPDEST SWAP3 POP POP PUSH1 0x20 PUSH2 0xB03 DUP6 DUP3 DUP7 ADD PUSH2 0xABB JUMP JUMPDEST SWAP2 POP POP SWAP3 POP SWAP3 SWAP1 POP JUMP JUMPDEST PUSH0 DUP2 SWAP1 POP SWAP2 SWAP1 POP JUMP JUMPDEST PUSH2 0xB1F DUP2 PUSH2 0xB0D JUMP JUMPDEST DUP3 MSTORE POP POP JUMP JUMPDEST PUSH0 PUSH1 0xA0 DUP3 ADD SWAP1 POP PUSH2 0xB38 PUSH0 DUP4 ADD DUP9 PUSH2 0xB16 JUMP JUMPDEST PUSH2 0xB45 PUSH1 0x20 DUP4 ADD DUP8 PUSH2 0xB16 JUMP JUMPDEST PUSH2 0xB52 PUSH1 0x40 DUP4 ADD DUP7 PUSH2 0xB16 JUMP JUMPDEST PUSH2 0xB5F PUSH1 0x60 DUP4 ADD DUP6 PUSH2 0xB16 JUMP JUMPDEST PUSH2 0xB6C PUSH1 0x80 DUP4 ADD DUP5 PUSH2 0xB16 JUMP JUMPDEST SWAP7 SWAP6 POP POP POP POP POP POP JUMP JUMPDEST PUSH0 PUSH1 0x20 DUP3 DUP5 SUB SLT ISZERO PUSH2 0xB8B JUMPI PUSH2 0xB8A PUSH2 0xA4E JUMP JUMPDEST JUMPDEST PUSH0 PUSH2 0xB98 DUP5 DUP3 DUP6 ADD PUSH2 0xABB JUMP JUMPDEST SWAP2 POP POP SWAP3 SWAP2 POP POP JUMP JUMPDEST PUSH0 PUSH1 0x20 DUP3 ADD SWAP1 POP PUSH2 0xBB4 PUSH0 DUP4 ADD DUP5 PUSH2 0xB16 JUMP JUMPDEST SWAP3 SWAP2 POP POP JUMP JUMPDEST PUSH0 DUP1 REVERT JUMPDEST PUSH0 PUSH1 0x1F NOT PUSH1 0x1F DUP4 ADD AND SWAP1 POP SWAP2 SWAP1 POP JUMP JUMPDEST PUSH32 0x4E487B7100000000000000000000000000000000000000000000000000000000 PUSH0 MSTORE PUSH1 0x41 PUSH1 0x4 MSTORE PUSH1 0x24 PUSH0 REVERT JUMPDEST PUSH2 0xC04 DUP3 PUSH2 0xBBE JUMP JUMPDEST DUP2 ADD DUP2 DUP2 LT PUSH8 0xFFFFFFFFFFFFFFFF DUP3 GT OR ISZERO PUSH2 0xC23 JUMPI PUSH2 0xC22 PUSH2 0xBCE JUMP JUMPDEST JUMPDEST DUP1 PUSH1 0x40 MSTORE POP POP POP JUMP JUMPDEST PUSH0 PUSH2 0xC35 PUSH2 0xA45 JUMP JUMPDEST SWAP1 POP PUSH2 0xC41 DUP3 DUP3 PUSH2 0xBFB JUMP JUMPDEST SWAP2 SWAP1 POP JUMP JUMPDEST PUSH2 0xC4F DUP2 PUSH2 0xB0D JUMP JUMPDEST DUP2 EQ PUSH2 0xC59 JUMPI PUSH0 DUP1 REVERT JUMPDEST POP JUMP JUMPDEST PUSH0 DUP2 CALLDATALOAD SWAP1 POP PUSH2 0xC6A DUP2 PUSH2 0xC46 JUMP JUMPDEST SWAP3 SWAP2 POP POP JUMP JUMPDEST PUSH0 PUSH1 0xA0 DUP3 DUP5 SUB SLT ISZERO PUSH2 0xC85 JUMPI PUSH2 0xC84 PUSH2 0xBBA JUMP JUMPDEST JUMPDEST PUSH2 0xC8F PUSH1 0xA0 PUSH2 0xC2C JUMP JUMPDEST SWAP1 POP PUSH0 PUSH2 0xC9E DUP5 DUP3 DUP6 ADD PUSH2 0xC5C JUMP JUMPDEST PUSH0 DUP4 ADD MSTORE POP PUSH1 0x20 PUSH2 0xCB1 DUP5 DUP3 DUP6 ADD PUSH2 0xC5C JUMP JUMPDEST PUSH1 0x20 DUP4 ADD MSTORE POP PUSH1 0x40 PUSH2 0xCC5 DUP5 DUP3 DUP6 ADD PUSH2 0xC5C JUMP JUMPDEST PUSH1 0x40 DUP4 ADD MSTORE POP PUSH1 0x60 PUSH2 0xCD9 DUP5 DUP3 DUP6 ADD PUSH2 0xC5C JUMP JUMPDEST PUSH1 0x60 DUP4 ADD MSTORE POP PUSH1 0x80 PUSH2 0xCED DUP5 DUP3 DUP6 ADD PUSH2 0xC5C JUMP JUMPDEST PUSH1 0x80 DUP4 ADD MSTORE POP SWAP3 SWAP2 POP POP JUMP JUMPDEST PUSH0 PUSH1 0xA0 DUP3 DUP5 SUB SLT ISZERO PUSH2 0xD0E JUMPI PUSH2 0xD0D PUSH2 0xA4E JUMP JUMPDEST JUMPDEST PUSH0 PUSH2 0xD1B DUP5 DUP3 DUP6 ADD PUSH2 0xC70 JUMP JUMPDEST SWAP2 POP POP SWAP3 SWAP2 POP POP JUMP JUMPDEST PUSH0 DUP1 PUSH0 PUSH1 0x60 DUP5 DUP7 SUB SLT ISZERO PUSH2 0xD3B JUMPI PUSH2 0xD3A PUSH2 0xA4E JUMP JUMPDEST JUMPDEST PUSH0 PUSH2 0xD48 DUP7 DUP3 DUP8 ADD PUSH2 0xA98 JUMP JUMPDEST SWAP4 POP POP PUSH1 0x20 PUSH2 0xD59 DUP7 DUP3 DUP8 ADD PUSH2 0xABB JUMP JUMPDEST SWAP3 POP POP PUSH1 0x40 PUSH2 0xD6A DUP7 DUP3 DUP8 ADD PUSH2 0xC5C JUMP JUMPDEST SWAP2 POP POP SWAP3 POP SWAP3 POP SWAP3 JUMP JUMPDEST PUSH2 0xD7D DUP2 PUSH2 0xA71 JUMP JUMPDEST DUP3 MSTORE POP POP JUMP JUMPDEST PUSH0 PUSH1 0x20 DUP3 ADD SWAP1 POP PUSH2 0xD96 PUSH0 DUP4 ADD DUP5 PUSH2 0xD74 JUMP JUMPDEST SWAP3 SWAP2 POP POP JUMP JUMPDEST PUSH0 PUSH1 0x20 DUP3 DUP5 SUB SLT ISZERO PUSH2 0xDB1 JUMPI PUSH2 0xDB0 PUSH2 0xA4E JUMP JUMPDEST JUMPDEST PUSH0 PUSH2 0xDBE DUP5 DUP3 DUP6 ADD PUSH2 0xA98 JUMP JUMPDEST SWAP2 POP POP SWAP3 SWAP2 POP POP JUMP JUMPDEST PUSH0 DUP2 SWAP1 POP SWAP2 SWAP1 POP JUMP JUMPDEST PUSH0 PUSH2 0xDEA PUSH2 0xDE5 PUSH2 0xDE0 DUP5 PUSH2 0xA52 JUMP JUMPDEST PUSH2 0xDC7 JUMP JUMPDEST PUSH2 0xA52 JUMP JUMPDEST SWAP1 POP SWAP2 SWAP1 POP JUMP JUMPDEST PUSH0 PUSH2 0xDFB DUP3 PUSH2 0xDD0 JUMP JUMPDEST SWAP1 POP SWAP2 SWAP1 POP JUMP JUMPDEST PUSH0 PUSH2 0xE0C DUP3 PUSH2 0xDF1 JUMP JUMPDEST SWAP1 POP SWAP2 SWAP1 POP JUMP JUMPDEST PUSH2 0xE1C DUP2 PUSH2 0xE02 JUMP JUMPDEST DUP3 MSTORE POP POP JUMP JUMPDEST PUSH0 PUSH1 0x20 DUP3 ADD SWAP1 POP PUSH2 0xE35 PUSH0 DUP4 ADD DUP5 PUSH2 0xE13 JUMP JUMPDEST SWAP3 SWAP2 POP POP JUMP JUMPDEST PUSH32 0x4E487B7100000000000000000000000000000000000000000000000000000000 PUSH0 MSTORE PUSH1 0x21 PUSH1 0x4 MSTORE PUSH1 0x24 PUSH0 REVERT JUMPDEST PUSH0 DUP3 DUP3 MSTORE PUSH1 0x20 DUP3 ADD SWAP1 POP SWAP3 SWAP2 POP POP JUMP JUMPDEST PUSH32 0x42656E656669636961727920616C726561647920616464656420666F72207468 PUSH0 DUP3 ADD MSTORE PUSH32 0x697320726F6C6500000000000000000000000000000000000000000000000000 PUSH1 0x20 DUP3 ADD MSTORE POP JUMP JUMPDEST PUSH0 PUSH2 0xED2 PUSH1 0x27 DUP4 PUSH2 0xE68 JUMP JUMPDEST SWAP2 POP PUSH2 0xEDD DUP3 PUSH2 0xE78 JUMP JUMPDEST PUSH1 0x40 DUP3 ADD SWAP1 POP SWAP2 SWAP1 POP JUMP JUMPDEST PUSH0 PUSH1 0x20 DUP3 ADD SWAP1 POP DUP2 DUP2 SUB PUSH0 DUP4 ADD MSTORE PUSH2 0xEFF DUP2 PUSH2 0xEC6 JUMP JUMPDEST SWAP1 POP SWAP2 SWAP1 POP JUMP JUMPDEST PUSH1 0x3 DUP2 LT PUSH2 0xF17 JUMPI PUSH2 0xF16 PUSH2 0xE3B JUMP JUMPDEST JUMPDEST POP JUMP JUMPDEST PUSH0 DUP2 SWAP1 POP PUSH2 0xF27 DUP3 PUSH2 0xF06 JUMP JUMPDEST SWAP2 SWAP1 POP JUMP JUMPDEST PUSH0 PUSH2 0xF36 DUP3 PUSH2 0xF1A JUMP JUMPDEST SWAP1 POP SWAP2 SWAP1 POP JUMP JUMPDEST PUSH2 0xF46 DUP2 PUSH2 0xF2C JUMP JUMPDEST DUP3 MSTORE POP POP JUMP JUMPDEST PUSH0 PUSH1 0x60 DUP3 ADD SWAP1 POP PUSH2 0xF5F PUSH0 DUP4 ADD DUP7 PUSH2 0xD74 JUMP JUMPDEST PUSH2 0xF6C PUSH1 0x20 DUP4 ADD DUP6 PUSH2 0xF3D JUMP JUMPDEST PUSH2 0xF79 PUSH1 0x40 DUP4 ADD DUP5 PUSH2 0xB16 JUMP JUMPDEST SWAP5 SWAP4 POP POP POP POP JUMP JUMPDEST PUSH32 0x4E6F2076657374696E67207363686564756C6520666F72207468697320726F6C PUSH0 DUP3 ADD MSTORE PUSH32 0x6500000000000000000000000000000000000000000000000000000000000000 PUSH1 0x20 DUP3 ADD MSTORE POP JUMP JUMPDEST PUSH0 PUSH2 0xFDB PUSH1 0x21 DUP4 PUSH2 0xE68 JUMP JUMPDEST SWAP2 POP PUSH2 0xFE6 DUP3 PUSH2 0xF81 JUMP JUMPDEST PUSH1 0x40 DUP3 ADD SWAP1 POP SWAP2 SWAP1 POP JUMP JUMPDEST PUSH0 PUSH1 0x20 DUP3 ADD SWAP1 POP DUP2 DUP2 SUB PUSH0 DUP4 ADD MSTORE PUSH2 0x1008 DUP2 PUSH2 0xFCF JUMP JUMPDEST SWAP1 POP SWAP2 SWAP1 POP JUMP JUMPDEST PUSH32 0x4E6F20746F6B656E7320746F2072656C65617365000000000000000000000000 PUSH0 DUP3 ADD MSTORE POP JUMP JUMPDEST PUSH0 PUSH2 0x1043 PUSH1 0x14 DUP4 PUSH2 0xE68 JUMP JUMPDEST SWAP2 POP PUSH2 0x104E DUP3 PUSH2 0x100F JUMP JUMPDEST PUSH1 0x20 DUP3 ADD SWAP1 POP SWAP2 SWAP1 POP JUMP JUMPDEST PUSH0 PUSH1 0x20 DUP3 ADD SWAP1 POP DUP2 DUP2 SUB PUSH0 DUP4 ADD MSTORE PUSH2 0x1070 DUP2 PUSH2 0x1037 JUMP JUMPDEST SWAP1 POP SWAP2 SWAP1 POP JUMP JUMPDEST PUSH0 PUSH1 0x40 DUP3 ADD SWAP1 POP PUSH2 0x108A PUSH0 DUP4 ADD DUP6 PUSH2 0xD74 JUMP JUMPDEST PUSH2 0x1097 PUSH1 0x20 DUP4 ADD DUP5 PUSH2 0xB16 JUMP JUMPDEST SWAP4 SWAP3 POP POP POP JUMP JUMPDEST PUSH0 DUP2 ISZERO ISZERO SWAP1 POP SWAP2 SWAP1 POP JUMP JUMPDEST PUSH2 0x10B2 DUP2 PUSH2 0x109E JUMP JUMPDEST DUP2 EQ PUSH2 0x10BC JUMPI PUSH0 DUP1 REVERT JUMPDEST POP JUMP JUMPDEST PUSH0 DUP2 MLOAD SWAP1 POP PUSH2 0x10CD DUP2 PUSH2 0x10A9 JUMP JUMPDEST SWAP3 SWAP2 POP POP JUMP JUMPDEST PUSH0 PUSH1 0x20 DUP3 DUP5 SUB SLT ISZERO PUSH2 0x10E8 JUMPI PUSH2 0x10E7 PUSH2 0xA4E JUMP JUMPDEST JUMPDEST PUSH0 PUSH2 0x10F5 DUP5 DUP3 DUP6 ADD PUSH2 0x10BF JUMP JUMPDEST SWAP2 POP POP SWAP3 SWAP2 POP POP JUMP JUMPDEST PUSH32 0x4E487B7100000000000000000000000000000000000000000000000000000000 PUSH0 MSTORE PUSH1 0x11 PUSH1 0x4 MSTORE PUSH1 0x24 PUSH0 REVERT JUMPDEST PUSH0 PUSH2 0x1135 DUP3 PUSH2 0xB0D JUMP JUMPDEST SWAP2 POP PUSH2 0x1140 DUP4 PUSH2 0xB0D JUMP JUMPDEST SWAP3 POP DUP3 DUP3 ADD SWAP1 POP DUP1 DUP3 GT ISZERO PUSH2 0x1158 JUMPI PUSH2 0x1157 PUSH2 0x10FE JUMP JUMPDEST JUMPDEST SWAP3 SWAP2 POP POP JUMP JUMPDEST PUSH0 PUSH2 0x1168 DUP3 PUSH2 0xB0D JUMP JUMPDEST SWAP2 POP PUSH2 0x1173 DUP4 PUSH2 0xB0D JUMP JUMPDEST SWAP3 POP DUP3 DUP3 SUB SWAP1 POP DUP2 DUP2 GT ISZERO PUSH2 0x118B JUMPI PUSH2 0x118A PUSH2 0x10FE JUMP JUMPDEST JUMPDEST SWAP3 SWAP2 POP POP JUMP JUMPDEST PUSH0 PUSH2 0x119B DUP3 PUSH2 0xB0D JUMP JUMPDEST SWAP2 POP PUSH2 0x11A6 DUP4 PUSH2 0xB0D JUMP JUMPDEST SWAP3 POP DUP3 DUP3 MUL PUSH2 0x11B4 DUP2 PUSH2 0xB0D JUMP JUMPDEST SWAP2 POP DUP3 DUP3 DIV DUP5 EQ DUP4 ISZERO OR PUSH2 0x11CB JUMPI PUSH2 0x11CA PUSH2 0x10FE JUMP JUMPDEST JUMPDEST POP SWAP3 SWAP2 POP POP JUMP JUMPDEST PUSH32 0x4E487B7100000000000000000000000000000000000000000000000000000000 PUSH0 MSTORE PUSH1 0x12 PUSH1 0x4 MSTORE PUSH1 0x24 PUSH0 REVERT JUMPDEST PUSH0 PUSH2 0x1209 DUP3 PUSH2 0xB0D JUMP JUMPDEST SWAP2 POP PUSH2 0x1214 DUP4 PUSH2 0xB0D JUMP JUMPDEST SWAP3 POP DUP3 PUSH2 0x1224 JUMPI PUSH2 0x1223 PUSH2 0x11D2 JUMP JUMPDEST JUMPDEST DUP3 DUP3 DIV SWAP1 POP SWAP3 SWAP2 POP POP JUMP INVALID LOG2 PUSH5 0x6970667358 0x22 SLT KECCAK256 TIMESTAMP BALANCE PREVRANDAO DUP15 PREVRANDAO KECCAK256 INVALID PUSH9 0x60464CDDB459AADBEF 0x4B 0xEF SDIV CALLVALUE PUSH1 0x4E 0x2B ADDRESS JUMPI PUSH16 0xFBE0D3A7C764736F6C63430008150033 "
				},
				"gasEstimates": {
					"creation": {
						"codeDepositCost": "941800",
						"executionCost": "infinite",
						"totalCost": "infinite"
					},
					"external": {
						"addBeneficiary(address,uint8,uint256)": "infinite",
						"calculateVestedAmount((uint256,uint256,uint256,uint256,uint256))": "infinite",
						"claimTokens(uint8)": "infinite",
						"owner()": "2537",
						"renounceOwnership()": "infinite",
						"roleAllocation(uint8)": "2735",
						"startVesting()": "infinite",
						"token()": "infinite",
						"transferOwnership(address)": "infinite",
						"vestingSchedules(address,uint8)": "infinite"
					}
				},
				"methodIdentifiers": {
					"addBeneficiary(address,uint8,uint256)": "5c160f66",
					"calculateVestedAmount((uint256,uint256,uint256,uint256,uint256))": "4445358b",
					"claimTokens(uint8)": "5f118704",
					"owner()": "8da5cb5b",
					"renounceOwnership()": "715018a6",
					"roleAllocation(uint8)": "32f043ac",
					"startVesting()": "deb36e32",
					"token()": "fc0c546a",
					"transferOwnership(address)": "f2fde38b",
					"vestingSchedules(address,uint8)": "1bcf8d63"
				}
			},
			"storageLayout": {
				"storage": [
					{
						"astId": 8,
						"contract": "contracts/VestingContract.sol:VestingContract",
						"label": "_owner",
						"offset": 0,
						"slot": "0",
						"type": "t_address"
					},
					{
						"astId": 580,
						"contract": "contracts/VestingContract.sol:VestingContract",
						"label": "token",
						"offset": 0,
						"slot": "1",
						"type": "t_contract(IERC20)225"
					},
					{
						"astId": 603,
						"contract": "contracts/VestingContract.sol:VestingContract",
						"label": "vestingSchedules",
						"offset": 0,
						"slot": "2",
						"type": "t_mapping(t_address,t_mapping(t_enum(Role)584,t_struct(VestingSchedule)595_storage))"
					},
					{
						"astId": 608,
						"contract": "contracts/VestingContract.sol:VestingContract",
						"label": "roleAllocation",
						"offset": 0,
						"slot": "3",
						"type": "t_mapping(t_enum(Role)584,t_uint256)"
					}
				],
				"types": {
					"t_address": {
						"encoding": "inplace",
						"label": "address",
						"numberOfBytes": "20"
					},
					"t_contract(IERC20)225": {
						"encoding": "inplace",
						"label": "contract IERC20",
						"numberOfBytes": "20"
					},
					"t_enum(Role)584": {
						"encoding": "inplace",
						"label": "enum VestingContract.Role",
						"numberOfBytes": "1"
					},
					"t_mapping(t_address,t_mapping(t_enum(Role)584,t_struct(VestingSchedule)595_storage))": {
						"encoding": "mapping",
						"key": "t_address",
						"label": "mapping(address => mapping(enum VestingContract.Role => struct VestingContract.VestingSchedule))",
						"numberOfBytes": "32",
						"value": "t_mapping(t_enum(Role)584,t_struct(VestingSchedule)595_storage)"
					},
					"t_mapping(t_enum(Role)584,t_struct(VestingSchedule)595_storage)": {
						"encoding": "mapping",
						"key": "t_enum(Role)584",
						"label": "mapping(enum VestingContract.Role => struct VestingContract.VestingSchedule)",
						"numberOfBytes": "32",
						"value": "t_struct(VestingSchedule)595_storage"
					},
					"t_mapping(t_enum(Role)584,t_uint256)": {
						"encoding": "mapping",
						"key": "t_enum(Role)584",
						"label": "mapping(enum VestingContract.Role => uint256)",
						"numberOfBytes": "32",
						"value": "t_uint256"
					},
					"t_struct(VestingSchedule)595_storage": {
						"encoding": "inplace",
						"label": "struct VestingContract.VestingSchedule",
						"members": [
							{
								"astId": 586,
								"contract": "contracts/VestingContract.sol:VestingContract",
								"label": "cliff",
								"offset": 0,
								"slot": "0",
								"type": "t_uint256"
							},
							{
								"astId": 588,
								"contract": "contracts/VestingContract.sol:VestingContract",
								"label": "duration",
								"offset": 0,
								"slot": "1",
								"type": "t_uint256"
							},
							{
								"astId": 590,
								"contract": "contracts/VestingContract.sol:VestingContract",
								"label": "start",
								"offset": 0,
								"slot": "2",
								"type": "t_uint256"
							},
							{
								"astId": 592,
								"contract": "contracts/VestingContract.sol:VestingContract",
								"label": "totalAmount",
								"offset": 0,
								"slot": "3",
								"type": "t_uint256"
							},
							{
								"astId": 594,
								"contract": "contracts/VestingContract.sol:VestingContract",
								"label": "releasedAmount",
								"offset": 0,
								"slot": "4",
								"type": "t_uint256"
							}
						],
						"numberOfBytes": "160"
					},
					"t_uint256": {
						"encoding": "inplace",
						"label": "uint256",
						"numberOfBytes": "32"
					}
				}
			},
			"userdoc": {
				"kind": "user",
				"methods": {},
				"version": 1
			}
		}
	}
}